{"abi":[{"type":"constructor","inputs":[{"name":"_shares","type":"uint16","internalType":"uint16"},{"name":"_name","type":"string","internalType":"string"},{"name":"_salary","type":"uint32","internalType":"uint32"},{"name":"_idNumber","type":"uint256","internalType":"uint256"}],"stateMutability":"nonpayable"},{"type":"function","name":"checkForPacking","inputs":[{"name":"_slot","type":"uint256","internalType":"uint256"}],"outputs":[{"name":"r","type":"uint256","internalType":"uint256"}],"stateMutability":"view"},{"type":"function","name":"debugResetShares","inputs":[],"outputs":[],"stateMutability":"nonpayable"},{"type":"function","name":"grantShares","inputs":[{"name":"_newShares","type":"uint16","internalType":"uint16"}],"outputs":[],"stateMutability":"nonpayable"},{"type":"function","name":"idNumber","inputs":[],"outputs":[{"name":"","type":"uint256","internalType":"uint256"}],"stateMutability":"view"},{"type":"function","name":"name","inputs":[],"outputs":[{"name":"","type":"string","internalType":"string"}],"stateMutability":"view"},{"type":"function","name":"viewSalary","inputs":[],"outputs":[{"name":"","type":"uint32","internalType":"uint32"}],"stateMutability":"view"},{"type":"function","name":"viewShares","inputs":[],"outputs":[{"name":"","type":"uint16","internalType":"uint16"}],"stateMutability":"view"},{"type":"error","name":"TooManyShares","inputs":[{"name":"totalShares","type":"uint256","internalType":"uint256"}]}],"bytecode":{"object":"0x608060405234801562000010575f80fd5b5060405162000cd138038062000cd18339818101604052810190620000369190620002cb565b835f806101000a81548161ffff021916908361ffff160217905550826002908162000062919062000587565b50815f60026101000a81548163ffffffff021916908363ffffffff16021790555080600181905550505050506200066b565b5f604051905090565b5f80fd5b5f80fd5b5f61ffff82169050919050565b620000bd81620000a5565b8114620000c8575f80fd5b50565b5f81519050620000db81620000b2565b92915050565b5f80fd5b5f80fd5b5f601f19601f8301169050919050565b7f4e487b71000000000000000000000000000000000000000000000000000000005f52604160045260245ffd5b6200013182620000e9565b810181811067ffffffffffffffff82111715620001535762000152620000f9565b5b80604052505050565b5f6200016762000094565b905062000175828262000126565b919050565b5f67ffffffffffffffff821115620001975762000196620000f9565b5b620001a282620000e9565b9050602081019050919050565b5f5b83811015620001ce578082015181840152602081019050620001b1565b5f8484015250505050565b5f620001ef620001e9846200017a565b6200015c565b9050828152602081018484840111156200020e576200020d620000e5565b5b6200021b848285620001af565b509392505050565b5f82601f8301126200023a5762000239620000e1565b5b81516200024c848260208601620001d9565b91505092915050565b5f63ffffffff82169050919050565b6200026f8162000255565b81146200027a575f80fd5b50565b5f815190506200028d8162000264565b92915050565b5f819050919050565b620002a78162000293565b8114620002b2575f80fd5b50565b5f81519050620002c5816200029c565b92915050565b5f805f8060808587031215620002e657620002e56200009d565b5b5f620002f587828801620000cb565b945050602085015167ffffffffffffffff811115620003195762000318620000a1565b5b620003278782880162000223565b93505060406200033a878288016200027d565b92505060606200034d87828801620002b5565b91505092959194509250565b5f81519050919050565b7f4e487b71000000000000000000000000000000000000000000000000000000005f52602260045260245ffd5b5f6002820490506001821680620003a857607f821691505b602082108103620003be57620003bd62000363565b5b50919050565b5f819050815f5260205f209050919050565b5f6020601f8301049050919050565b5f82821b905092915050565b5f60088302620004227fffffffffffffffffffffffffffffffffffffffffffffffffffffffffffffffff82620003e5565b6200042e8683620003e5565b95508019841693508086168417925050509392505050565b5f819050919050565b5f6200046f62000469620004638462000293565b62000446565b62000293565b9050919050565b5f819050919050565b6200048a836200044f565b620004a2620004998262000476565b848454620003f1565b825550505050565b5f90565b620004b8620004aa565b620004c58184846200047f565b505050565b5b81811015620004ec57620004e05f82620004ae565b600181019050620004cb565b5050565b601f8211156200053b576200050581620003c4565b6200051084620003d6565b8101602085101562000520578190505b620005386200052f85620003d6565b830182620004ca565b50505b505050565b5f82821c905092915050565b5f6200055d5f198460080262000540565b1980831691505092915050565b5f6200057783836200054c565b9150826002028217905092915050565b620005928262000359565b67ffffffffffffffff811115620005ae57620005ad620000f9565b5b620005ba825462000390565b620005c7828285620004f0565b5f60209050601f831160018114620005fd575f8415620005e8578287015190505b620005f485826200056a565b86555062000663565b601f1984166200060d86620003c4565b5f5b8281101562000636578489015182556001820191506020850194506020810190506200060f565b8683101562000656578489015162000652601f8916826200054c565b8355505b6001600288020188555050505b505050505050565b61065880620006795f395ff3fe608060405234801561000f575f80fd5b506004361061007b575f3560e01c80634c764809116100595780634c764809146100d957806352c98689146100e35780636d45e2a5146100ff5780638f6a861a1461011d5761007b565b806306fdde031461007f5780633f83ea3b1461009d57806349574402146100bb575b5f80fd5b61008761014d565b6040516100949190610392565b60405180910390f35b6100a56101d9565b6040516100b291906103ca565b60405180910390f35b6100c36101df565b6040516100d09190610401565b60405180910390f35b6100e16101f7565b005b6100fd60048036038101906100f89190610455565b610216565b005b6101076102e9565b604051610114919061048f565b60405180910390f35b610137600480360381019061013291906104d2565b6102fe565b60405161014491906103ca565b60405180910390f35b6002805461015a9061052a565b80601f01602080910402602001604051908101604052809291908181526020018280546101869061052a565b80156101d15780601f106101a8576101008083540402835291602001916101d1565b820191905f5260205f20905b8154815290600101906020018083116101b457829003601f168201915b505050505081565b60015481565b5f8060029054906101000a900463ffffffff16905090565b6103e85f806101000a81548161ffff021916908361ffff160217905550565b6113888161ffff16111561025f576040517f08c379a0000000000000000000000000000000000000000000000000000000008152600401610256906105a4565b60405180910390fd5b5f8161ffff165f8054906101000a900461ffff1661ffff1661028191906105ef565b90506113888111156102ca57806040517f0f7d41090000000000000000000000000000000000000000000000000000000081526004016102c191906103ca565b60405180910390fd5b805f806101000a81548161ffff021916908361ffff1602179055505050565b5f805f9054906101000a900461ffff16905090565b5f81549050919050565b5f81519050919050565b5f82825260208201905092915050565b5f5b8381101561033f578082015181840152602081019050610324565b5f8484015250505050565b5f601f19601f8301169050919050565b5f61036482610308565b61036e8185610312565b935061037e818560208601610322565b6103878161034a565b840191505092915050565b5f6020820190508181035f8301526103aa818461035a565b905092915050565b5f819050919050565b6103c4816103b2565b82525050565b5f6020820190506103dd5f8301846103bb565b92915050565b5f63ffffffff82169050919050565b6103fb816103e3565b82525050565b5f6020820190506104145f8301846103f2565b92915050565b5f80fd5b5f61ffff82169050919050565b6104348161041e565b811461043e575f80fd5b50565b5f8135905061044f8161042b565b92915050565b5f6020828403121561046a5761046961041a565b5b5f61047784828501610441565b91505092915050565b6104898161041e565b82525050565b5f6020820190506104a25f830184610480565b92915050565b6104b1816103b2565b81146104bb575f80fd5b50565b5f813590506104cc816104a8565b92915050565b5f602082840312156104e7576104e661041a565b5b5f6104f4848285016104be565b91505092915050565b7f4e487b71000000000000000000000000000000000000000000000000000000005f52602260045260245ffd5b5f600282049050600182168061054157607f821691505b602082108103610554576105536104fd565b5b50919050565b7f546f6f206d616e792073686172657300000000000000000000000000000000005f82015250565b5f61058e600f83610312565b91506105998261055a565b602082019050919050565b5f6020820190508181035f8301526105bb81610582565b9050919050565b7f4e487b71000000000000000000000000000000000000000000000000000000005f52601160045260245ffd5b5f6105f9826103b2565b9150610604836103b2565b925082820190508082111561061c5761061b6105c2565b5b9291505056fea2646970667358221220e3498d873f5a3344b73fa99b1ff3e1006ce09172402886402926894b76bd2aef64736f6c63430008140033","linkReferences":{}},"methodIdentifiers":{"checkForPacking(uint256)":"8f6a861a","debugResetShares()":"4c764809","grantShares(uint16)":"52c98689","idNumber()":"3f83ea3b","name()":"06fdde03","viewSalary()":"49574402","viewShares()":"6d45e2a5"},"id":62}