{"abi":[{"type":"function","name":"addToArr","inputs":[{"name":"_num","type":"uint256","internalType":"uint256"}],"outputs":[],"stateMutability":"nonpayable"},{"type":"function","name":"applyModifier","inputs":[{"name":"_base","type":"uint256","internalType":"uint256"},{"name":"_modifier","type":"int256","internalType":"int256"}],"outputs":[{"name":"","type":"uint256","internalType":"uint256"}],"stateMutability":"pure"},{"type":"function","name":"diffWithNeighbor","inputs":[{"name":"_a","type":"uint256","internalType":"uint256"},{"name":"_b","type":"uint256","internalType":"uint256"},{"name":"_c","type":"uint256","internalType":"uint256"},{"name":"_d","type":"uint256","internalType":"uint256"}],"outputs":[{"name":"","type":"uint256[]","internalType":"uint256[]"}],"stateMutability":"pure"},{"type":"function","name":"getArr","inputs":[],"outputs":[{"name":"","type":"uint256[]","internalType":"uint256[]"}],"stateMutability":"view"},{"type":"function","name":"popWithReturn","inputs":[],"outputs":[{"name":"","type":"uint256","internalType":"uint256"}],"stateMutability":"nonpayable"},{"type":"function","name":"resetArr","inputs":[],"outputs":[],"stateMutability":"nonpayable"}],"bytecode":{"object":"0x608060405234801561000f575f80fd5b506108e18061001d5f395ff3fe608060405234801561000f575f80fd5b5060043610610060575f3560e01c80631abe2ac214610064578063294323141461008257806364529db5146100b2578063e1819ff9146100bc578063f74e51ea146100d8578063fb8cbced14610108575b5f80fd5b61006c610126565b604051610079919061044d565b60405180910390f35b61009c60048036038101906100979190610494565b6101c7565b6040516100a991906105af565b60405180910390f35b6100ba6102f0565b005b6100d660048036038101906100d191906105cf565b6102fe565b005b6100f260048036038101906100ed919061062d565b610326565b6040516100ff919061044d565b60405180910390f35b6101106103a7565b60405161011d91906105af565b60405180910390f35b5f805f805490501161016d576040517f08c379a0000000000000000000000000000000000000000000000000000000008152600401610164906106c5565b60405180910390fd5b5f8060015f805490506101809190610710565b8154811061019157610190610743565b5b905f5260205f20015490505f8054806101ad576101ac610770565b5b600190038181905f5260205f20015f905590558091505090565b60605f600367ffffffffffffffff8111156101e5576101e461079d565b5b6040519080825280602002602001820160405280156102135781602001602082028036833780820191505090505b50905084861161022e5785856102299190610710565b61023b565b848661023a9190610710565b5b815f8151811061024e5761024d610743565b5b60200260200101818152505083851161027257848461026d9190610710565b61027f565b838561027e9190610710565b5b8160018151811061029357610292610743565b5b6020026020010181815250508284116102b75783836102b29190610710565b6102c4565b82846102c39190610710565b5b816002815181106102d8576102d7610743565b5b60200260200101818152505080915050949350505050565b5f806102fc91906103fc565b565b5f81908060018154018082558091505060019003905f5260205f20015f909190919091505550565b5f80821261034157818361033a91906107ca565b90506103a1565b5f8261034c906107fd565b905080841015610391576040517f08c379a00000000000000000000000000000000000000000000000000000000081526004016103889061088d565b60405180910390fd5b808461039d9190610710565b9150505b92915050565b60605f8054806020026020016040519081016040528092919081815260200182805480156103f257602002820191905f5260205f20905b8154815260200190600101908083116103de575b5050505050905090565b5080545f8255905f5260205f2090810190610417919061041a565b50565b5b80821115610431575f815f90555060010161041b565b5090565b5f819050919050565b61044781610435565b82525050565b5f6020820190506104605f83018461043e565b92915050565b5f80fd5b61047381610435565b811461047d575f80fd5b50565b5f8135905061048e8161046a565b92915050565b5f805f80608085870312156104ac576104ab610466565b5b5f6104b987828801610480565b94505060206104ca87828801610480565b93505060406104db87828801610480565b92505060606104ec87828801610480565b91505092959194509250565b5f81519050919050565b5f82825260208201905092915050565b5f819050602082019050919050565b61052a81610435565b82525050565b5f61053b8383610521565b60208301905092915050565b5f602082019050919050565b5f61055d826104f8565b6105678185610502565b935061057283610512565b805f5b838110156105a25781516105898882610530565b975061059483610547565b925050600181019050610575565b5085935050505092915050565b5f6020820190508181035f8301526105c78184610553565b905092915050565b5f602082840312156105e4576105e3610466565b5b5f6105f184828501610480565b91505092915050565b5f819050919050565b61060c816105fa565b8114610616575f80fd5b50565b5f8135905061062781610603565b92915050565b5f806040838503121561064357610642610466565b5b5f61065085828601610480565b925050602061066185828601610619565b9150509250929050565b5f82825260208201905092915050565b7f417272617920697320656d7074790000000000000000000000000000000000005f82015250565b5f6106af600e8361066b565b91506106ba8261067b565b602082019050919050565b5f6020820190508181035f8301526106dc816106a3565b9050919050565b7f4e487b71000000000000000000000000000000000000000000000000000000005f52601160045260245ffd5b5f61071a82610435565b915061072583610435565b925082820390508181111561073d5761073c6106e3565b5b92915050565b7f4e487b71000000000000000000000000000000000000000000000000000000005f52603260045260245ffd5b7f4e487b71000000000000000000000000000000000000000000000000000000005f52603160045260245ffd5b7f4e487b71000000000000000000000000000000000000000000000000000000005f52604160045260245ffd5b5f6107d482610435565b91506107df83610435565b92508282019050808211156107f7576107f66106e3565b5b92915050565b5f610807826105fa565b91507f80000000000000000000000000000000000000000000000000000000000000008203610839576108386106e3565b5b815f039050919050565b7f4d6f64696669657220776f756c6420636175736520756e646572666c6f7700005f82015250565b5f610877601e8361066b565b915061088282610843565b602082019050919050565b5f6020820190508181035f8301526108a48161086b565b905091905056fea26469706673582212208c0df3a07c6da7cd3fb998949fc1bf6c429e032c5f7a386146df811fa4236f4064736f6c63430008140033","linkReferences":{}},"methodIdentifiers":{"addToArr(uint256)":"e1819ff9","applyModifier(uint256,int256)":"f74e51ea","diffWithNeighbor(uint256,uint256,uint256,uint256)":"29432314","getArr()":"fb8cbced","popWithReturn()":"1abe2ac2","resetArr()":"64529db5"},"id":63}