{"abi":[{"type":"function","name":"addCar","inputs":[{"name":"_make","type":"string","internalType":"string"},{"name":"_model","type":"string","internalType":"string"},{"name":"_color","type":"string","internalType":"string"},{"name":"_numberOfDoors","type":"uint256","internalType":"uint256"}],"outputs":[],"stateMutability":"nonpayable"},{"type":"function","name":"garage","inputs":[{"name":"","type":"address","internalType":"address"},{"name":"","type":"uint256","internalType":"uint256"}],"outputs":[{"name":"make","type":"string","internalType":"string"},{"name":"model","type":"string","internalType":"string"},{"name":"color","type":"string","internalType":"string"},{"name":"numberOfDoors","type":"uint256","internalType":"uint256"}],"stateMutability":"view"},{"type":"function","name":"getCarsByMake","inputs":[{"name":"_user","type":"address","internalType":"address"},{"name":"_make","type":"string","internalType":"string"}],"outputs":[{"name":"matchingCars","type":"tuple[]","internalType":"struct GarageManager.Car[]","components":[{"name":"make","type":"string","internalType":"string"},{"name":"model","type":"string","internalType":"string"},{"name":"color","type":"string","internalType":"string"},{"name":"numberOfDoors","type":"uint256","internalType":"uint256"}]},{"name":"indices","type":"uint256[]","internalType":"uint256[]"}],"stateMutability":"view"},{"type":"function","name":"getMyCar","inputs":[{"name":"_index","type":"uint256","internalType":"uint256"}],"outputs":[{"name":"","type":"tuple","internalType":"struct GarageManager.Car","components":[{"name":"make","type":"string","internalType":"string"},{"name":"model","type":"string","internalType":"string"},{"name":"color","type":"string","internalType":"string"},{"name":"numberOfDoors","type":"uint256","internalType":"uint256"}]}],"stateMutability":"view"},{"type":"function","name":"getMyCarCount","inputs":[],"outputs":[{"name":"","type":"uint256","internalType":"uint256"}],"stateMutability":"view"},{"type":"function","name":"getMyCars","inputs":[],"outputs":[{"name":"","type":"tuple[]","internalType":"struct GarageManager.Car[]","components":[{"name":"make","type":"string","internalType":"string"},{"name":"model","type":"string","internalType":"string"},{"name":"color","type":"string","internalType":"string"},{"name":"numberOfDoors","type":"uint256","internalType":"uint256"}]}],"stateMutability":"view"},{"type":"function","name":"getUserCar","inputs":[{"name":"_user","type":"address","internalType":"address"},{"name":"_index","type":"uint256","internalType":"uint256"}],"outputs":[{"name":"","type":"tuple","internalType":"struct GarageManager.Car","components":[{"name":"make","type":"string","internalType":"string"},{"name":"model","type":"string","internalType":"string"},{"name":"color","type":"string","internalType":"string"},{"name":"numberOfDoors","type":"uint256","internalType":"uint256"}]}],"stateMutability":"view"},{"type":"function","name":"getUserCarCount","inputs":[{"name":"_user","type":"address","internalType":"address"}],"outputs":[{"name":"","type":"uint256","internalType":"uint256"}],"stateMutability":"view"},{"type":"function","name":"getUserCarMakes","inputs":[{"name":"_user","type":"address","internalType":"address"}],"outputs":[{"name":"","type":"string[]","internalType":"string[]"}],"stateMutability":"view"},{"type":"function","name":"getUserCars","inputs":[{"name":"_user","type":"address","internalType":"address"}],"outputs":[{"name":"","type":"tuple[]","internalType":"struct GarageManager.Car[]","components":[{"name":"make","type":"string","internalType":"string"},{"name":"model","type":"string","internalType":"string"},{"name":"color","type":"string","internalType":"string"},{"name":"numberOfDoors","type":"uint256","internalType":"uint256"}]}],"stateMutability":"view"},{"type":"function","name":"hasAnyCars","inputs":[{"name":"_user","type":"address","internalType":"address"}],"outputs":[{"name":"","type":"bool","internalType":"bool"}],"stateMutability":"view"},{"type":"function","name":"removeCar","inputs":[{"name":"_index","type":"uint256","internalType":"uint256"}],"outputs":[],"stateMutability":"nonpayable"},{"type":"function","name":"resetMyGarage","inputs":[],"outputs":[],"stateMutability":"nonpayable"},{"type":"function","name":"updateCar","inputs":[{"name":"_index","type":"uint256","internalType":"uint256"},{"name":"_make","type":"string","internalType":"string"},{"name":"_model","type":"string","internalType":"string"},{"name":"_color","type":"string","internalType":"string"},{"name":"_numberOfDoors","type":"uint256","internalType":"uint256"}],"outputs":[],"stateMutability":"nonpayable"},{"type":"event","name":"CarAdded","inputs":[{"name":"owner","type":"address","indexed":true,"internalType":"address"},{"name":"index","type":"uint256","indexed":false,"internalType":"uint256"},{"name":"make","type":"string","indexed":false,"internalType":"string"},{"name":"model","type":"string","indexed":false,"internalType":"string"}],"anonymous":false},{"type":"event","name":"CarUpdated","inputs":[{"name":"owner","type":"address","indexed":true,"internalType":"address"},{"name":"index","type":"uint256","indexed":false,"internalType":"uint256"},{"name":"make","type":"string","indexed":false,"internalType":"string"},{"name":"model","type":"string","indexed":false,"internalType":"string"}],"anonymous":false},{"type":"event","name":"GarageReset","inputs":[{"name":"owner","type":"address","indexed":true,"internalType":"address"},{"name":"carsRemoved","type":"uint256","indexed":false,"internalType":"uint256"}],"anonymous":false},{"type":"error","name":"BadCarIndex","inputs":[{"name":"index","type":"uint256","internalType":"uint256"}]}],"bytecode":{"object":"0x608060405234801561000f575f80fd5b50612ea68061001d5f395ff3fe608060405234801561000f575f80fd5b50600436106100e8575f3560e01c80636a38ddb31161008a578063ab48769011610064578063ab4876901461025e578063b43ba30c1461028e578063c2fbbd20146102be578063d2d50bd8146102ee576100e8565b80636a38ddb31461021a5780636dcb7896146102365780637d58b04d14610240576100e8565b806337a07121116100c657806337a071211461016b5780633ecd55a91461019b5780634cd1ed3d146101ce5780635373dec3146101ea576100e8565b80631feb1bf9146100ec5780632698286c1461011d578063341fa05d1461014d575b5f80fd5b610106600480360381019061010191906120bd565b61030a565b60405161011492919061237a565b60405180910390f35b610137600480360381019061013291906123af565b61079a565b60405161014491906123da565b60405180910390f35b6101556109eb565b60405161016291906123da565b60405180910390f35b61018560048036038101906101809190612424565b610c3a565b60405161019291906124bd565b60405180910390f35b6101b560048036038101906101b091906124dd565b610eea565b6040516101c59493929190612572565b60405180910390f35b6101e860048036038101906101e39190612627565b6110c1565b005b61020460048036038101906101ff91906123af565b6112ff565b60405161021191906126fe565b60405180910390f35b610234600480360381019061022f9190612424565b611347565b005b61023e6114c5565b005b6102486115a0565b60405161025591906126fe565b60405180910390f35b610278600480360381019061027391906123af565b6115e6565b6040516102859190612731565b60405180910390f35b6102a860048036038101906102a391906124dd565b611630565b6040516102b591906124bd565b60405180910390f35b6102d860048036038101906102d391906123af565b6118e1565b6040516102e59190612805565b60405180910390f35b61030860048036038101906103039190612825565b611be5565b005b6060805f805f8673ffffffffffffffffffffffffffffffffffffffff1673ffffffffffffffffffffffffffffffffffffffff1681526020019081526020015f20805480602002602001604051908101604052809291908181526020015f905b82821015610552578382905f5260205f2090600402016040518060800160405290815f8201805461039990612916565b80601f01602080910402602001604051908101604052809291908181526020018280546103c590612916565b80156104105780601f106103e757610100808354040283529160200191610410565b820191905f5260205f20905b8154815290600101906020018083116103f357829003601f168201915b5050505050815260200160018201805461042990612916565b80601f016020809104026020016040519081016040528092919081815260200182805461045590612916565b80156104a05780601f10610477576101008083540402835291602001916104a0565b820191905f5260205f20905b81548152906001019060200180831161048357829003601f168201915b505050505081526020016002820180546104b990612916565b80601f01602080910402602001604051908101604052809291908181526020018280546104e590612916565b80156105305780601f1061050757610100808354040283529160200191610530565b820191905f5260205f20905b81548152906001019060200180831161051357829003601f168201915b5050505050815260200160038201548152505081526020019060010190610369565b5050505090505f805b82518110156105f657856040516020016105759190612980565b6040516020818303038152906040528051906020012083828151811061059e5761059d612996565b5b60200260200101515f01516040516020016105b99190612980565b60405160208183030381529060405280519060200120036105e35781806105df906129f0565b9250505b80806105ee906129f0565b91505061055b565b508067ffffffffffffffff81111561061157610610611f99565b5b60405190808252806020026020018201604052801561064a57816020015b610637611e2c565b81526020019060019003908161062f5790505b5093508067ffffffffffffffff81111561066757610666611f99565b5b6040519080825280602002602001820160405280156106955781602001602082028036833780820191505090505b5092505f805b835181101561078f57866040516020016106b59190612980565b604051602081830303815290604052805190602001208482815181106106de576106dd612996565b5b60200260200101515f01516040516020016106f99190612980565b604051602081830303815290604052805190602001200361077c5783818151811061072757610726612996565b5b602002602001015186838151811061074257610741612996565b5b60200260200101819052508085838151811061076157610760612996565b5b6020026020010181815250508180610778906129f0565b9250505b8080610787906129f0565b91505061069b565b505050509250929050565b60605f808373ffffffffffffffffffffffffffffffffffffffff1673ffffffffffffffffffffffffffffffffffffffff1681526020019081526020015f20805480602002602001604051908101604052809291908181526020015f905b828210156109e0578382905f5260205f2090600402016040518060800160405290815f8201805461082790612916565b80601f016020809104026020016040519081016040528092919081815260200182805461085390612916565b801561089e5780601f106108755761010080835404028352916020019161089e565b820191905f5260205f20905b81548152906001019060200180831161088157829003601f168201915b505050505081526020016001820180546108b790612916565b80601f01602080910402602001604051908101604052809291908181526020018280546108e390612916565b801561092e5780601f106109055761010080835404028352916020019161092e565b820191905f5260205f20905b81548152906001019060200180831161091157829003601f168201915b5050505050815260200160028201805461094790612916565b80601f016020809104026020016040519081016040528092919081815260200182805461097390612916565b80156109be5780601f10610995576101008083540402835291602001916109be565b820191905f5260205f20905b8154815290600101906020018083116109a157829003601f168201915b50505050508152602001600382015481525050815260200190600101906107f7565b505050509050919050565b60605f803373ffffffffffffffffffffffffffffffffffffffff1673ffffffffffffffffffffffffffffffffffffffff1681526020019081526020015f20805480602002602001604051908101604052809291908181526020015f905b82821015610c31578382905f5260205f2090600402016040518060800160405290815f82018054610a7890612916565b80601f0160208091040260200160405190810160405280929190818152602001828054610aa490612916565b8015610aef5780601f10610ac657610100808354040283529160200191610aef565b820191905f5260205f20905b815481529060010190602001808311610ad257829003601f168201915b50505050508152602001600182018054610b0890612916565b80601f0160208091040260200160405190810160405280929190818152602001828054610b3490612916565b8015610b7f5780601f10610b5657610100808354040283529160200191610b7f565b820191905f5260205f20905b815481529060010190602001808311610b6257829003601f168201915b50505050508152602001600282018054610b9890612916565b80601f0160208091040260200160405190810160405280929190818152602001828054610bc490612916565b8015610c0f5780601f10610be657610100808354040283529160200191610c0f565b820191905f5260205f20905b815481529060010190602001808311610bf257829003601f168201915b5050505050815260200160038201548152505081526020019060010190610a48565b50505050905090565b610c42611e2c565b5f803373ffffffffffffffffffffffffffffffffffffffff1673ffffffffffffffffffffffffffffffffffffffff1681526020019081526020015f20805490508210610cc557816040517f40c901ce000000000000000000000000000000000000000000000000000000008152600401610cbc91906126fe565b60405180910390fd5b5f803373ffffffffffffffffffffffffffffffffffffffff1673ffffffffffffffffffffffffffffffffffffffff1681526020019081526020015f208281548110610d1357610d12612996565b5b905f5260205f2090600402016040518060800160405290815f82018054610d3990612916565b80601f0160208091040260200160405190810160405280929190818152602001828054610d6590612916565b8015610db05780601f10610d8757610100808354040283529160200191610db0565b820191905f5260205f20905b815481529060010190602001808311610d9357829003601f168201915b50505050508152602001600182018054610dc990612916565b80601f0160208091040260200160405190810160405280929190818152602001828054610df590612916565b8015610e405780601f10610e1757610100808354040283529160200191610e40565b820191905f5260205f20905b815481529060010190602001808311610e2357829003601f168201915b50505050508152602001600282018054610e5990612916565b80601f0160208091040260200160405190810160405280929190818152602001828054610e8590612916565b8015610ed05780601f10610ea757610100808354040283529160200191610ed0565b820191905f5260205f20905b815481529060010190602001808311610eb357829003601f168201915b505050505081526020016003820154815250509050919050565b5f602052815f5260405f208181548110610f02575f80fd5b905f5260205f2090600402015f9150915050805f018054610f2290612916565b80601f0160208091040260200160405190810160405280929190818152602001828054610f4e90612916565b8015610f995780601f10610f7057610100808354040283529160200191610f99565b820191905f5260205f20905b815481529060010190602001808311610f7c57829003601f168201915b505050505090806001018054610fae90612916565b80601f0160208091040260200160405190810160405280929190818152602001828054610fda90612916565b80156110255780601f10610ffc57610100808354040283529160200191611025565b820191905f5260205f20905b81548152906001019060200180831161100857829003601f168201915b50505050509080600201805461103a90612916565b80601f016020809104026020016040519081016040528092919081815260200182805461106690612916565b80156110b15780601f10611088576101008083540402835291602001916110b1565b820191905f5260205f20905b81548152906001019060200180831161109457829003601f168201915b5050505050908060030154905084565b5f805f3373ffffffffffffffffffffffffffffffffffffffff1673ffffffffffffffffffffffffffffffffffffffff1681526020019081526020015f2090508080549050891061114857886040517f40c901ce00000000000000000000000000000000000000000000000000000000815260040161113f91906126fe565b60405180910390fd5b604051806080016040528089898080601f0160208091040260200160405190810160405280939291908181526020018383808284375f81840152601f19601f82011690508083019250505050505050815260200187878080601f0160208091040260200160405190810160405280939291908181526020018383808284375f81840152601f19601f82011690508083019250505050505050815260200185858080601f0160208091040260200160405190810160405280939291908181526020018383808284375f81840152601f19601f82011690508083019250505050505050815260200183815250818a8154811061124557611244612996565b5b905f5260205f2090600402015f820151815f0190816112649190612bd4565b50602082015181600101908161127a9190612bd4565b5060408201518160020190816112909190612bd4565b50606082015181600301559050503373ffffffffffffffffffffffffffffffffffffffff167f08b61da9a2bbafa5e9826894ff1f829c414e9adc83bec4cf716aeae0c68ad3068a8a8a8a8a6040516112ec959493929190612ccf565b60405180910390a2505050505050505050565b5f805f8373ffffffffffffffffffffffffffffffffffffffff1673ffffffffffffffffffffffffffffffffffffffff1681526020019081526020015f20805490509050919050565b5f805f3373ffffffffffffffffffffffffffffffffffffffff1673ffffffffffffffffffffffffffffffffffffffff1681526020019081526020015f209050808054905082106113ce57816040517f40c901ce0000000000000000000000000000000000000000000000000000000081526004016113c591906126fe565b60405180910390fd5b80600182805490506113e09190612d16565b815481106113f1576113f0612996565b5b905f5260205f2090600402018183815481106114105761140f612996565b5b905f5260205f2090600402015f8201815f01908161142e9190612d5e565b50600182018160010190816114439190612d5e565b50600282018160020190816114589190612d5e565b50600382015481600301559050508080548061147757611476612e43565b5b600190038181905f5260205f2090600402015f8082015f6114989190611e53565b600182015f6114a79190611e53565b600282015f6114b69190611e53565b600382015f9055505090555050565b5f805f3373ffffffffffffffffffffffffffffffffffffffff1673ffffffffffffffffffffffffffffffffffffffff1681526020019081526020015f208054905090505f803373ffffffffffffffffffffffffffffffffffffffff1673ffffffffffffffffffffffffffffffffffffffff1681526020019081526020015f205f61154f9190611e90565b3373ffffffffffffffffffffffffffffffffffffffff167fbd6053876b4fa1c1b6f8d471a64ca85567a8cd0cee2393c1d485c953c7d4185a8260405161159591906126fe565b60405180910390a250565b5f805f3373ffffffffffffffffffffffffffffffffffffffff1673ffffffffffffffffffffffffffffffffffffffff1681526020019081526020015f2080549050905090565b5f805f808473ffffffffffffffffffffffffffffffffffffffff1673ffffffffffffffffffffffffffffffffffffffff1681526020019081526020015f2080549050119050919050565b611638611e2c565b5f808473ffffffffffffffffffffffffffffffffffffffff1673ffffffffffffffffffffffffffffffffffffffff1681526020019081526020015f208054905082106116bb57816040517f40c901ce0000000000000000000000000000000000000000000000000000000081526004016116b291906126fe565b60405180910390fd5b5f808473ffffffffffffffffffffffffffffffffffffffff1673ffffffffffffffffffffffffffffffffffffffff1681526020019081526020015f20828154811061170957611708612996565b5b905f5260205f2090600402016040518060800160405290815f8201805461172f90612916565b80601f016020809104026020016040519081016040528092919081815260200182805461175b90612916565b80156117a65780601f1061177d576101008083540402835291602001916117a6565b820191905f5260205f20905b81548152906001019060200180831161178957829003601f168201915b505050505081526020016001820180546117bf90612916565b80601f01602080910402602001604051908101604052809291908181526020018280546117eb90612916565b80156118365780601f1061180d57610100808354040283529160200191611836565b820191905f5260205f20905b81548152906001019060200180831161181957829003601f168201915b5050505050815260200160028201805461184f90612916565b80601f016020809104026020016040519081016040528092919081815260200182805461187b90612916565b80156118c65780601f1061189d576101008083540402835291602001916118c6565b820191905f5260205f20905b8154815290600101906020018083116118a957829003601f168201915b50505050508152602001600382015481525050905092915050565b60605f805f8473ffffffffffffffffffffffffffffffffffffffff1673ffffffffffffffffffffffffffffffffffffffff1681526020019081526020015f20805480602002602001604051908101604052809291908181526020015f905b82821015611b28578382905f5260205f2090600402016040518060800160405290815f8201805461196f90612916565b80601f016020809104026020016040519081016040528092919081815260200182805461199b90612916565b80156119e65780601f106119bd576101008083540402835291602001916119e6565b820191905f5260205f20905b8154815290600101906020018083116119c957829003601f168201915b505050505081526020016001820180546119ff90612916565b80601f0160208091040260200160405190810160405280929190818152602001828054611a2b90612916565b8015611a765780601f10611a4d57610100808354040283529160200191611a76565b820191905f5260205f20905b815481529060010190602001808311611a5957829003601f168201915b50505050508152602001600282018054611a8f90612916565b80601f0160208091040260200160405190810160405280929190818152602001828054611abb90612916565b8015611b065780601f10611add57610100808354040283529160200191611b06565b820191905f5260205f20905b815481529060010190602001808311611ae957829003601f168201915b505050505081526020016003820154815250508152602001906001019061193f565b5050505090505f815167ffffffffffffffff811115611b4a57611b49611f99565b5b604051908082528060200260200182016040528015611b7d57816020015b6060815260200190600190039081611b685790505b5090505f5b8251811015611bda57828181518110611b9e57611b9d612996565b5b60200260200101515f0151828281518110611bbc57611bbb612996565b5b60200260200101819052508080611bd2906129f0565b915050611b82565b508092505050919050565b5f604051806080016040528089898080601f0160208091040260200160405190810160405280939291908181526020018383808284375f81840152601f19601f82011690508083019250505050505050815260200187878080601f0160208091040260200160405190810160405280939291908181526020018383808284375f81840152601f19601f82011690508083019250505050505050815260200185858080601f0160208091040260200160405190810160405280939291908181526020018383808284375f81840152601f19601f8201169050808301925050505050505081526020018381525090505f803373ffffffffffffffffffffffffffffffffffffffff1673ffffffffffffffffffffffffffffffffffffffff1681526020019081526020015f2081908060018154018082558091505060019003905f5260205f2090600402015f909190919091505f820151815f019081611d489190612bd4565b506020820151816001019081611d5e9190612bd4565b506040820151816002019081611d749190612bd4565b506060820151816003015550503373ffffffffffffffffffffffffffffffffffffffff167fcd7d530872a196e2af1b97aa60c77b7effcefb484477234b546543b98d43baae60015f803373ffffffffffffffffffffffffffffffffffffffff1673ffffffffffffffffffffffffffffffffffffffff1681526020019081526020015f2080549050611e059190612d16565b8a8a8a8a604051611e1a959493929190612ccf565b60405180910390a25050505050505050565b60405180608001604052806060815260200160608152602001606081526020015f81525090565b508054611e5f90612916565b5f825580601f10611e705750611e8d565b601f0160209004905f5260205f2090810190611e8c9190611eb1565b5b50565b5080545f8255600402905f5260205f2090810190611eae9190611ecc565b50565b5b80821115611ec8575f815f905550600101611eb2565b5090565b5b80821115611f12575f8082015f611ee49190611e53565b600182015f611ef39190611e53565b600282015f611f029190611e53565b600382015f905550600401611ecd565b5090565b5f604051905090565b5f80fd5b5f80fd5b5f73ffffffffffffffffffffffffffffffffffffffff82169050919050565b5f611f5082611f27565b9050919050565b611f6081611f46565b8114611f6a575f80fd5b50565b5f81359050611f7b81611f57565b92915050565b5f80fd5b5f80fd5b5f601f19601f8301169050919050565b7f4e487b71000000000000000000000000000000000000000000000000000000005f52604160045260245ffd5b611fcf82611f89565b810181811067ffffffffffffffff82111715611fee57611fed611f99565b5b80604052505050565b5f612000611f16565b905061200c8282611fc6565b919050565b5f67ffffffffffffffff82111561202b5761202a611f99565b5b61203482611f89565b9050602081019050919050565b828183375f83830152505050565b5f61206161205c84612011565b611ff7565b90508281526020810184848401111561207d5761207c611f85565b5b612088848285612041565b509392505050565b5f82601f8301126120a4576120a3611f81565b5b81356120b484826020860161204f565b91505092915050565b5f80604083850312156120d3576120d2611f1f565b5b5f6120e085828601611f6d565b925050602083013567ffffffffffffffff81111561210157612100611f23565b5b61210d85828601612090565b9150509250929050565b5f81519050919050565b5f82825260208201905092915050565b5f819050602082019050919050565b5f81519050919050565b5f82825260208201905092915050565b5f5b8381101561217757808201518184015260208101905061215c565b5f8484015250505050565b5f61218c82612140565b612196818561214a565b93506121a681856020860161215a565b6121af81611f89565b840191505092915050565b5f819050919050565b6121cc816121ba565b82525050565b5f608083015f8301518482035f8601526121ec8282612182565b915050602083015184820360208601526122068282612182565b915050604083015184820360408601526122208282612182565b915050606083015161223560608601826121c3565b508091505092915050565b5f61224b83836121d2565b905092915050565b5f602082019050919050565b5f61226982612117565b6122738185612121565b93508360208202850161228585612131565b805f5b858110156122c057848403895281516122a18582612240565b94506122ac83612253565b925060208a01995050600181019050612288565b50829750879550505050505092915050565b5f81519050919050565b5f82825260208201905092915050565b5f819050602082019050919050565b5f61230683836121c3565b60208301905092915050565b5f602082019050919050565b5f612328826122d2565b61233281856122dc565b935061233d836122ec565b805f5b8381101561236d57815161235488826122fb565b975061235f83612312565b925050600181019050612340565b5085935050505092915050565b5f6040820190508181035f830152612392818561225f565b905081810360208301526123a6818461231e565b90509392505050565b5f602082840312156123c4576123c3611f1f565b5b5f6123d184828501611f6d565b91505092915050565b5f6020820190508181035f8301526123f2818461225f565b905092915050565b612403816121ba565b811461240d575f80fd5b50565b5f8135905061241e816123fa565b92915050565b5f6020828403121561243957612438611f1f565b5b5f61244684828501612410565b91505092915050565b5f608083015f8301518482035f8601526124698282612182565b915050602083015184820360208601526124838282612182565b9150506040830151848203604086015261249d8282612182565b91505060608301516124b260608601826121c3565b508091505092915050565b5f6020820190508181035f8301526124d5818461244f565b905092915050565b5f80604083850312156124f3576124f2611f1f565b5b5f61250085828601611f6d565b925050602061251185828601612410565b9150509250929050565b5f82825260208201905092915050565b5f61253582612140565b61253f818561251b565b935061254f81856020860161215a565b61255881611f89565b840191505092915050565b61256c816121ba565b82525050565b5f6080820190508181035f83015261258a818761252b565b9050818103602083015261259e818661252b565b905081810360408301526125b2818561252b565b90506125c16060830184612563565b95945050505050565b5f80fd5b5f80fd5b5f8083601f8401126125e7576125e6611f81565b5b8235905067ffffffffffffffff811115612604576126036125ca565b5b6020830191508360018202830111156126205761261f6125ce565b5b9250929050565b5f805f805f805f8060a0898b03121561264357612642611f1f565b5b5f6126508b828c01612410565b985050602089013567ffffffffffffffff81111561267157612670611f23565b5b61267d8b828c016125d2565b9750975050604089013567ffffffffffffffff8111156126a05761269f611f23565b5b6126ac8b828c016125d2565b9550955050606089013567ffffffffffffffff8111156126cf576126ce611f23565b5b6126db8b828c016125d2565b935093505060806126ee8b828c01612410565b9150509295985092959890939650565b5f6020820190506127115f830184612563565b92915050565b5f8115159050919050565b61272b81612717565b82525050565b5f6020820190506127445f830184612722565b92915050565b5f81519050919050565b5f82825260208201905092915050565b5f819050602082019050919050565b5f61277e8383612182565b905092915050565b5f602082019050919050565b5f61279c8261274a565b6127a68185612754565b9350836020820285016127b885612764565b805f5b858110156127f357848403895281516127d48582612773565b94506127df83612786565b925060208a019950506001810190506127bb565b50829750879550505050505092915050565b5f6020820190508181035f83015261281d8184612792565b905092915050565b5f805f805f805f6080888a0312156128405761283f611f1f565b5b5f88013567ffffffffffffffff81111561285d5761285c611f23565b5b6128698a828b016125d2565b9750975050602088013567ffffffffffffffff81111561288c5761288b611f23565b5b6128988a828b016125d2565b9550955050604088013567ffffffffffffffff8111156128bb576128ba611f23565b5b6128c78a828b016125d2565b935093505060606128da8a828b01612410565b91505092959891949750929550565b7f4e487b71000000000000000000000000000000000000000000000000000000005f52602260045260245ffd5b5f600282049050600182168061292d57607f821691505b6020821081036129405761293f6128e9565b5b50919050565b5f81905092915050565b5f61295a82612140565b6129648185612946565b935061297481856020860161215a565b80840191505092915050565b5f61298b8284612950565b915081905092915050565b7f4e487b71000000000000000000000000000000000000000000000000000000005f52603260045260245ffd5b7f4e487b71000000000000000000000000000000000000000000000000000000005f52601160045260245ffd5b5f6129fa826121ba565b91507fffffffffffffffffffffffffffffffffffffffffffffffffffffffffffffffff8203612a2c57612a2b6129c3565b5b600182019050919050565b5f819050815f5260205f209050919050565b5f6020601f8301049050919050565b5f82821b905092915050565b5f60088302612a937fffffffffffffffffffffffffffffffffffffffffffffffffffffffffffffffff82612a58565b612a9d8683612a58565b95508019841693508086168417925050509392505050565b5f819050919050565b5f612ad8612ad3612ace846121ba565b612ab5565b6121ba565b9050919050565b5f819050919050565b612af183612abe565b612b05612afd82612adf565b848454612a64565b825550505050565b5f90565b612b19612b0d565b612b24818484612ae8565b505050565b5b81811015612b4757612b3c5f82612b11565b600181019050612b2a565b5050565b601f821115612b8c57612b5d81612a37565b612b6684612a49565b81016020851015612b75578190505b612b89612b8185612a49565b830182612b29565b50505b505050565b5f82821c905092915050565b5f612bac5f1984600802612b91565b1980831691505092915050565b5f612bc48383612b9d565b9150826002028217905092915050565b612bdd82612140565b67ffffffffffffffff811115612bf657612bf5611f99565b5b612c008254612916565b612c0b828285612b4b565b5f60209050601f831160018114612c3c575f8415612c2a578287015190505b612c348582612bb9565b865550612c9b565b601f198416612c4a86612a37565b5f5b82811015612c7157848901518255600182019150602085019450602081019050612c4c565b86831015612c8e5784890151612c8a601f891682612b9d565b8355505b6001600288020188555050505b505050505050565b5f612cae838561251b565b9350612cbb838584612041565b612cc483611f89565b840190509392505050565b5f606082019050612ce25f830188612563565b8181036020830152612cf5818688612ca3565b90508181036040830152612d0a818486612ca3565b90509695505050505050565b5f612d20826121ba565b9150612d2b836121ba565b9250828203905081811115612d4357612d426129c3565b5b92915050565b5f81549050612d5781612916565b9050919050565b818103612d6c575050612e41565b612d7582612d49565b67ffffffffffffffff811115612d8e57612d8d611f99565b5b612d988254612916565b612da3828285612b4b565b5f601f831160018114612dd0575f8415612dbe578287015490505b612dc88582612bb9565b865550612e3a565b601f198416612dde87612a37565b9650612de986612a37565b5f5b82811015612e1057848901548255600182019150600185019450602081019050612deb565b86831015612e2d5784890154612e29601f891682612b9d565b8355505b6001600288020188555050505b5050505050505b565b7f4e487b71000000000000000000000000000000000000000000000000000000005f52603160045260245ffdfea26469706673582212202d5c1f1a8cff0f216d59ae603e29ba0fbbaabb0716e00fa3c093ae111eb9f64764736f6c63430008140033","linkReferences":{}},"methodIdentifiers":{"addCar(string,string,string,uint256)":"d2d50bd8","garage(address,uint256)":"3ecd55a9","getCarsByMake(address,string)":"1feb1bf9","getMyCar(uint256)":"37a07121","getMyCarCount()":"7d58b04d","getMyCars()":"341fa05d","getUserCar(address,uint256)":"b43ba30c","getUserCarCount(address)":"5373dec3","getUserCarMakes(address)":"c2fbbd20","getUserCars(address)":"2698286c","hasAnyCars(address)":"ab487690","removeCar(uint256)":"6a38ddb3","resetMyGarage()":"6dcb7896","updateCar(uint256,string,string,string,uint256)":"4cd1ed3d"},"id":65}