{"abi":[{"type":"function","name":"afterY2K","inputs":[],"outputs":[{"name":"recentTimestamps","type":"uint256[]","internalType":"uint256[]"},{"name":"recentSenders","type":"address[]","internalType":"address[]"}],"stateMutability":"view"},{"type":"function","name":"appendToNumbers","inputs":[{"name":"_toAppend","type":"uint256[]","internalType":"uint256[]"}],"outputs":[],"stateMutability":"nonpayable"},{"type":"function","name":"getNumbers","inputs":[],"outputs":[{"name":"","type":"uint256[]","internalType":"uint256[]"}],"stateMutability":"view"},{"type":"function","name":"getNumbersLength","inputs":[],"outputs":[{"name":"","type":"uint256","internalType":"uint256"}],"stateMutability":"view"},{"type":"function","name":"getSenders","inputs":[],"outputs":[{"name":"","type":"address[]","internalType":"address[]"}],"stateMutability":"view"},{"type":"function","name":"getSendersLength","inputs":[],"outputs":[{"name":"","type":"uint256","internalType":"uint256"}],"stateMutability":"view"},{"type":"function","name":"getTimestamps","inputs":[],"outputs":[{"name":"","type":"uint256[]","internalType":"uint256[]"}],"stateMutability":"view"},{"type":"function","name":"getTimestampsLength","inputs":[],"outputs":[{"name":"","type":"uint256","internalType":"uint256"}],"stateMutability":"view"},{"type":"function","name":"numbers","inputs":[{"name":"","type":"uint256","internalType":"uint256"}],"outputs":[{"name":"","type":"uint256","internalType":"uint256"}],"stateMutability":"view"},{"type":"function","name":"resetNumbers","inputs":[],"outputs":[],"stateMutability":"nonpayable"},{"type":"function","name":"resetSenders","inputs":[],"outputs":[],"stateMutability":"nonpayable"},{"type":"function","name":"resetTimestamps","inputs":[],"outputs":[],"stateMutability":"nonpayable"},{"type":"function","name":"saveTimestamp","inputs":[{"name":"_unixTimestamp","type":"uint256","internalType":"uint256"}],"outputs":[],"stateMutability":"nonpayable"},{"type":"function","name":"senders","inputs":[{"name":"","type":"uint256","internalType":"uint256"}],"outputs":[{"name":"","type":"address","internalType":"address"}],"stateMutability":"view"},{"type":"function","name":"timestamps","inputs":[{"name":"","type":"uint256","internalType":"uint256"}],"outputs":[{"name":"","type":"uint256","internalType":"uint256"}],"stateMutability":"view"}],"bytecode":{"object":"0x6080604052604051806101400160405280600160ff168152602001600260ff168152602001600360ff168152602001600460ff168152602001600560ff168152602001600660ff168152602001600760ff168152602001600860ff168152602001600960ff168152602001600a60ff168152505f90600a610081929190610093565b5034801561008d575f80fd5b506100fe565b828054828255905f5260205f209081019282156100d2579160200282015b828111156100d1578251829060ff169055916020019190600101906100b1565b5b5090506100df91906100e3565b5090565b5b808211156100fa575f815f9055506001016100e4565b5090565b610d538061010b5f395ff3fe608060405234801561000f575f80fd5b50600436106100f3575f3560e01c80638b4cb33511610095578063ade82bfd11610064578063ade82bfd1461024e578063b1cebac514610258578063d39fa23314610262578063f3d4e56214610292576100f3565b80638b4cb335146101b45780638bc33af3146101d25780639977c78a14610202578063a00b7acd14610232576100f3565b80634f9377db116100d15780634f9377db1461015257806359abbfe41461016e5780637f66b1b81461018c57806389f915f614610196576100f3565b8063128e0423146100f7578063146b6e4d1461011557806320aaf79a14610133575b5f80fd5b6100ff6102b0565b60405161010c91906109c1565b60405180910390f35b61011d61033b565b60405161012a91906109f9565b60405180910390f35b61013b610347565b604051610149929190610ac9565b60405180910390f35b61016c60048036038101906101679190610b67565b610561565b005b6101766105c4565b6040516101839190610bb2565b60405180910390f35b61019461061a565b005b61019e610629565b6040516101ab9190610bb2565b60405180910390f35b6101bc61067e565b6040516101c991906109f9565b60405180910390f35b6101ec60048036038101906101e79190610bfc565b61068a565b6040516101f991906109f9565b60405180910390f35b61021c60048036038101906102179190610bfc565b6106aa565b6040516102299190610c36565b60405180910390f35b61024c60048036038101906102479190610bfc565b6106e5565b005b61025661076e565b005b61026061077d565b005b61027c60048036038101906102779190610bfc565b610809565b60405161028991906109f9565b60405180910390f35b61029a610828565b6040516102a791906109f9565b60405180910390f35b6060600180548060200260200160405190810160405280929190818152602001828054801561033157602002820191905f5260205f20905b815f9054906101000a900473ffffffffffffffffffffffffffffffffffffffff1673ffffffffffffffffffffffffffffffffffffffff16815260200190600101908083116102e8575b5050505050905090565b5f600280549050905090565b6060805f805b6002805490508110156103a45763386d89d06002828154811061037357610372610c4f565b5b905f5260205f200154111561039157818061038d90610ca9565b9250505b808061039c90610ca9565b91505061034d565b508067ffffffffffffffff8111156103bf576103be610cf0565b5b6040519080825280602002602001820160405280156103ed5781602001602082028036833780820191505090505b5092508067ffffffffffffffff81111561040a57610409610cf0565b5b6040519080825280602002602001820160405280156104385781602001602082028036833780820191505090505b5091505f805b60028054905081101561055a5763386d89d06002828154811061046457610463610c4f565b5b905f5260205f2001541115610547576002818154811061048757610486610c4f565b5b905f5260205f2001548583815181106104a3576104a2610c4f565b5b602002602001018181525050600181815481106104c3576104c2610c4f565b5b905f5260205f20015f9054906101000a900473ffffffffffffffffffffffffffffffffffffffff168483815181106104fe576104fd610c4f565b5b602002602001019073ffffffffffffffffffffffffffffffffffffffff16908173ffffffffffffffffffffffffffffffffffffffff1681525050818061054390610ca9565b9250505b808061055290610ca9565b91505061043e565b5050509091565b5f5b828290508110156105bf575f83838381811061058257610581610c4f565b5b90506020020135908060018154018082558091505060019003905f5260205f20015f909190919091505580806105b790610ca9565b915050610563565b505050565b6060600280548060200260200160405190810160405280929190818152602001828054801561061057602002820191905f5260205f20905b8154815260200190600101908083116105fc575b5050505050905090565b60015f6106279190610833565b565b60605f80548060200260200160405190810160405280929190818152602001828054801561067457602002820191905f5260205f20905b815481526020019060010190808311610660575b5050505050905090565b5f600180549050905090565b60028181548110610699575f80fd5b905f5260205f20015f915090505481565b600181815481106106b9575f80fd5b905f5260205f20015f915054906101000a900473ffffffffffffffffffffffffffffffffffffffff1681565b600133908060018154018082558091505060019003905f5260205f20015f9091909190916101000a81548173ffffffffffffffffffffffffffffffffffffffff021916908373ffffffffffffffffffffffffffffffffffffffff160217905550600281908060018154018082558091505060019003905f5260205f20015f909190919091505550565b60025f61077b9190610851565b565b5f806107899190610851565b604051806101400160405280600160ff168152602001600260ff168152602001600360ff168152602001600460ff168152602001600560ff168152602001600660ff168152602001600760ff168152602001600860ff168152602001600960ff168152602001600a60ff168152505f90600a61080692919061086f565b50565b5f8181548110610817575f80fd5b905f5260205f20015f915090505481565b5f8080549050905090565b5080545f8255905f5260205f209081019061084e91906108bf565b50565b5080545f8255905f5260205f209081019061086c91906108bf565b50565b828054828255905f5260205f209081019282156108ae579160200282015b828111156108ad578251829060ff1690559160200191906001019061088d565b5b5090506108bb91906108bf565b5090565b5b808211156108d6575f815f9055506001016108c0565b5090565b5f81519050919050565b5f82825260208201905092915050565b5f819050602082019050919050565b5f73ffffffffffffffffffffffffffffffffffffffff82169050919050565b5f61092c82610903565b9050919050565b61093c81610922565b82525050565b5f61094d8383610933565b60208301905092915050565b5f602082019050919050565b5f61096f826108da565b61097981856108e4565b9350610984836108f4565b805f5b838110156109b457815161099b8882610942565b97506109a683610959565b925050600181019050610987565b5085935050505092915050565b5f6020820190508181035f8301526109d98184610965565b905092915050565b5f819050919050565b6109f3816109e1565b82525050565b5f602082019050610a0c5f8301846109ea565b92915050565b5f81519050919050565b5f82825260208201905092915050565b5f819050602082019050919050565b610a44816109e1565b82525050565b5f610a558383610a3b565b60208301905092915050565b5f602082019050919050565b5f610a7782610a12565b610a818185610a1c565b9350610a8c83610a2c565b805f5b83811015610abc578151610aa38882610a4a565b9750610aae83610a61565b925050600181019050610a8f565b5085935050505092915050565b5f6040820190508181035f830152610ae18185610a6d565b90508181036020830152610af58184610965565b90509392505050565b5f80fd5b5f80fd5b5f80fd5b5f80fd5b5f80fd5b5f8083601f840112610b2757610b26610b06565b5b8235905067ffffffffffffffff811115610b4457610b43610b0a565b5b602083019150836020820283011115610b6057610b5f610b0e565b5b9250929050565b5f8060208385031215610b7d57610b7c610afe565b5b5f83013567ffffffffffffffff811115610b9a57610b99610b02565b5b610ba685828601610b12565b92509250509250929050565b5f6020820190508181035f830152610bca8184610a6d565b905092915050565b610bdb816109e1565b8114610be5575f80fd5b50565b5f81359050610bf681610bd2565b92915050565b5f60208284031215610c1157610c10610afe565b5b5f610c1e84828501610be8565b91505092915050565b610c3081610922565b82525050565b5f602082019050610c495f830184610c27565b92915050565b7f4e487b71000000000000000000000000000000000000000000000000000000005f52603260045260245ffd5b7f4e487b71000000000000000000000000000000000000000000000000000000005f52601160045260245ffd5b5f610cb3826109e1565b91507fffffffffffffffffffffffffffffffffffffffffffffffffffffffffffffffff8203610ce557610ce4610c7c565b5b600182019050919050565b7f4e487b71000000000000000000000000000000000000000000000000000000005f52604160045260245ffdfea2646970667358221220245a407c5cddacae5ca43900939b328face8f779360b2733e6438db590b55c1264736f6c63430008140033","linkReferences":{}},"methodIdentifiers":{"afterY2K()":"20aaf79a","appendToNumbers(uint256[])":"4f9377db","getNumbers()":"89f915f6","getNumbersLength()":"f3d4e562","getSenders()":"128e0423","getSendersLength()":"8b4cb335","getTimestamps()":"59abbfe4","getTimestampsLength()":"146b6e4d","numbers(uint256)":"d39fa233","resetNumbers()":"b1cebac5","resetSenders()":"7f66b1b8","resetTimestamps()":"ade82bfd","saveTimestamp(uint256)":"a00b7acd","senders(uint256)":"9977c78a","timestamps(uint256)":"8bc33af3"},"id":58}