{"abi":[{"type":"constructor","inputs":[],"stateMutability":"nonpayable"},{"type":"function","name":"applyShruggie","inputs":[{"name":"_input","type":"string","internalType":"string"}],"outputs":[{"name":"","type":"string","internalType":"string"}],"stateMutability":"pure"},{"type":"function","name":"clearHaiku","inputs":[],"outputs":[],"stateMutability":"nonpayable"},{"type":"function","name":"compareHaiku","inputs":[{"name":"_other","type":"tuple","internalType":"struct SillyStringUtils.Haiku","components":[{"name":"line1","type":"string","internalType":"string"},{"name":"line2","type":"string","internalType":"string"},{"name":"line3","type":"string","internalType":"string"}]}],"outputs":[{"name":"","type":"bool","internalType":"bool"}],"stateMutability":"view"},{"type":"function","name":"getFormattedHaiku","inputs":[],"outputs":[{"name":"","type":"string","internalType":"string"}],"stateMutability":"view"},{"type":"function","name":"getFullShruggieHaiku","inputs":[],"outputs":[{"name":"","type":"tuple","internalType":"struct SillyStringUtils.Haiku","components":[{"name":"line1","type":"string","internalType":"string"},{"name":"line2","type":"string","internalType":"string"},{"name":"line3","type":"string","internalType":"string"}]}],"stateMutability":"view"},{"type":"function","name":"getHaiku","inputs":[],"outputs":[{"name":"","type":"tuple","internalType":"struct SillyStringUtils.Haiku","components":[{"name":"line1","type":"string","internalType":"string"},{"name":"line2","type":"string","internalType":"string"},{"name":"line3","type":"string","internalType":"string"}]}],"stateMutability":"view"},{"type":"function","name":"getHaikuLength","inputs":[],"outputs":[{"name":"","type":"uint256","internalType":"uint256"}],"stateMutability":"view"},{"type":"function","name":"getHaikuLines","inputs":[],"outputs":[{"name":"","type":"string","internalType":"string"},{"name":"","type":"string","internalType":"string"},{"name":"","type":"string","internalType":"string"}],"stateMutability":"view"},{"type":"function","name":"getLine1","inputs":[],"outputs":[{"name":"","type":"string","internalType":"string"}],"stateMutability":"view"},{"type":"function","name":"getLine2","inputs":[],"outputs":[{"name":"","type":"string","internalType":"string"}],"stateMutability":"view"},{"type":"function","name":"getLine3","inputs":[],"outputs":[{"name":"","type":"string","internalType":"string"}],"stateMutability":"view"},{"type":"function","name":"haiku","inputs":[],"outputs":[{"name":"line1","type":"string","internalType":"string"},{"name":"line2","type":"string","internalType":"string"},{"name":"line3","type":"string","internalType":"string"}],"stateMutability":"view"},{"type":"function","name":"initializeHaiku","inputs":[{"name":"_line1","type":"string","internalType":"string"},{"name":"_line2","type":"string","internalType":"string"},{"name":"_line3","type":"string","internalType":"string"}],"outputs":[],"stateMutability":"nonpayable"},{"type":"function","name":"isHaikuEmpty","inputs":[],"outputs":[{"name":"","type":"bool","internalType":"bool"}],"stateMutability":"view"},{"type":"function","name":"saveHaiku","inputs":[{"name":"_line1","type":"string","internalType":"string"},{"name":"_line2","type":"string","internalType":"string"},{"name":"_line3","type":"string","internalType":"string"}],"outputs":[],"stateMutability":"nonpayable"},{"type":"function","name":"shruggieHaiku","inputs":[],"outputs":[{"name":"","type":"tuple","internalType":"struct SillyStringUtils.Haiku","components":[{"name":"line1","type":"string","internalType":"string"},{"name":"line2","type":"string","internalType":"string"},{"name":"line3","type":"string","internalType":"string"}]}],"stateMutability":"view"},{"type":"event","name":"HaikuSaved","inputs":[{"name":"line1","type":"string","indexed":false,"internalType":"string"},{"name":"line2","type":"string","indexed":false,"internalType":"string"},{"name":"line3","type":"string","indexed":false,"internalType":"string"}],"anonymous":false},{"type":"event","name":"HaikuShruggie","inputs":[{"name":"originalLine3","type":"string","indexed":false,"internalType":"string"},{"name":"shruggieVersion","type":"string","indexed":false,"internalType":"string"}],"anonymous":false}],"bytecode":{"object":"0x608060405234801561000f575f80fd5b50611b1a8061001d5f395ff3fe608060405234801561000f575f80fd5b50600436106100fe575f3560e01c8063728d3c0711610095578063c3ae112411610064578063c3ae11241461026a578063d4e18acc14610288578063e194f976146102b8578063fcb64d0b146102d6576100fe565b8063728d3c07146101ee5780638346cbef1461020e5780638e92ace91461022c57806397f0ba731461024a576100fe565b8063583dc769116100d1578063583dc7691461017a5780635abbfe7114610196578063613c82f2146101a05780636f2be1be146101d0576100fe565b80631038f1f1146101025780632270e91f1461012057806325eb69a91461013e57806354c9bf831461015c575b5f80fd5b61010a6102f2565b6040516101179190611159565b60405180910390f35b610128610383565b6040516101359190611191565b60405180910390f35b6101466103cf565b604051610153919061124d565b60405180910390f35b610164610597565b6040516101719190611159565b60405180910390f35b610194600480360381019061018f91906113aa565b6105ca565b005b61019e61063f565b005b6101ba60048036038101906101b5919061150b565b610671565b6040516101c7919061156c565b60405180910390f35b6101d8610789565b6040516101e59190611159565b60405180910390f35b6101f661081b565b60405161020593929190611585565b60405180910390f35b6102166109c3565b604051610223919061124d565b60405180910390f35b610234610b95565b604051610241919061156c565b60405180910390f35b610252610be3565b60405161026193929190611585565b60405180910390f35b610272610d9c565b60405161027f9190611159565b60405180910390f35b6102a2600480360381019061029d91906115cf565b610e2e565b6040516102af9190611159565b60405180910390f35b6102c0610e40565b6040516102cd919061124d565b60405180910390f35b6102f060048036038101906102eb91906113aa565b61101d565b005b60605f8001805461030290611643565b80601f016020809104026020016040519081016040528092919081815260200182805461032e90611643565b80156103795780601f1061035057610100808354040283529160200191610379565b820191905f5260205f20905b81548152906001019060200180831161035c57829003601f168201915b5050505050905090565b5f80600201805461039390611643565b90505f60010180546103a490611643565b90505f800180546103b490611643565b90506103c091906116a0565b6103ca91906116a0565b905090565b6103d7611056565b5f6040518060600160405290815f820180546103f290611643565b80601f016020809104026020016040519081016040528092919081815260200182805461041e90611643565b80156104695780601f1061044057610100808354040283529160200191610469565b820191905f5260205f20905b81548152906001019060200180831161044c57829003601f168201915b5050505050815260200160018201805461048290611643565b80601f01602080910402602001604051908101604052809291908181526020018280546104ae90611643565b80156104f95780601f106104d0576101008083540402835291602001916104f9565b820191905f5260205f20905b8154815290600101906020018083116104dc57829003601f168201915b5050505050815260200160028201805461051290611643565b80601f016020809104026020016040519081016040528092919081815260200182805461053e90611643565b80156105895780601f1061056057610100808354040283529160200191610589565b820191905f5260205f20905b81548152906001019060200180831161056c57829003601f168201915b505050505081525050905090565b60605f80015f6001015f6002016040516020016105b693929190611795565b604051602081830303815290604052905090565b825f800190816105da919061196e565b50815f60010190816105ec919061196e565b50805f60020190816105fe919061196e565b507f5cb25f9062451b78cfb4b5c69a2fe1fa7bab06ed77b24251ab9c864db9e410b183838360405161063293929190611585565b60405180910390a1505050565b5f805f82015f61064f9190611077565b600182015f61065e9190611077565b600282015f61066d9190611077565b5050565b5f815f01516040516020016106869190611a6d565b604051602081830303815290604052805190602001205f80016040516020016106af9190611a83565b60405160208183030381529060405280519060200120148015610724575081602001516040516020016106e29190611a6d565b604051602081830303815290604052805190602001205f60010160405160200161070c9190611a83565b60405160208183030381529060405280519060200120145b8015610782575081604001516040516020016107409190611a6d565b604051602081830303815290604052805190602001205f60020160405160200161076a9190611a83565b60405160208183030381529060405280519060200120145b9050919050565b60605f600101805461079a90611643565b80601f01602080910402602001604051908101604052809291908181526020018280546107c690611643565b80156108115780601f106107e857610100808354040283529160200191610811565b820191905f5260205f20905b8154815290600101906020018083116107f457829003601f168201915b5050505050905090565b5f805f01805461082a90611643565b80601f016020809104026020016040519081016040528092919081815260200182805461085690611643565b80156108a15780601f10610878576101008083540402835291602001916108a1565b820191905f5260205f20905b81548152906001019060200180831161088457829003601f168201915b5050505050908060010180546108b690611643565b80601f01602080910402602001604051908101604052809291908181526020018280546108e290611643565b801561092d5780601f106109045761010080835404028352916020019161092d565b820191905f5260205f20905b81548152906001019060200180831161091057829003601f168201915b50505050509080600201805461094290611643565b80601f016020809104026020016040519081016040528092919081815260200182805461096e90611643565b80156109b95780601f10610990576101008083540402835291602001916109b9565b820191905f5260205f20905b81548152906001019060200180831161099c57829003601f168201915b5050505050905083565b6109cb611056565b5f60405180606001604052805f800180546109e590611643565b80601f0160208091040260200160405190810160405280929190818152602001828054610a1190611643565b8015610a5c5780601f10610a3357610100808354040283529160200191610a5c565b820191905f5260205f20905b815481529060010190602001808311610a3f57829003601f168201915b505050505081526020015f6001018054610a7590611643565b80601f0160208091040260200160405190810160405280929190818152602001828054610aa190611643565b8015610aec5780601f10610ac357610100808354040283529160200191610aec565b820191905f5260205f20905b815481529060010190602001808311610acf57829003601f168201915b50505050508152602001610b895f6002018054610b0890611643565b80601f0160208091040260200160405190810160405280929190818152602001828054610b3490611643565b8015610b7f5780601f10610b5657610100808354040283529160200191610b7f565b820191905f5260205f20905b815481529060010190602001808311610b6257829003601f168201915b505050505061102d565b81525090508091505090565b5f805f80018054610ba590611643565b9050148015610bc357505f806001018054610bbf90611643565b9050145b8015610bde57505f806002018054610bda90611643565b9050145b905090565b60608060605f80015f6001015f600201828054610bff90611643565b80601f0160208091040260200160405190810160405280929190818152602001828054610c2b90611643565b8015610c765780601f10610c4d57610100808354040283529160200191610c76565b820191905f5260205f20905b815481529060010190602001808311610c5957829003601f168201915b50505050509250818054610c8990611643565b80601f0160208091040260200160405190810160405280929190818152602001828054610cb590611643565b8015610d005780601f10610cd757610100808354040283529160200191610d00565b820191905f5260205f20905b815481529060010190602001808311610ce357829003601f168201915b50505050509150808054610d1390611643565b80601f0160208091040260200160405190810160405280929190818152602001828054610d3f90611643565b8015610d8a5780601f10610d6157610100808354040283529160200191610d8a565b820191905f5260205f20905b815481529060010190602001808311610d6d57829003601f168201915b50505050509050925092509250909192565b60605f6002018054610dad90611643565b80601f0160208091040260200160405190810160405280929190818152602001828054610dd990611643565b8015610e245780601f10610dfb57610100808354040283529160200191610e24565b820191905f5260205f20905b815481529060010190602001808311610e0757829003601f168201915b5050505050905090565b6060610e398261102d565b9050919050565b610e48611056565b6040518060600160405280610ee55f80018054610e6490611643565b80601f0160208091040260200160405190810160405280929190818152602001828054610e9090611643565b8015610edb5780601f10610eb257610100808354040283529160200191610edb565b820191905f5260205f20905b815481529060010190602001808311610ebe57829003601f168201915b505050505061102d565b8152602001610f7d5f6001018054610efc90611643565b80601f0160208091040260200160405190810160405280929190818152602001828054610f2890611643565b8015610f735780601f10610f4a57610100808354040283529160200191610f73565b820191905f5260205f20905b815481529060010190602001808311610f5657829003601f168201915b505050505061102d565b81526020016110155f6002018054610f9490611643565b80601f0160208091040260200160405190810160405280929190818152602001828054610fc090611643565b801561100b5780601f10610fe25761010080835404028352916020019161100b565b820191905f5260205f20905b815481529060010190602001808311610fee57829003601f168201915b505050505061102d565b815250905090565b6110288383836105ca565b505050565b6060816040516020016110409190611abf565b6040516020818303038152906040529050919050565b60405180606001604052806060815260200160608152602001606081525090565b50805461108390611643565b5f825580601f1061109457506110b1565b601f0160209004905f5260205f20908101906110b091906110b4565b5b50565b5b808211156110cb575f815f9055506001016110b5565b5090565b5f81519050919050565b5f82825260208201905092915050565b5f5b838110156111065780820151818401526020810190506110eb565b5f8484015250505050565b5f601f19601f8301169050919050565b5f61112b826110cf565b61113581856110d9565b93506111458185602086016110e9565b61114e81611111565b840191505092915050565b5f6020820190508181035f8301526111718184611121565b905092915050565b5f819050919050565b61118b81611179565b82525050565b5f6020820190506111a45f830184611182565b92915050565b5f82825260208201905092915050565b5f6111c4826110cf565b6111ce81856111aa565b93506111de8185602086016110e9565b6111e781611111565b840191505092915050565b5f606083015f8301518482035f86015261120c82826111ba565b9150506020830151848203602086015261122682826111ba565b9150506040830151848203604086015261124082826111ba565b9150508091505092915050565b5f6020820190508181035f83015261126581846111f2565b905092915050565b5f604051905090565b5f80fd5b5f80fd5b5f80fd5b5f80fd5b7f4e487b71000000000000000000000000000000000000000000000000000000005f52604160045260245ffd5b6112bc82611111565b810181811067ffffffffffffffff821117156112db576112da611286565b5b80604052505050565b5f6112ed61126d565b90506112f982826112b3565b919050565b5f67ffffffffffffffff82111561131857611317611286565b5b61132182611111565b9050602081019050919050565b828183375f83830152505050565b5f61134e611349846112fe565b6112e4565b90508281526020810184848401111561136a57611369611282565b5b61137584828561132e565b509392505050565b5f82601f8301126113915761139061127e565b5b81356113a184826020860161133c565b91505092915050565b5f805f606084860312156113c1576113c0611276565b5b5f84013567ffffffffffffffff8111156113de576113dd61127a565b5b6113ea8682870161137d565b935050602084013567ffffffffffffffff81111561140b5761140a61127a565b5b6114178682870161137d565b925050604084013567ffffffffffffffff8111156114385761143761127a565b5b6114448682870161137d565b9150509250925092565b5f80fd5b5f80fd5b5f6060828403121561146b5761146a61144e565b5b61147560606112e4565b90505f82013567ffffffffffffffff81111561149457611493611452565b5b6114a08482850161137d565b5f83015250602082013567ffffffffffffffff8111156114c3576114c2611452565b5b6114cf8482850161137d565b602083015250604082013567ffffffffffffffff8111156114f3576114f2611452565b5b6114ff8482850161137d565b60408301525092915050565b5f602082840312156115205761151f611276565b5b5f82013567ffffffffffffffff81111561153d5761153c61127a565b5b61154984828501611456565b91505092915050565b5f8115159050919050565b61156681611552565b82525050565b5f60208201905061157f5f83018461155d565b92915050565b5f6060820190508181035f83015261159d8186611121565b905081810360208301526115b18185611121565b905081810360408301526115c58184611121565b9050949350505050565b5f602082840312156115e4576115e3611276565b5b5f82013567ffffffffffffffff8111156116015761160061127a565b5b61160d8482850161137d565b91505092915050565b7f4e487b71000000000000000000000000000000000000000000000000000000005f52602260045260245ffd5b5f600282049050600182168061165a57607f821691505b60208210810361166d5761166c611616565b5b50919050565b7f4e487b71000000000000000000000000000000000000000000000000000000005f52601160045260245ffd5b5f6116aa82611179565b91506116b583611179565b92508282019050808211156116cd576116cc611673565b5b92915050565b5f81905092915050565b5f819050815f5260205f209050919050565b5f81546116fb81611643565b61170581866116d3565b9450600182165f811461171f576001811461173457611766565b60ff1983168652811515820286019350611766565b61173d856116dd565b5f5b8381101561175e5781548189015260018201915060208101905061173f565b838801955050505b50505092915050565b7f0a00000000000000000000000000000000000000000000000000000000000000815250565b5f6117a082866116ef565b91506117ab8261176f565b6001820191506117bb82856116ef565b91506117c68261176f565b6001820191506117d682846116ef565b9150819050949350505050565b5f6020601f8301049050919050565b5f82821b905092915050565b5f6008830261182d7fffffffffffffffffffffffffffffffffffffffffffffffffffffffffffffffff826117f2565b61183786836117f2565b95508019841693508086168417925050509392505050565b5f819050919050565b5f61187261186d61186884611179565b61184f565b611179565b9050919050565b5f819050919050565b61188b83611858565b61189f61189782611879565b8484546117fe565b825550505050565b5f90565b6118b36118a7565b6118be818484611882565b505050565b5b818110156118e1576118d65f826118ab565b6001810190506118c4565b5050565b601f821115611926576118f7816116dd565b611900846117e3565b8101602085101561190f578190505b61192361191b856117e3565b8301826118c3565b50505b505050565b5f82821c905092915050565b5f6119465f198460080261192b565b1980831691505092915050565b5f61195e8383611937565b9150826002028217905092915050565b611977826110cf565b67ffffffffffffffff8111156119905761198f611286565b5b61199a8254611643565b6119a58282856118e5565b5f60209050601f8311600181146119d6575f84156119c4578287015190505b6119ce8582611953565b865550611a35565b601f1984166119e4866116dd565b5f5b82811015611a0b578489015182556001820191506020850194506020810190506119e6565b86831015611a285784890151611a24601f891682611937565b8355505b6001600288020188555050505b505050505050565b5f611a47826110cf565b611a5181856116d3565b9350611a618185602086016110e9565b80840191505092915050565b5f611a788284611a3d565b915081905092915050565b5f611a8e82846116ef565b915081905092915050565b7f20f09fa4b7000000000000000000000000000000000000000000000000000000815250565b5f611aca8284611a3d565b9150611ad582611a99565b6005820191508190509291505056fea264697066735822122074e544b3350edee1d97b4486a8c709c23a53e4338a009d6347b2b8143ac1c40e64736f6c63430008140033","linkReferences":{}},"methodIdentifiers":{"applyShruggie(string)":"d4e18acc","clearHaiku()":"5abbfe71","compareHaiku((string,string,string))":"613c82f2","getFormattedHaiku()":"54c9bf83","getFullShruggieHaiku()":"e194f976","getHaiku()":"25eb69a9","getHaikuLength()":"2270e91f","getHaikuLines()":"97f0ba73","getLine1()":"1038f1f1","getLine2()":"6f2be1be","getLine3()":"c3ae1124","haiku()":"728d3c07","initializeHaiku(string,string,string)":"fcb64d0b","isHaikuEmpty()":"8e92ace9","saveHaiku(string,string,string)":"583dc769","shruggieHaiku()":"8346cbef"},"id":67}