{"abi":[{"type":"function","name":"doNotDisturb","inputs":[{"name":"_time","type":"uint256","internalType":"uint256"}],"outputs":[{"name":"","type":"string","internalType":"string"}],"stateMutability":"pure"},{"type":"function","name":"fizzBuzz","inputs":[{"name":"_number","type":"uint256","internalType":"uint256"}],"outputs":[{"name":"","type":"string","internalType":"string"}],"stateMutability":"pure"},{"type":"error","name":"AfterHours","inputs":[{"name":"time","type":"uint256","internalType":"uint256"}]}],"bytecode":{"object":"0x608060405234801561000f575f80fd5b506106a78061001d5f395ff3fe608060405234801561000f575f80fd5b5060043610610034575f3560e01c8063440c93e214610038578063e655b7bb14610068575b5f80fd5b610052600480360381019061004d919061041a565b610098565b60405161005f91906104cf565b60405180910390f35b610082600480360381019061007d919061041a565b6101e0565b60405161008f91906104cf565b60405180910390f35b60605f6003836100a8919061051c565b1480156100c057505f6005836100be919061051c565b145b15610102576040518060400160405280600881526020017f46697a7a42757a7a00000000000000000000000000000000000000000000000081525090506101db565b5f600383610110919061051c565b03610152576040518060400160405280600481526020017f46697a7a0000000000000000000000000000000000000000000000000000000081525090506101db565b5f600583610160919061051c565b036101a2576040518060400160405280600481526020017f42757a7a0000000000000000000000000000000000000000000000000000000081525090506101db565b6040518060400160405280600581526020017f53706c617400000000000000000000000000000000000000000000000000000081525090505b919050565b606061096082106101fa575f6101f9576101f861054c565b5b5b61089882118061020b575061032082105b1561024d57816040517fa4bf701e0000000000000000000000000000000000000000000000000000000081526004016102449190610588565b60405180910390fd5b6104b0821015801561026157506104eb8211155b156102a1576040517f08c379a0000000000000000000000000000000000000000000000000000000008152600401610298906105eb565b60405180910390fd5b61032082101580156102b557506104af8211155b156102f7576040518060400160405280600881526020017f4d6f726e696e672100000000000000000000000000000000000000000000000081525090506103de565b610514821015801561030b57506107078211155b1561034d576040518060400160405280600a81526020017f41667465726e6f6f6e210000000000000000000000000000000000000000000081525090506103de565b610708821015801561036157506108988211155b156103a3576040518060400160405280600881526020017f4576656e696e672100000000000000000000000000000000000000000000000081525090506103de565b6040517f08c379a00000000000000000000000000000000000000000000000000000000081526004016103d590610653565b60405180910390fd5b919050565b5f80fd5b5f819050919050565b6103f9816103e7565b8114610403575f80fd5b50565b5f81359050610414816103f0565b92915050565b5f6020828403121561042f5761042e6103e3565b5b5f61043c84828501610406565b91505092915050565b5f81519050919050565b5f82825260208201905092915050565b5f5b8381101561047c578082015181840152602081019050610461565b5f8484015250505050565b5f601f19601f8301169050919050565b5f6104a182610445565b6104ab818561044f565b93506104bb81856020860161045f565b6104c481610487565b840191505092915050565b5f6020820190508181035f8301526104e78184610497565b905092915050565b7f4e487b71000000000000000000000000000000000000000000000000000000005f52601260045260245ffd5b5f610526826103e7565b9150610531836103e7565b925082610541576105406104ef565b5b828206905092915050565b7f4e487b71000000000000000000000000000000000000000000000000000000005f52600160045260245ffd5b610582816103e7565b82525050565b5f60208201905061059b5f830184610579565b92915050565b7f4174206c756e63682100000000000000000000000000000000000000000000005f82015250565b5f6105d560098361044f565b91506105e0826105a1565b602082019050919050565b5f6020820190508181035f830152610602816105c9565b9050919050565b7f496e76616c69642074696d6500000000000000000000000000000000000000005f82015250565b5f61063d600c8361044f565b915061064882610609565b602082019050919050565b5f6020820190508181035f83015261066a81610631565b905091905056fea2646970667358221220d8683fce40c159b3fc314bed1934e9ac824a22a7f25415495427aacf1f33457e64736f6c63430008140033","linkReferences":{}},"methodIdentifiers":{"doNotDisturb(uint256)":"e655b7bb","fizzBuzz(uint256)":"440c93e2"},"id":60}