{"abi":[{"type":"constructor","inputs":[],"stateMutability":"nonpayable"},{"type":"function","name":"approve","inputs":[{"name":"to","type":"address","internalType":"address"},{"name":"tokenId","type":"uint256","internalType":"uint256"}],"outputs":[],"stateMutability":"nonpayable"},{"type":"function","name":"balanceOf","inputs":[{"name":"owner","type":"address","internalType":"address"}],"outputs":[{"name":"","type":"uint256","internalType":"uint256"}],"stateMutability":"view"},{"type":"function","name":"counter","inputs":[],"outputs":[{"name":"","type":"uint256","internalType":"uint256"}],"stateMutability":"view"},{"type":"function","name":"getApproved","inputs":[{"name":"tokenId","type":"uint256","internalType":"uint256"}],"outputs":[{"name":"","type":"address","internalType":"address"}],"stateMutability":"view"},{"type":"function","name":"getHaiku","inputs":[{"name":"_haikuId","type":"uint256","internalType":"uint256"}],"outputs":[{"name":"haiku","type":"tuple","internalType":"struct HaikuNFT.Haiku","components":[{"name":"author","type":"address","internalType":"address"},{"name":"line1","type":"string","internalType":"string"},{"name":"line2","type":"string","internalType":"string"},{"name":"line3","type":"string","internalType":"string"}]}],"stateMutability":"view"},{"type":"function","name":"getHaikusByAuthor","inputs":[{"name":"_author","type":"address","internalType":"address"}],"outputs":[{"name":"authorHaikus","type":"tuple[]","internalType":"struct HaikuNFT.Haiku[]","components":[{"name":"author","type":"address","internalType":"address"},{"name":"line1","type":"string","internalType":"string"},{"name":"line2","type":"string","internalType":"string"},{"name":"line3","type":"string","internalType":"string"}]}],"stateMutability":"view"},{"type":"function","name":"getMySharedHaikus","inputs":[],"outputs":[{"name":"sharedHaikuData","type":"tuple[]","internalType":"struct HaikuNFT.Haiku[]","components":[{"name":"author","type":"address","internalType":"address"},{"name":"line1","type":"string","internalType":"string"},{"name":"line2","type":"string","internalType":"string"},{"name":"line3","type":"string","internalType":"string"}]}],"stateMutability":"view"},{"type":"function","name":"getSharedHaikuIds","inputs":[{"name":"_address","type":"address","internalType":"address"}],"outputs":[{"name":"","type":"uint256[]","internalType":"uint256[]"}],"stateMutability":"view"},{"type":"function","name":"getTotalHaikus","inputs":[],"outputs":[{"name":"","type":"uint256","internalType":"uint256"}],"stateMutability":"view"},{"type":"function","name":"haikus","inputs":[{"name":"","type":"uint256","internalType":"uint256"}],"outputs":[{"name":"author","type":"address","internalType":"address"},{"name":"line1","type":"string","internalType":"string"},{"name":"line2","type":"string","internalType":"string"},{"name":"line3","type":"string","internalType":"string"}],"stateMutability":"view"},{"type":"function","name":"isApprovedForAll","inputs":[{"name":"owner","type":"address","internalType":"address"},{"name":"operator","type":"address","internalType":"address"}],"outputs":[{"name":"","type":"bool","internalType":"bool"}],"stateMutability":"view"},{"type":"function","name":"mintHaiku","inputs":[{"name":"_line1","type":"string","internalType":"string"},{"name":"_line2","type":"string","internalType":"string"},{"name":"_line3","type":"string","internalType":"string"}],"outputs":[],"stateMutability":"nonpayable"},{"type":"function","name":"name","inputs":[],"outputs":[{"name":"","type":"string","internalType":"string"}],"stateMutability":"view"},{"type":"function","name":"ownerOf","inputs":[{"name":"tokenId","type":"uint256","internalType":"uint256"}],"outputs":[{"name":"","type":"address","internalType":"address"}],"stateMutability":"view"},{"type":"function","name":"safeTransferFrom","inputs":[{"name":"from","type":"address","internalType":"address"},{"name":"to","type":"address","internalType":"address"},{"name":"tokenId","type":"uint256","internalType":"uint256"}],"outputs":[],"stateMutability":"nonpayable"},{"type":"function","name":"safeTransferFrom","inputs":[{"name":"from","type":"address","internalType":"address"},{"name":"to","type":"address","internalType":"address"},{"name":"tokenId","type":"uint256","internalType":"uint256"},{"name":"data","type":"bytes","internalType":"bytes"}],"outputs":[],"stateMutability":"nonpayable"},{"type":"function","name":"setApprovalForAll","inputs":[{"name":"operator","type":"address","internalType":"address"},{"name":"approved","type":"bool","internalType":"bool"}],"outputs":[],"stateMutability":"nonpayable"},{"type":"function","name":"shareHaiku","inputs":[{"name":"_to","type":"address","internalType":"address"},{"name":"_haikuId","type":"uint256","internalType":"uint256"}],"outputs":[],"stateMutability":"nonpayable"},{"type":"function","name":"sharedHaikus","inputs":[{"name":"","type":"address","internalType":"address"},{"name":"","type":"uint256","internalType":"uint256"}],"outputs":[{"name":"","type":"uint256","internalType":"uint256"}],"stateMutability":"view"},{"type":"function","name":"supportsInterface","inputs":[{"name":"interfaceId","type":"bytes4","internalType":"bytes4"}],"outputs":[{"name":"","type":"bool","internalType":"bool"}],"stateMutability":"view"},{"type":"function","name":"symbol","inputs":[],"outputs":[{"name":"","type":"string","internalType":"string"}],"stateMutability":"view"},{"type":"function","name":"tokenURI","inputs":[{"name":"tokenId","type":"uint256","internalType":"uint256"}],"outputs":[{"name":"","type":"string","internalType":"string"}],"stateMutability":"view"},{"type":"function","name":"transferFrom","inputs":[{"name":"from","type":"address","internalType":"address"},{"name":"to","type":"address","internalType":"address"},{"name":"tokenId","type":"uint256","internalType":"uint256"}],"outputs":[],"stateMutability":"nonpayable"},{"type":"event","name":"Approval","inputs":[{"name":"owner","type":"address","indexed":true,"internalType":"address"},{"name":"approved","type":"address","indexed":true,"internalType":"address"},{"name":"tokenId","type":"uint256","indexed":true,"internalType":"uint256"}],"anonymous":false},{"type":"event","name":"ApprovalForAll","inputs":[{"name":"owner","type":"address","indexed":true,"internalType":"address"},{"name":"operator","type":"address","indexed":true,"internalType":"address"},{"name":"approved","type":"bool","indexed":false,"internalType":"bool"}],"anonymous":false},{"type":"event","name":"HaikuMinted","inputs":[{"name":"tokenId","type":"uint256","indexed":true,"internalType":"uint256"},{"name":"author","type":"address","indexed":true,"internalType":"address"},{"name":"line1","type":"string","indexed":false,"internalType":"string"},{"name":"line2","type":"string","indexed":false,"internalType":"string"},{"name":"line3","type":"string","indexed":false,"internalType":"string"}],"anonymous":false},{"type":"event","name":"HaikuShared","inputs":[{"name":"haikuId","type":"uint256","indexed":true,"internalType":"uint256"},{"name":"from","type":"address","indexed":true,"internalType":"address"},{"name":"to","type":"address","indexed":true,"internalType":"address"}],"anonymous":false},{"type":"event","name":"Transfer","inputs":[{"name":"from","type":"address","indexed":true,"internalType":"address"},{"name":"to","type":"address","indexed":true,"internalType":"address"},{"name":"tokenId","type":"uint256","indexed":true,"internalType":"uint256"}],"anonymous":false},{"type":"error","name":"ERC721IncorrectOwner","inputs":[{"name":"sender","type":"address","internalType":"address"},{"name":"tokenId","type":"uint256","internalType":"uint256"},{"name":"owner","type":"address","internalType":"address"}]},{"type":"error","name":"ERC721InsufficientApproval","inputs":[{"name":"operator","type":"address","internalType":"address"},{"name":"tokenId","type":"uint256","internalType":"uint256"}]},{"type":"error","name":"ERC721InvalidApprover","inputs":[{"name":"approver","type":"address","internalType":"address"}]},{"type":"error","name":"ERC721InvalidOperator","inputs":[{"name":"operator","type":"address","internalType":"address"}]},{"type":"error","name":"ERC721InvalidOwner","inputs":[{"name":"owner","type":"address","internalType":"address"}]},{"type":"error","name":"ERC721InvalidReceiver","inputs":[{"name":"receiver","type":"address","internalType":"address"}]},{"type":"error","name":"ERC721InvalidSender","inputs":[{"name":"sender","type":"address","internalType":"address"}]},{"type":"error","name":"ERC721NonexistentToken","inputs":[{"name":"tokenId","type":"uint256","internalType":"uint256"}]},{"type":"error","name":"HaikuNotUnique","inputs":[]},{"type":"error","name":"NoHaikusShared","inputs":[]},{"type":"error","name":"NotYourHaiku","inputs":[{"name":"haikuId","type":"uint256","internalType":"uint256"}]}],"bytecode":{"object":"0x608060405234801562000010575f80fd5b506040518060400160405280600881526020017f4861696b754e46540000000000000000000000000000000000000000000000008152506040518060400160405280600581526020017f4841494b55000000000000000000000000000000000000000000000000000000815250815f90816200008d91906200042b565b5080600190816200009f91906200042b565b5050506001600881905550600660405180608001604052805f73ffffffffffffffffffffffffffffffffffffffff16815260200160405180602001604052805f815250815260200160405180602001604052805f815250815260200160405180602001604052805f815250815250908060018154018082558091505060019003905f5260205f2090600402015f909190919091505f820151815f015f6101000a81548173ffffffffffffffffffffffffffffffffffffffff021916908373ffffffffffffffffffffffffffffffffffffffff16021790555060208201518160010190816200018e91906200042b565b506040820151816002019081620001a691906200042b565b506060820151816003019081620001be91906200042b565b5050506200050f565b5f81519050919050565b7f4e487b71000000000000000000000000000000000000000000000000000000005f52604160045260245ffd5b7f4e487b71000000000000000000000000000000000000000000000000000000005f52602260045260245ffd5b5f60028204905060018216806200024357607f821691505b602082108103620002595762000258620001fe565b5b50919050565b5f819050815f5260205f209050919050565b5f6020601f8301049050919050565b5f82821b905092915050565b5f60088302620002bd7fffffffffffffffffffffffffffffffffffffffffffffffffffffffffffffffff8262000280565b620002c9868362000280565b95508019841693508086168417925050509392505050565b5f819050919050565b5f819050919050565b5f620003136200030d6200030784620002e1565b620002ea565b620002e1565b9050919050565b5f819050919050565b6200032e83620002f3565b620003466200033d826200031a565b8484546200028c565b825550505050565b5f90565b6200035c6200034e565b6200036981848462000323565b505050565b5b818110156200039057620003845f8262000352565b6001810190506200036f565b5050565b601f821115620003df57620003a9816200025f565b620003b48462000271565b81016020851015620003c4578190505b620003dc620003d38562000271565b8301826200036e565b50505b505050565b5f82821c905092915050565b5f620004015f1984600802620003e4565b1980831691505092915050565b5f6200041b8383620003f0565b9150826002028217905092915050565b6200043682620001c7565b67ffffffffffffffff811115620004525762000451620001d1565b5b6200045e82546200022b565b6200046b82828562000394565b5f60209050601f831160018114620004a1575f84156200048c578287015190505b6200049885826200040e565b86555062000507565b601f198416620004b1866200025f565b5f5b82811015620004da57848901518255600182019150602085019450602081019050620004b3565b86831015620004fa5784890151620004f6601f891682620003f0565b8355505b6001600288020188555050505b505050505050565b6143ba806200051d5f395ff3fe608060405234801561000f575f80fd5b506004361061014b575f3560e01c806370a08231116100c1578063b88d4fde1161007a578063b88d4fde146103c2578063c87b56dd146103de578063d30838e21461040e578063e985e9c51461043e578063ed1292e01461046e578063fb6934691461048c5761014b565b806370a08231146102c55780637cb82b2a146102f55780638e667f571461032857806395d89b411461035857806397afe82d14610376578063a22cb465146103a65761014b565b806323b872dd1161011357806323b872dd14610205578063350fe1651461022157806342842e0e1461023d57806349af5bfe1461025957806361bc221a146102775780636352211e146102955761014b565b806301ffc9a71461014f57806306fdde031461017f578063081812fc1461019d5780630884d540146101cd578063095ea7b3146101e9575b5f80fd5b61016960048036038101906101649190612f88565b6104bc565b6040516101769190612fcd565b60405180910390f35b61018761059d565b6040516101949190613070565b60405180910390f35b6101b760048036038101906101b291906130c3565b61062c565b6040516101c4919061312d565b60405180910390f35b6101e760048036038101906101e29190613170565b610647565b005b61020360048036038101906101fe9190613170565b61077f565b005b61021f600480360381019061021a91906131ae565b610795565b005b61023b6004803603810190610236919061332a565b610894565b005b610257600480360381019061025291906131ae565b610b8c565b005b610261610bab565b60405161026e919061354e565b60405180910390f35b61027f610f55565b60405161028c919061357d565b60405180910390f35b6102af60048036038101906102aa91906130c3565b610f5b565b6040516102bc919061312d565b60405180910390f35b6102df60048036038101906102da9190613596565b610f6c565b6040516102ec919061357d565b60405180910390f35b61030f600480360381019061030a91906130c3565b611022565b60405161031f94939291906135c1565b60405180910390f35b610342600480360381019061033d91906130c3565b61120e565b60405161034f9190613687565b60405180910390f35b61036061149e565b60405161036d9190613070565b60405180910390f35b610390600480360381019061038b9190613170565b61152e565b60405161039d919061357d565b60405180910390f35b6103c060048036038101906103bb91906136d1565b611559565b005b6103dc60048036038101906103d791906137ad565b61156f565b005b6103f860048036038101906103f391906130c3565b611594565b6040516104059190613070565b60405180910390f35b61042860048036038101906104239190613596565b61187b565b60405161043591906138e4565b60405180910390f35b61045860048036038101906104539190613904565b61190e565b6040516104659190612fcd565b60405180910390f35b61047661199c565b604051610483919061357d565b60405180910390f35b6104a660048036038101906104a19190613596565b6119b4565b6040516104b3919061354e565b60405180910390f35b5f7f80ac58cd000000000000000000000000000000000000000000000000000000007bffffffffffffffffffffffffffffffffffffffffffffffffffffffff1916827bffffffffffffffffffffffffffffffffffffffffffffffffffffffff1916148061058657507f5b5e139f000000000000000000000000000000000000000000000000000000007bffffffffffffffffffffffffffffffffffffffffffffffffffffffff1916827bffffffffffffffffffffffffffffffffffffffffffffffffffffffff1916145b80610596575061059582611db6565b5b9050919050565b60605f80546105ab9061396f565b80601f01602080910402602001604051908101604052809291908181526020018280546105d79061396f565b80156106225780601f106105f957610100808354040283529160200191610622565b820191905f5260205f20905b81548152906001019060200180831161060557829003601f168201915b5050505050905090565b5f61063682611e1f565b5061064082611ea5565b9050919050565b3373ffffffffffffffffffffffffffffffffffffffff1661066782610f5b565b73ffffffffffffffffffffffffffffffffffffffff16146106bf57806040517f03ce4e320000000000000000000000000000000000000000000000000000000081526004016106b6919061357d565b60405180910390fd5b60075f8373ffffffffffffffffffffffffffffffffffffffff1673ffffffffffffffffffffffffffffffffffffffff1681526020019081526020015f2081908060018154018082558091505060019003905f5260205f20015f90919091909150558173ffffffffffffffffffffffffffffffffffffffff163373ffffffffffffffffffffffffffffffffffffffff16827f16916ab32e25ab761bcf573ef638e51a5596c821e120e4a3b981ba1012f0d72260405160405180910390a45050565b610791828261078c611ede565b611ee5565b5050565b5f73ffffffffffffffffffffffffffffffffffffffff168273ffffffffffffffffffffffffffffffffffffffff1603610805575f6040517f64a0ae920000000000000000000000000000000000000000000000000000000081526004016107fc919061312d565b60405180910390fd5b5f6108188383610813611ede565b611ef7565b90508373ffffffffffffffffffffffffffffffffffffffff168173ffffffffffffffffffffffffffffffffffffffff161461088e578382826040517f64283d7b0000000000000000000000000000000000000000000000000000000081526004016108859392919061399f565b60405180910390fd5b50505050565b5f61089e84612102565b90505f6108aa84612102565b90505f6108b684612102565b90506009836040516108c89190613a0e565b90815260200160405180910390205f9054906101000a900460ff168061091557506009826040516108f99190613a0e565b90815260200160405180910390205f9054906101000a900460ff165b80610947575060098160405161092b9190613a0e565b90815260200160405180910390205f9054906101000a900460ff165b1561097e576040517f693a889e00000000000000000000000000000000000000000000000000000000815260040160405180910390fd5b60016009846040516109909190613a0e565b90815260200160405180910390205f6101000a81548160ff02191690831515021790555060016009836040516109c69190613a0e565b90815260200160405180910390205f6101000a81548160ff02191690831515021790555060016009826040516109fc9190613a0e565b90815260200160405180910390205f6101000a81548160ff0219169083151502179055505f60405180608001604052803373ffffffffffffffffffffffffffffffffffffffff168152602001888152602001878152602001868152509050600681908060018154018082558091505060019003905f5260205f2090600402015f909190919091505f820151815f015f6101000a81548173ffffffffffffffffffffffffffffffffffffffff021916908373ffffffffffffffffffffffffffffffffffffffff1602179055506020820151816001019081610adc9190613bc1565b506040820151816002019081610af29190613bc1565b506060820151816003019081610b089190613bc1565b505050610b17336008546122f3565b3373ffffffffffffffffffffffffffffffffffffffff166008547f96d784e4f2db8e5eca7741f53821a91a5d9e8b5cec408ec0d6a81a8e7cfc7e17898989604051610b6493929190613c90565b60405180910390a360085f815480929190610b7e90613d07565b919050555050505050505050565b610ba683838360405180602001604052805f81525061156f565b505050565b60605f60075f3373ffffffffffffffffffffffffffffffffffffffff1673ffffffffffffffffffffffffffffffffffffffff1681526020019081526020015f20805480602002602001604051908101604052809291908181526020018280548015610c3357602002820191905f5260205f20905b815481526020019060010190808311610c1f575b505050505090505f815103610c74576040517ff8826a6900000000000000000000000000000000000000000000000000000000815260040160405180910390fd5b805167ffffffffffffffff811115610c8f57610c8e613206565b5b604051908082528060200260200182016040528015610cc857816020015b610cb5612ee5565b815260200190600190039081610cad5790505b5091505f5b8151811015610f50576006828281518110610ceb57610cea613d4e565b5b602002602001015181548110610d0457610d03613d4e565b5b905f5260205f2090600402016040518060800160405290815f82015f9054906101000a900473ffffffffffffffffffffffffffffffffffffffff1673ffffffffffffffffffffffffffffffffffffffff1673ffffffffffffffffffffffffffffffffffffffff168152602001600182018054610d7f9061396f565b80601f0160208091040260200160405190810160405280929190818152602001828054610dab9061396f565b8015610df65780601f10610dcd57610100808354040283529160200191610df6565b820191905f5260205f20905b815481529060010190602001808311610dd957829003601f168201915b50505050508152602001600282018054610e0f9061396f565b80601f0160208091040260200160405190810160405280929190818152602001828054610e3b9061396f565b8015610e865780601f10610e5d57610100808354040283529160200191610e86565b820191905f5260205f20905b815481529060010190602001808311610e6957829003601f168201915b50505050508152602001600382018054610e9f9061396f565b80601f0160208091040260200160405190810160405280929190818152602001828054610ecb9061396f565b8015610f165780601f10610eed57610100808354040283529160200191610f16565b820191905f5260205f20905b815481529060010190602001808311610ef957829003601f168201915b505050505081525050838281518110610f3257610f31613d4e565b5b60200260200101819052508080610f4890613d07565b915050610ccd565b505090565b60085481565b5f610f6582611e1f565b9050919050565b5f8073ffffffffffffffffffffffffffffffffffffffff168273ffffffffffffffffffffffffffffffffffffffff1603610fdd575f6040517f89c62b64000000000000000000000000000000000000000000000000000000008152600401610fd4919061312d565b60405180910390fd5b60035f8373ffffffffffffffffffffffffffffffffffffffff1673ffffffffffffffffffffffffffffffffffffffff1681526020019081526020015f20549050919050565b60068181548110611031575f80fd5b905f5260205f2090600402015f91509050805f015f9054906101000a900473ffffffffffffffffffffffffffffffffffffffff16908060010180546110759061396f565b80601f01602080910402602001604051908101604052809291908181526020018280546110a19061396f565b80156110ec5780601f106110c3576101008083540402835291602001916110ec565b820191905f5260205f20905b8154815290600101906020018083116110cf57829003601f168201915b5050505050908060020180546111019061396f565b80601f016020809104026020016040519081016040528092919081815260200182805461112d9061396f565b80156111785780601f1061114f57610100808354040283529160200191611178565b820191905f5260205f20905b81548152906001019060200180831161115b57829003601f168201915b50505050509080600301805461118d9061396f565b80601f01602080910402602001604051908101604052809291908181526020018280546111b99061396f565b80156112045780601f106111db57610100808354040283529160200191611204565b820191905f5260205f20905b8154815290600101906020018083116111e757829003601f168201915b5050505050905084565b611216612ee5565b5f82118015611229575060068054905082105b611268576040517f08c379a000000000000000000000000000000000000000000000000000000000815260040161125f90613dc5565b60405180910390fd5b6006828154811061127c5761127b613d4e565b5b905f5260205f2090600402016040518060800160405290815f82015f9054906101000a900473ffffffffffffffffffffffffffffffffffffffff1673ffffffffffffffffffffffffffffffffffffffff1673ffffffffffffffffffffffffffffffffffffffff1681526020016001820180546112f79061396f565b80601f01602080910402602001604051908101604052809291908181526020018280546113239061396f565b801561136e5780601f106113455761010080835404028352916020019161136e565b820191905f5260205f20905b81548152906001019060200180831161135157829003601f168201915b505050505081526020016002820180546113879061396f565b80601f01602080910402602001604051908101604052809291908181526020018280546113b39061396f565b80156113fe5780601f106113d5576101008083540402835291602001916113fe565b820191905f5260205f20905b8154815290600101906020018083116113e157829003601f168201915b505050505081526020016003820180546114179061396f565b80601f01602080910402602001604051908101604052809291908181526020018280546114439061396f565b801561148e5780601f106114655761010080835404028352916020019161148e565b820191905f5260205f20905b81548152906001019060200180831161147157829003601f168201915b5050505050815250509050919050565b6060600180546114ad9061396f565b80601f01602080910402602001604051908101604052809291908181526020018280546114d99061396f565b80156115245780601f106114fb57610100808354040283529160200191611524565b820191905f5260205f20905b81548152906001019060200180831161150757829003601f168201915b5050505050905090565b6007602052815f5260405f208181548110611547575f80fd5b905f5260205f20015f91509150505481565b61156b611564611ede565b83836123e6565b5050565b61157a848484610795565b61158e611585611ede565b8585858561254f565b50505050565b60605f73ffffffffffffffffffffffffffffffffffffffff166115b6836126fb565b73ffffffffffffffffffffffffffffffffffffffff160361160c576040517f08c379a000000000000000000000000000000000000000000000000000000000815260040161160390613e53565b60405180910390fd5b5f6006838154811061162157611620613d4e565b5b905f5260205f2090600402016040518060800160405290815f82015f9054906101000a900473ffffffffffffffffffffffffffffffffffffffff1673ffffffffffffffffffffffffffffffffffffffff1673ffffffffffffffffffffffffffffffffffffffff16815260200160018201805461169c9061396f565b80601f01602080910402602001604051908101604052809291908181526020018280546116c89061396f565b80156117135780601f106116ea57610100808354040283529160200191611713565b820191905f5260205f20905b8154815290600101906020018083116116f657829003601f168201915b5050505050815260200160028201805461172c9061396f565b80601f01602080910402602001604051908101604052809291908181526020018280546117589061396f565b80156117a35780601f1061177a576101008083540402835291602001916117a3565b820191905f5260205f20905b81548152906001019060200180831161178657829003601f168201915b505050505081526020016003820180546117bc9061396f565b80601f01602080910402602001604051908101604052809291908181526020018280546117e89061396f565b80156118335780601f1061180a57610100808354040283529160200191611833565b820191905f5260205f20905b81548152906001019060200180831161181657829003601f168201915b505050505081525050905061184783612734565b611853825f015161288d565b604051602001611864929190614055565b604051602081830303815290604052915050919050565b606060075f8373ffffffffffffffffffffffffffffffffffffffff1673ffffffffffffffffffffffffffffffffffffffff1681526020019081526020015f2080548060200260200160405190810160405280929190818152602001828054801561190257602002820191905f5260205f20905b8154815260200190600101908083116118ee575b50505050509050919050565b5f60055f8473ffffffffffffffffffffffffffffffffffffffff1673ffffffffffffffffffffffffffffffffffffffff1681526020019081526020015f205f8373ffffffffffffffffffffffffffffffffffffffff1673ffffffffffffffffffffffffffffffffffffffff1681526020019081526020015f205f9054906101000a900460ff16905092915050565b5f60016006805490506119af91906140af565b905090565b60605f80600190505b600680549050811015611a60578373ffffffffffffffffffffffffffffffffffffffff16600682815481106119f5576119f4613d4e565b5b905f5260205f2090600402015f015f9054906101000a900473ffffffffffffffffffffffffffffffffffffffff1673ffffffffffffffffffffffffffffffffffffffff1603611a4d578180611a4990613d07565b9250505b8080611a5890613d07565b9150506119bd565b508067ffffffffffffffff811115611a7b57611a7a613206565b5b604051908082528060200260200182016040528015611ab457816020015b611aa1612ee5565b815260200190600190039081611a995790505b5091505f80600190505b600680549050811015611dae578473ffffffffffffffffffffffffffffffffffffffff1660068281548110611af657611af5613d4e565b5b905f5260205f2090600402015f015f9054906101000a900473ffffffffffffffffffffffffffffffffffffffff1673ffffffffffffffffffffffffffffffffffffffff1603611d9b5760068181548110611b5357611b52613d4e565b5b905f5260205f2090600402016040518060800160405290815f82015f9054906101000a900473ffffffffffffffffffffffffffffffffffffffff1673ffffffffffffffffffffffffffffffffffffffff1673ffffffffffffffffffffffffffffffffffffffff168152602001600182018054611bce9061396f565b80601f0160208091040260200160405190810160405280929190818152602001828054611bfa9061396f565b8015611c455780601f10611c1c57610100808354040283529160200191611c45565b820191905f5260205f20905b815481529060010190602001808311611c2857829003601f168201915b50505050508152602001600282018054611c5e9061396f565b80601f0160208091040260200160405190810160405280929190818152602001828054611c8a9061396f565b8015611cd55780601f10611cac57610100808354040283529160200191611cd5565b820191905f5260205f20905b815481529060010190602001808311611cb857829003601f168201915b50505050508152602001600382018054611cee9061396f565b80601f0160208091040260200160405190810160405280929190818152602001828054611d1a9061396f565b8015611d655780601f10611d3c57610100808354040283529160200191611d65565b820191905f5260205f20905b815481529060010190602001808311611d4857829003601f168201915b505050505081525050848381518110611d8157611d80613d4e565b5b60200260200101819052508180611d9790613d07565b9250505b8080611da690613d07565b915050611abe565b505050919050565b5f7f01ffc9a7000000000000000000000000000000000000000000000000000000007bffffffffffffffffffffffffffffffffffffffffffffffffffffffff1916827bffffffffffffffffffffffffffffffffffffffffffffffffffffffff1916149050919050565b5f80611e2a836126fb565b90505f73ffffffffffffffffffffffffffffffffffffffff168173ffffffffffffffffffffffffffffffffffffffff1603611e9c57826040517f7e273289000000000000000000000000000000000000000000000000000000008152600401611e93919061357d565b60405180910390fd5b80915050919050565b5f60045f8381526020019081526020015f205f9054906101000a900473ffffffffffffffffffffffffffffffffffffffff169050919050565b5f33905090565b611ef28383836001612ba3565b505050565b5f80611f02846126fb565b90505f73ffffffffffffffffffffffffffffffffffffffff168373ffffffffffffffffffffffffffffffffffffffff1614611f4357611f42818486612d62565b5b5f73ffffffffffffffffffffffffffffffffffffffff168173ffffffffffffffffffffffffffffffffffffffff1614611fce57611f825f855f80612ba3565b600160035f8373ffffffffffffffffffffffffffffffffffffffff1673ffffffffffffffffffffffffffffffffffffffff1681526020019081526020015f205f82825403925050819055505b5f73ffffffffffffffffffffffffffffffffffffffff168573ffffffffffffffffffffffffffffffffffffffff161461204d57600160035f8773ffffffffffffffffffffffffffffffffffffffff1673ffffffffffffffffffffffffffffffffffffffff1681526020019081526020015f205f82825401925050819055505b8460025f8681526020019081526020015f205f6101000a81548173ffffffffffffffffffffffffffffffffffffffff021916908373ffffffffffffffffffffffffffffffffffffffff160217905550838573ffffffffffffffffffffffffffffffffffffffff168273ffffffffffffffffffffffffffffffffffffffff167fddf252ad1be2c89b69c2b068fc378daa952ba7f163c4a11628f55a4df523b3ef60405160405180910390a4809150509392505050565b60605f8290505f815167ffffffffffffffff81111561212457612123613206565b5b6040519080825280601f01601f1916602001820160405280156121565781602001600182028036833780820191505090505b5090505f5b82518110156122e857604160f81b83828151811061217c5761217b613d4e565b5b602001015160f81c60f81b7effffffffffffffffffffffffffffffffffffffffffffffffffffffffffffff1916101580156121fa5750605a60f81b8382815181106121ca576121c9613d4e565b5b602001015160f81c60f81b7effffffffffffffffffffffffffffffffffffffffffffffffffffffffffffff191611155b1561227557602083828151811061221457612213613d4e565b5b602001015160f81c60f81b60f81c61222c91906140ee565b60f81b82828151811061224257612241613d4e565b5b60200101907effffffffffffffffffffffffffffffffffffffffffffffffffffffffffffff191690815f1a9053506122d5565b82818151811061228857612287613d4e565b5b602001015160f81c60f81b8282815181106122a6576122a5613d4e565b5b60200101907effffffffffffffffffffffffffffffffffffffffffffffffffffffffffffff191690815f1a9053505b80806122e090613d07565b91505061215b565b508092505050919050565b5f73ffffffffffffffffffffffffffffffffffffffff168273ffffffffffffffffffffffffffffffffffffffff1603612363575f6040517f64a0ae9200000000000000000000000000000000000000000000000000000000815260040161235a919061312d565b60405180910390fd5b5f61236f83835f611ef7565b90505f73ffffffffffffffffffffffffffffffffffffffff168173ffffffffffffffffffffffffffffffffffffffff16146123e1575f6040517f73c6ac6e0000000000000000000000000000000000000000000000000000000081526004016123d8919061312d565b60405180910390fd5b505050565b5f73ffffffffffffffffffffffffffffffffffffffff168273ffffffffffffffffffffffffffffffffffffffff160361245657816040517f5b08ba1800000000000000000000000000000000000000000000000000000000815260040161244d919061312d565b60405180910390fd5b8060055f8573ffffffffffffffffffffffffffffffffffffffff1673ffffffffffffffffffffffffffffffffffffffff1681526020019081526020015f205f8473ffffffffffffffffffffffffffffffffffffffff1673ffffffffffffffffffffffffffffffffffffffff1681526020019081526020015f205f6101000a81548160ff0219169083151502179055508173ffffffffffffffffffffffffffffffffffffffff168373ffffffffffffffffffffffffffffffffffffffff167f17307eab39ab6107e8899845ad3d59bd9653f200f220920489ca2b5937696c31836040516125429190612fcd565b60405180910390a3505050565b5f8373ffffffffffffffffffffffffffffffffffffffff163b11156126f4578273ffffffffffffffffffffffffffffffffffffffff1663150b7a02868685856040518563ffffffff1660e01b81526004016125ad9493929190614174565b6020604051808303815f875af19250505080156125e857506040513d601f19601f820116820180604052508101906125e591906141d2565b60015b612669573d805f8114612616576040519150601f19603f3d011682016040523d82523d5f602084013e61261b565b606091505b505f81510361266157836040517f64a0ae92000000000000000000000000000000000000000000000000000000008152600401612658919061312d565b60405180910390fd5b805160208201fd5b63150b7a0260e01b7bffffffffffffffffffffffffffffffffffffffffffffffffffffffff1916817bffffffffffffffffffffffffffffffffffffffffffffffffffffffff1916146126f257836040517f64a0ae920000000000000000000000000000000000000000000000000000000081526004016126e9919061312d565b60405180910390fd5b505b5050505050565b5f60025f8381526020019081526020015f205f9054906101000a900473ffffffffffffffffffffffffffffffffffffffff169050919050565b60605f820361277a576040518060400160405280600181526020017f30000000000000000000000000000000000000000000000000000000000000008152509050612888565b5f8290505f5b5f82146127a957808061279290613d07565b915050600a826127a2919061422a565b9150612780565b5f8167ffffffffffffffff8111156127c4576127c3613206565b5b6040519080825280601f01601f1916602001820160405280156127f65781602001600182028036833780820191505090505b5090505b5f85146128815760018261280e91906140af565b9150600a8561281d919061425a565b6030612829919061428a565b60f81b81838151811061283f5761283e613d4e565b5b60200101907effffffffffffffffffffffffffffffffffffffffffffffffffffffffffffff191690815f1a905350600a8561287a919061422a565b94506127fa565b8093505050505b919050565b60605f826040516020016128a19190614302565b60405160208183030381529060405290505f6040518060400160405280601081526020017f303132333435363738396162636465660000000000000000000000000000000081525090505f600283516128fa919061431c565b6002612906919061428a565b67ffffffffffffffff81111561291f5761291e613206565b5b6040519080825280601f01601f1916602001820160405280156129515781602001600182028036833780820191505090505b5090507f3000000000000000000000000000000000000000000000000000000000000000815f8151811061298857612987613d4e565b5b60200101907effffffffffffffffffffffffffffffffffffffffffffffffffffffffffffff191690815f1a9053507f7800000000000000000000000000000000000000000000000000000000000000816001815181106129eb576129ea613d4e565b5b60200101907effffffffffffffffffffffffffffffffffffffffffffffffffffffffffffff191690815f1a9053505f5b8351811015612b9757826004858381518110612a3a57612a39613d4e565b5b602001015160f81c60f81b7effffffffffffffffffffffffffffffffffffffffffffffffffffffffffffff1916901c60f81c60ff1681518110612a8057612a7f613d4e565b5b602001015160f81c60f81b82600283612a99919061431c565b6002612aa5919061428a565b81518110612ab657612ab5613d4e565b5b60200101907effffffffffffffffffffffffffffffffffffffffffffffffffffffffffffff191690815f1a90535082600f60f81b858381518110612afd57612afc613d4e565b5b602001015160f81c60f81b1660f81c60ff1681518110612b2057612b1f613d4e565b5b602001015160f81c60f81b82600283612b39919061431c565b6003612b45919061428a565b81518110612b5657612b55613d4e565b5b60200101907effffffffffffffffffffffffffffffffffffffffffffffffffffffffffffff191690815f1a9053508080612b8f90613d07565b915050612a1b565b50809350505050919050565b8080612bdb57505f73ffffffffffffffffffffffffffffffffffffffff168273ffffffffffffffffffffffffffffffffffffffff1614155b15612d0d575f612bea84611e1f565b90505f73ffffffffffffffffffffffffffffffffffffffff168373ffffffffffffffffffffffffffffffffffffffff1614158015612c5457508273ffffffffffffffffffffffffffffffffffffffff168173ffffffffffffffffffffffffffffffffffffffff1614155b8015612c675750612c65818461190e565b155b15612ca957826040517fa9fbf51f000000000000000000000000000000000000000000000000000000008152600401612ca0919061312d565b60405180910390fd5b8115612d0b57838573ffffffffffffffffffffffffffffffffffffffff168273ffffffffffffffffffffffffffffffffffffffff167f8c5be1e5ebec7d5bd14f71427d1e84f3dd0314c0f7b2291e5b200ac8c7c3b92560405160405180910390a45b505b8360045f8581526020019081526020015f205f6101000a81548173ffffffffffffffffffffffffffffffffffffffff021916908373ffffffffffffffffffffffffffffffffffffffff16021790555050505050565b612d6d838383612e25565b612e20575f73ffffffffffffffffffffffffffffffffffffffff168373ffffffffffffffffffffffffffffffffffffffff1603612de157806040517f7e273289000000000000000000000000000000000000000000000000000000008152600401612dd8919061357d565b60405180910390fd5b81816040517f177e802f000000000000000000000000000000000000000000000000000000008152600401612e1792919061435d565b60405180910390fd5b505050565b5f8073ffffffffffffffffffffffffffffffffffffffff168373ffffffffffffffffffffffffffffffffffffffff1614158015612edc57508273ffffffffffffffffffffffffffffffffffffffff168473ffffffffffffffffffffffffffffffffffffffff161480612e9d5750612e9c848461190e565b5b80612edb57508273ffffffffffffffffffffffffffffffffffffffff16612ec383611ea5565b73ffffffffffffffffffffffffffffffffffffffff16145b5b90509392505050565b60405180608001604052805f73ffffffffffffffffffffffffffffffffffffffff1681526020016060815260200160608152602001606081525090565b5f604051905090565b5f80fd5b5f80fd5b5f7fffffffff0000000000000000000000000000000000000000000000000000000082169050919050565b612f6781612f33565b8114612f71575f80fd5b50565b5f81359050612f8281612f5e565b92915050565b5f60208284031215612f9d57612f9c612f2b565b5b5f612faa84828501612f74565b91505092915050565b5f8115159050919050565b612fc781612fb3565b82525050565b5f602082019050612fe05f830184612fbe565b92915050565b5f81519050919050565b5f82825260208201905092915050565b5f5b8381101561301d578082015181840152602081019050613002565b5f8484015250505050565b5f601f19601f8301169050919050565b5f61304282612fe6565b61304c8185612ff0565b935061305c818560208601613000565b61306581613028565b840191505092915050565b5f6020820190508181035f8301526130888184613038565b905092915050565b5f819050919050565b6130a281613090565b81146130ac575f80fd5b50565b5f813590506130bd81613099565b92915050565b5f602082840312156130d8576130d7612f2b565b5b5f6130e5848285016130af565b91505092915050565b5f73ffffffffffffffffffffffffffffffffffffffff82169050919050565b5f613117826130ee565b9050919050565b6131278161310d565b82525050565b5f6020820190506131405f83018461311e565b92915050565b61314f8161310d565b8114613159575f80fd5b50565b5f8135905061316a81613146565b92915050565b5f806040838503121561318657613185612f2b565b5b5f6131938582860161315c565b92505060206131a4858286016130af565b9150509250929050565b5f805f606084860312156131c5576131c4612f2b565b5b5f6131d28682870161315c565b93505060206131e38682870161315c565b92505060406131f4868287016130af565b9150509250925092565b5f80fd5b5f80fd5b7f4e487b71000000000000000000000000000000000000000000000000000000005f52604160045260245ffd5b61323c82613028565b810181811067ffffffffffffffff8211171561325b5761325a613206565b5b80604052505050565b5f61326d612f22565b90506132798282613233565b919050565b5f67ffffffffffffffff82111561329857613297613206565b5b6132a182613028565b9050602081019050919050565b828183375f83830152505050565b5f6132ce6132c98461327e565b613264565b9050828152602081018484840111156132ea576132e9613202565b5b6132f58482856132ae565b509392505050565b5f82601f830112613311576133106131fe565b5b81356133218482602086016132bc565b91505092915050565b5f805f6060848603121561334157613340612f2b565b5b5f84013567ffffffffffffffff81111561335e5761335d612f2f565b5b61336a868287016132fd565b935050602084013567ffffffffffffffff81111561338b5761338a612f2f565b5b613397868287016132fd565b925050604084013567ffffffffffffffff8111156133b8576133b7612f2f565b5b6133c4868287016132fd565b9150509250925092565b5f81519050919050565b5f82825260208201905092915050565b5f819050602082019050919050565b6134008161310d565b82525050565b5f82825260208201905092915050565b5f61342082612fe6565b61342a8185613406565b935061343a818560208601613000565b61344381613028565b840191505092915050565b5f608083015f8301516134635f8601826133f7565b506020830151848203602086015261347b8282613416565b915050604083015184820360408601526134958282613416565b915050606083015184820360608601526134af8282613416565b9150508091505092915050565b5f6134c7838361344e565b905092915050565b5f602082019050919050565b5f6134e5826133ce565b6134ef81856133d8565b935083602082028501613501856133e8565b805f5b8581101561353c578484038952815161351d85826134bc565b9450613528836134cf565b925060208a01995050600181019050613504565b50829750879550505050505092915050565b5f6020820190508181035f83015261356681846134db565b905092915050565b61357781613090565b82525050565b5f6020820190506135905f83018461356e565b92915050565b5f602082840312156135ab576135aa612f2b565b5b5f6135b88482850161315c565b91505092915050565b5f6080820190506135d45f83018761311e565b81810360208301526135e68186613038565b905081810360408301526135fa8185613038565b9050818103606083015261360e8184613038565b905095945050505050565b5f608083015f83015161362e5f8601826133f7565b50602083015184820360208601526136468282613416565b915050604083015184820360408601526136608282613416565b9150506060830151848203606086015261367a8282613416565b9150508091505092915050565b5f6020820190508181035f83015261369f8184613619565b905092915050565b6136b081612fb3565b81146136ba575f80fd5b50565b5f813590506136cb816136a7565b92915050565b5f80604083850312156136e7576136e6612f2b565b5b5f6136f48582860161315c565b9250506020613705858286016136bd565b9150509250929050565b5f67ffffffffffffffff82111561372957613728613206565b5b61373282613028565b9050602081019050919050565b5f61375161374c8461370f565b613264565b90508281526020810184848401111561376d5761376c613202565b5b6137788482856132ae565b509392505050565b5f82601f830112613794576137936131fe565b5b81356137a484826020860161373f565b91505092915050565b5f805f80608085870312156137c5576137c4612f2b565b5b5f6137d28782880161315c565b94505060206137e38782880161315c565b93505060406137f4878288016130af565b925050606085013567ffffffffffffffff81111561381557613814612f2f565b5b61382187828801613780565b91505092959194509250565b5f81519050919050565b5f82825260208201905092915050565b5f819050602082019050919050565b61385f81613090565b82525050565b5f6138708383613856565b60208301905092915050565b5f602082019050919050565b5f6138928261382d565b61389c8185613837565b93506138a783613847565b805f5b838110156138d75781516138be8882613865565b97506138c98361387c565b9250506001810190506138aa565b5085935050505092915050565b5f6020820190508181035f8301526138fc8184613888565b905092915050565b5f806040838503121561391a57613919612f2b565b5b5f6139278582860161315c565b92505060206139388582860161315c565b9150509250929050565b7f4e487b71000000000000000000000000000000000000000000000000000000005f52602260045260245ffd5b5f600282049050600182168061398657607f821691505b60208210810361399957613998613942565b5b50919050565b5f6060820190506139b25f83018661311e565b6139bf602083018561356e565b6139cc604083018461311e565b949350505050565b5f81905092915050565b5f6139e882612fe6565b6139f281856139d4565b9350613a02818560208601613000565b80840191505092915050565b5f613a1982846139de565b915081905092915050565b5f819050815f5260205f209050919050565b5f6020601f8301049050919050565b5f82821b905092915050565b5f60088302613a807fffffffffffffffffffffffffffffffffffffffffffffffffffffffffffffffff82613a45565b613a8a8683613a45565b95508019841693508086168417925050509392505050565b5f819050919050565b5f613ac5613ac0613abb84613090565b613aa2565b613090565b9050919050565b5f819050919050565b613ade83613aab565b613af2613aea82613acc565b848454613a51565b825550505050565b5f90565b613b06613afa565b613b11818484613ad5565b505050565b5b81811015613b3457613b295f82613afe565b600181019050613b17565b5050565b601f821115613b7957613b4a81613a24565b613b5384613a36565b81016020851015613b62578190505b613b76613b6e85613a36565b830182613b16565b50505b505050565b5f82821c905092915050565b5f613b995f1984600802613b7e565b1980831691505092915050565b5f613bb18383613b8a565b9150826002028217905092915050565b613bca82612fe6565b67ffffffffffffffff811115613be357613be2613206565b5b613bed825461396f565b613bf8828285613b38565b5f60209050601f831160018114613c29575f8415613c17578287015190505b613c218582613ba6565b865550613c88565b601f198416613c3786613a24565b5f5b82811015613c5e57848901518255600182019150602085019450602081019050613c39565b86831015613c7b5784890151613c77601f891682613b8a565b8355505b6001600288020188555050505b505050505050565b5f6060820190508181035f830152613ca88186613038565b90508181036020830152613cbc8185613038565b90508181036040830152613cd08184613038565b9050949350505050565b7f4e487b71000000000000000000000000000000000000000000000000000000005f52601160045260245ffd5b5f613d1182613090565b91507fffffffffffffffffffffffffffffffffffffffffffffffffffffffffffffffff8203613d4357613d42613cda565b5b600182019050919050565b7f4e487b71000000000000000000000000000000000000000000000000000000005f52603260045260245ffd5b7f496e76616c6964206861696b75204944000000000000000000000000000000005f82015250565b5f613daf601083612ff0565b9150613dba82613d7b565b602082019050919050565b5f6020820190508181035f830152613ddc81613da3565b9050919050565b7f4552433732313a2055524920717565727920666f72206e6f6e6578697374656e5f8201527f7420746f6b656e00000000000000000000000000000000000000000000000000602082015250565b5f613e3d602783612ff0565b9150613e4882613de3565b604082019050919050565b5f6020820190508181035f830152613e6a81613e31565b9050919050565b7f7b226e616d65223a20224861696b7520230000000000000000000000000000005f82015250565b5f613ea56011836139d4565b9150613eb082613e71565b601182019050919050565b7f222c20226465736372697074696f6e223a20224120756e69717565206861696b5f8201527f7520706f656d222c202261747472696275746573223a205b0000000000000000602082015250565b5f613f156038836139d4565b9150613f2082613ebb565b603882019050919050565b7f7b2274726169745f74797065223a2022417574686f72222c202276616c7565225f8201527f3a20220000000000000000000000000000000000000000000000000000000000602082015250565b5f613f856023836139d4565b9150613f9082613f2b565b602382019050919050565b7f227d2c00000000000000000000000000000000000000000000000000000000005f82015250565b5f613fcf6003836139d4565b9150613fda82613f9b565b600382019050919050565b7f7b2274726169745f74797065223a20224c696e6520436f756e74222c202276615f8201527f6c7565223a202233227d5d7d0000000000000000000000000000000000000000602082015250565b5f61403f602c836139d4565b915061404a82613fe5565b602c82019050919050565b5f61405f82613e99565b915061406b82856139de565b915061407682613f09565b915061408182613f79565b915061408d82846139de565b915061409882613fc3565b91506140a382614033565b91508190509392505050565b5f6140b982613090565b91506140c483613090565b92508282039050818111156140dc576140db613cda565b5b92915050565b5f60ff82169050919050565b5f6140f8826140e2565b9150614103836140e2565b9250828201905060ff81111561411c5761411b613cda565b5b92915050565b5f81519050919050565b5f82825260208201905092915050565b5f61414682614122565b614150818561412c565b9350614160818560208601613000565b61416981613028565b840191505092915050565b5f6080820190506141875f83018761311e565b614194602083018661311e565b6141a1604083018561356e565b81810360608301526141b3818461413c565b905095945050505050565b5f815190506141cc81612f5e565b92915050565b5f602082840312156141e7576141e6612f2b565b5b5f6141f4848285016141be565b91505092915050565b7f4e487b71000000000000000000000000000000000000000000000000000000005f52601260045260245ffd5b5f61423482613090565b915061423f83613090565b92508261424f5761424e6141fd565b5b828204905092915050565b5f61426482613090565b915061426f83613090565b92508261427f5761427e6141fd565b5b828206905092915050565b5f61429482613090565b915061429f83613090565b92508282019050808211156142b7576142b6613cda565b5b92915050565b5f8160601b9050919050565b5f6142d3826142bd565b9050919050565b5f6142e4826142c9565b9050919050565b6142fc6142f78261310d565b6142da565b82525050565b5f61430d82846142eb565b60148201915081905092915050565b5f61432682613090565b915061433183613090565b925082820261433f81613090565b9150828204841483151761435657614355613cda565b5b5092915050565b5f6040820190506143705f83018561311e565b61437d602083018461356e565b939250505056fea26469706673582212205fd7cf5f8a5d5dc7f1f2672c613ba2fc1385d6551902b2fd6d20019905e0448464736f6c63430008140033","linkReferences":{}},"methodIdentifiers":{"approve(address,uint256)":"095ea7b3","balanceOf(address)":"70a08231","counter()":"61bc221a","getApproved(uint256)":"081812fc","getHaiku(uint256)":"8e667f57","getHaikusByAuthor(address)":"fb693469","getMySharedHaikus()":"49af5bfe","getSharedHaikuIds(address)":"d30838e2","getTotalHaikus()":"ed1292e0","haikus(uint256)":"7cb82b2a","isApprovedForAll(address,address)":"e985e9c5","mintHaiku(string,string,string)":"350fe165","name()":"06fdde03","ownerOf(uint256)":"6352211e","safeTransferFrom(address,address,uint256)":"42842e0e","safeTransferFrom(address,address,uint256,bytes)":"b88d4fde","setApprovalForAll(address,bool)":"a22cb465","shareHaiku(address,uint256)":"0884d540","sharedHaikus(address,uint256)":"97afe82d","supportsInterface(bytes4)":"01ffc9a7","symbol()":"95d89b41","tokenURI(uint256)":"c87b56dd","transferFrom(address,address,uint256)":"23b872dd"},"id":66}