{"abi":[{"type":"constructor","inputs":[],"stateMutability":"nonpayable"},{"type":"function","name":"CLAIM_AMOUNT","inputs":[],"outputs":[{"name":"","type":"uint256","internalType":"uint256"}],"stateMutability":"view"},{"type":"function","name":"balanceOf","inputs":[{"name":"_address","type":"address","internalType":"address"}],"outputs":[{"name":"","type":"uint256","internalType":"uint256"}],"stateMutability":"view"},{"type":"function","name":"balances","inputs":[{"name":"","type":"address","internalType":"address"}],"outputs":[{"name":"","type":"uint256","internalType":"uint256"}],"stateMutability":"view"},{"type":"function","name":"claim","inputs":[],"outputs":[],"stateMutability":"nonpayable"},{"type":"function","name":"hasClaimedTokens","inputs":[{"name":"_address","type":"address","internalType":"address"}],"outputs":[{"name":"","type":"bool","internalType":"bool"}],"stateMutability":"view"},{"type":"function","name":"remainingTokens","inputs":[],"outputs":[{"name":"","type":"uint256","internalType":"uint256"}],"stateMutability":"view"},{"type":"function","name":"safeTransfer","inputs":[{"name":"_to","type":"address","internalType":"address"},{"name":"_amount","type":"uint256","internalType":"uint256"}],"outputs":[],"stateMutability":"nonpayable"},{"type":"function","name":"totalClaimed","inputs":[],"outputs":[{"name":"","type":"uint256","internalType":"uint256"}],"stateMutability":"view"},{"type":"function","name":"totalClaimers","inputs":[],"outputs":[{"name":"","type":"uint256","internalType":"uint256"}],"stateMutability":"view"},{"type":"function","name":"totalSupply","inputs":[],"outputs":[{"name":"","type":"uint256","internalType":"uint256"}],"stateMutability":"view"},{"type":"event","name":"ClaimMade","inputs":[{"name":"claimer","type":"address","indexed":true,"internalType":"address"},{"name":"amount","type":"uint256","indexed":false,"internalType":"uint256"}],"anonymous":false},{"type":"event","name":"Transfer","inputs":[{"name":"from","type":"address","indexed":true,"internalType":"address"},{"name":"to","type":"address","indexed":true,"internalType":"address"},{"name":"amount","type":"uint256","indexed":false,"internalType":"uint256"}],"anonymous":false},{"type":"error","name":"AllTokensClaimed","inputs":[]},{"type":"error","name":"TokensClaimed","inputs":[]},{"type":"error","name":"UnsafeTransfer","inputs":[{"name":"recipient","type":"address","internalType":"address"}]}],"bytecode":{"object":"0x608060405234801561000f575f80fd5b506305f5e1006001819055505f600281905550610a658061002f5f395ff3fe608060405234801561000f575f80fd5b506004361061009c575f3560e01c806370a082311161006457806370a082311461013257806391b3635914610162578063bf58390314610180578063d54ad2a11461019e578063ed613ac1146101bc5761009c565b806318160ddd146100a0578063270ef385146100be57806327e235e3146100dc578063423f6cef1461010c5780634e71d92d14610128575b5f80fd5b6100a86101ec565b6040516100b59190610762565b60405180910390f35b6100c66101f2565b6040516100d39190610762565b60405180910390f35b6100f660048036038101906100f191906107d9565b6101f8565b6040516101039190610762565b60405180910390f35b6101266004803603810190610121919061082e565b61020c565b005b610130610463565b005b61014c600480360381019061014791906107d9565b610681565b6040516101599190610762565b60405180910390f35b61016a6106c6565b6040516101779190610762565b60405180910390f35b6101886106dc565b6040516101959190610762565b60405180910390f35b6101a66106f2565b6040516101b39190610762565b60405180910390f35b6101d660048036038101906101d191906107d9565b6106f8565b6040516101e39190610886565b60405180910390f35b60015481565b6103e881565b5f602052805f5260405f205f915090505481565b5f73ffffffffffffffffffffffffffffffffffffffff168273ffffffffffffffffffffffffffffffffffffffff160361027c57816040517f6a86d24c00000000000000000000000000000000000000000000000000000000815260040161027391906108ae565b60405180910390fd5b5f8273ffffffffffffffffffffffffffffffffffffffff1631036102d757816040517f6a86d24c0000000000000000000000000000000000000000000000000000000081526004016102ce91906108ae565b60405180910390fd5b805f803373ffffffffffffffffffffffffffffffffffffffff1673ffffffffffffffffffffffffffffffffffffffff1681526020019081526020015f20541015610356576040517f08c379a000000000000000000000000000000000000000000000000000000000815260040161034d90610921565b60405180910390fd5b805f803373ffffffffffffffffffffffffffffffffffffffff1673ffffffffffffffffffffffffffffffffffffffff1681526020019081526020015f205f8282546103a1919061096c565b92505081905550805f808473ffffffffffffffffffffffffffffffffffffffff1673ffffffffffffffffffffffffffffffffffffffff1681526020019081526020015f205f8282546103f3919061099f565b925050819055508173ffffffffffffffffffffffffffffffffffffffff163373ffffffffffffffffffffffffffffffffffffffff167fddf252ad1be2c89b69c2b068fc378daa952ba7f163c4a11628f55a4df523b3ef836040516104579190610762565b60405180910390a35050565b600154600254106104a0576040517fcbe2483100000000000000000000000000000000000000000000000000000000815260040160405180910390fd5b60035f3373ffffffffffffffffffffffffffffffffffffffff1673ffffffffffffffffffffffffffffffffffffffff1681526020019081526020015f205f9054906101000a900460ff1615610521576040517f0b1327a600000000000000000000000000000000000000000000000000000000815260040160405180910390fd5b6001546103e8600254610534919061099f565b111561056c576040517fcbe2483100000000000000000000000000000000000000000000000000000000815260040160405180910390fd5b600160035f3373ffffffffffffffffffffffffffffffffffffffff1673ffffffffffffffffffffffffffffffffffffffff1681526020019081526020015f205f6101000a81548160ff0219169083151502179055506103e85f803373ffffffffffffffffffffffffffffffffffffffff1673ffffffffffffffffffffffffffffffffffffffff1681526020019081526020015f205f82825461060e919061099f565b925050819055506103e860025f828254610628919061099f565b925050819055503373ffffffffffffffffffffffffffffffffffffffff167f9e09de4b8e45666deb3ec2bc8225f07988e54ef533eec97cb0b4610127183d796103e86040516106779190610762565b60405180910390a2565b5f805f8373ffffffffffffffffffffffffffffffffffffffff1673ffffffffffffffffffffffffffffffffffffffff1681526020019081526020015f20549050919050565b5f6103e86002546106d791906109ff565b905090565b5f6002546001546106ed919061096c565b905090565b60025481565b5f60035f8373ffffffffffffffffffffffffffffffffffffffff1673ffffffffffffffffffffffffffffffffffffffff1681526020019081526020015f205f9054906101000a900460ff169050919050565b5f819050919050565b61075c8161074a565b82525050565b5f6020820190506107755f830184610753565b92915050565b5f80fd5b5f73ffffffffffffffffffffffffffffffffffffffff82169050919050565b5f6107a88261077f565b9050919050565b6107b88161079e565b81146107c2575f80fd5b50565b5f813590506107d3816107af565b92915050565b5f602082840312156107ee576107ed61077b565b5b5f6107fb848285016107c5565b91505092915050565b61080d8161074a565b8114610817575f80fd5b50565b5f8135905061082881610804565b92915050565b5f80604083850312156108445761084361077b565b5b5f610851858286016107c5565b92505060206108628582860161081a565b9150509250929050565b5f8115159050919050565b6108808161086c565b82525050565b5f6020820190506108995f830184610877565b92915050565b6108a88161079e565b82525050565b5f6020820190506108c15f83018461089f565b92915050565b5f82825260208201905092915050565b7f496e73756666696369656e742062616c616e63650000000000000000000000005f82015250565b5f61090b6014836108c7565b9150610916826108d7565b602082019050919050565b5f6020820190508181035f830152610938816108ff565b9050919050565b7f4e487b71000000000000000000000000000000000000000000000000000000005f52601160045260245ffd5b5f6109768261074a565b91506109818361074a565b92508282039050818111156109995761099861093f565b5b92915050565b5f6109a98261074a565b91506109b48361074a565b92508282019050808211156109cc576109cb61093f565b5b92915050565b7f4e487b71000000000000000000000000000000000000000000000000000000005f52601260045260245ffd5b5f610a098261074a565b9150610a148361074a565b925082610a2457610a236109d2565b5b82820490509291505056fea2646970667358221220e827ba888270cb685a0a674616147e4374bc29b3560e14cbcb3d24ea0859e2d664736f6c63430008140033","linkReferences":{}},"methodIdentifiers":{"CLAIM_AMOUNT()":"270ef385","balanceOf(address)":"70a08231","balances(address)":"27e235e3","claim()":"4e71d92d","hasClaimedTokens(address)":"ed613ac1","remainingTokens()":"bf583903","safeTransfer(address,uint256)":"423f6cef","totalClaimed()":"d54ad2a1","totalClaimers()":"91b36359","totalSupply()":"18160ddd"},"id":69}