{"abi":[{"type":"constructor","inputs":[],"stateMutability":"nonpayable"},{"type":"function","name":"addRecord","inputs":[{"name":"_albumName","type":"string","internalType":"string"}],"outputs":[],"stateMutability":"nonpayable"},{"type":"function","name":"approvedRecords","inputs":[{"name":"","type":"string","internalType":"string"}],"outputs":[{"name":"","type":"bool","internalType":"bool"}],"stateMutability":"view"},{"type":"function","name":"getApprovedRecords","inputs":[],"outputs":[{"name":"","type":"string[]","internalType":"string[]"}],"stateMutability":"view"},{"type":"function","name":"getApprovedRecordsCount","inputs":[],"outputs":[{"name":"","type":"uint256","internalType":"uint256"}],"stateMutability":"view"},{"type":"function","name":"getUserFavorites","inputs":[{"name":"_user","type":"address","internalType":"address"}],"outputs":[{"name":"","type":"string[]","internalType":"string[]"}],"stateMutability":"view"},{"type":"function","name":"getUserFavoritesCount","inputs":[{"name":"_user","type":"address","internalType":"address"}],"outputs":[{"name":"","type":"uint256","internalType":"uint256"}],"stateMutability":"view"},{"type":"function","name":"isApprovedRecord","inputs":[{"name":"_albumName","type":"string","internalType":"string"}],"outputs":[{"name":"","type":"bool","internalType":"bool"}],"stateMutability":"view"},{"type":"function","name":"isUserFavorite","inputs":[{"name":"_user","type":"address","internalType":"address"},{"name":"_albumName","type":"string","internalType":"string"}],"outputs":[{"name":"","type":"bool","internalType":"bool"}],"stateMutability":"view"},{"type":"function","name":"removeRecord","inputs":[{"name":"_albumName","type":"string","internalType":"string"}],"outputs":[],"stateMutability":"nonpayable"},{"type":"function","name":"resetUserFavorites","inputs":[],"outputs":[],"stateMutability":"nonpayable"},{"type":"function","name":"userFavorites","inputs":[{"name":"","type":"address","internalType":"address"},{"name":"","type":"string","internalType":"string"}],"outputs":[{"name":"","type":"bool","internalType":"bool"}],"stateMutability":"view"},{"type":"error","name":"NotApproved","inputs":[{"name":"albumName","type":"string","internalType":"string"}]}],"bytecode":{"object":"0x608060405234801562000010575f80fd5b50620000576040518060400160405280600881526020017f546872696c6c65720000000000000000000000000000000000000000000000008152506200028d60201b60201c565b6200009d6040518060400160405280600d81526020017f4261636b20696e20426c61636b000000000000000000000000000000000000008152506200028d60201b60201c565b620000e36040518060400160405280600d81526020017f54686520426f64796775617264000000000000000000000000000000000000008152506200028d60201b60201c565b620001296040518060400160405280601981526020017f546865204461726b2053696465206f6620746865204d6f6f6e000000000000008152506200028d60201b60201c565b6200016f6040518060400160405280601f81526020017f546865697220477265617465737420486974732028313937312d3139373529008152506200028d60201b60201c565b620001b56040518060400160405280601081526020017f486f74656c2043616c69666f726e6961000000000000000000000000000000008152506200028d60201b60201c565b620001fb6040518060400160405280600c81526020017f436f6d65204f6e204f76657200000000000000000000000000000000000000008152506200028d60201b60201c565b620002416040518060400160405280600781526020017f52756d6f757273000000000000000000000000000000000000000000000000008152506200028d60201b60201c565b620002876040518060400160405280601481526020017f5361747572646179204e696768742046657665720000000000000000000000008152506200028d60201b60201c565b620006c5565b60015f82604051620002a091906200036f565b90815260200160405180910390205f6101000a81548160ff021916908315150217905550600281908060018154018082558091505060019003905f5260205f20015f909190919091509081620002f79190620005e1565b5050565b5f81519050919050565b5f81905092915050565b5f5b838110156200032e57808201518184015260208101905062000311565b5f8484015250505050565b5f6200034582620002fb565b62000351818562000305565b9350620003638185602086016200030f565b80840191505092915050565b5f6200037c828462000339565b915081905092915050565b7f4e487b71000000000000000000000000000000000000000000000000000000005f52604160045260245ffd5b7f4e487b71000000000000000000000000000000000000000000000000000000005f52602260045260245ffd5b5f6002820490506001821680620003f957607f821691505b6020821081036200040f576200040e620003b4565b5b50919050565b5f819050815f5260205f209050919050565b5f6020601f8301049050919050565b5f82821b905092915050565b5f60088302620004737fffffffffffffffffffffffffffffffffffffffffffffffffffffffffffffffff8262000436565b6200047f868362000436565b95508019841693508086168417925050509392505050565b5f819050919050565b5f819050919050565b5f620004c9620004c3620004bd8462000497565b620004a0565b62000497565b9050919050565b5f819050919050565b620004e483620004a9565b620004fc620004f382620004d0565b84845462000442565b825550505050565b5f90565b6200051262000504565b6200051f818484620004d9565b505050565b5b8181101562000546576200053a5f8262000508565b60018101905062000525565b5050565b601f82111562000595576200055f8162000415565b6200056a8462000427565b810160208510156200057a578190505b62000592620005898562000427565b83018262000524565b50505b505050565b5f82821c905092915050565b5f620005b75f19846008026200059a565b1980831691505092915050565b5f620005d18383620005a6565b9150826002028217905092915050565b620005ec82620002fb565b67ffffffffffffffff81111562000608576200060762000387565b5b620006148254620003e1565b620006218282856200054a565b5f60209050601f83116001811462000657575f841562000642578287015190505b6200064e8582620005c4565b865550620006bd565b601f198416620006678662000415565b5f5b82811015620006905784890151825560018201915060208501945060208101905062000669565b86831015620006b05784890151620006ac601f891682620005a6565b8355505b6001600288020188555050505b505050505050565b6116a180620006d35f395ff3fe608060405234801561000f575f80fd5b50600436106100a7575f3560e01c8063b374ac591161006f578063b374ac591461013d578063c0adf7dc1461016d578063c75c333c1461019d578063c7853148146101cd578063d81aa8c4146101fd578063eee186d614610219576100a7565b8063081f0673146100ab5780631cf0830b146100db5780635c045c3a146100f9578063837f8878146101175780638fb124fa14610121575b5f80fd5b6100c560048036038101906100c09190610d68565b610249565b6040516100d29190610dc9565b60405180910390f35b6100e361027b565b6040516100f09190610f17565b60405180910390f35b61010161034f565b60405161010e9190610f4f565b60405180910390f35b61011f61035b565b005b61013b60048036038101906101369190610d68565b61055a565b005b61015760048036038101906101529190610d68565b61078d565b6040516101649190610dc9565b60405180910390f35b61018760048036038101906101829190610fc2565b6107c1565b6040516101949190610f4f565b60405180910390f35b6101b760048036038101906101b29190610fed565b61080a565b6040516101c49190610dc9565b60405180910390f35b6101e760048036038101906101e29190610fc2565b61084c565b6040516101f49190610f17565b60405180910390f35b61021760048036038101906102129190610d68565b61095d565b005b610233600480360381019061022e9190610fed565b610b13565b6040516102409190610dc9565b60405180910390f35b5f80826040516102599190611081565b90815260200160405180910390205f9054906101000a900460ff169050919050565b60606002805480602002602001604051908101604052809291908181526020015f905b82821015610346578382905f5260205f200180546102bb906110c4565b80601f01602080910402602001604051908101604052809291908181526020018280546102e7906110c4565b80156103325780601f1061030957610100808354040283529160200191610332565b820191905f5260205f20905b81548152906001019060200180831161031557829003601f168201915b50505050508152602001906001019061029e565b50505050905090565b5f600280549050905090565b5f60035f3373ffffffffffffffffffffffffffffffffffffffff1673ffffffffffffffffffffffffffffffffffffffff1681526020019081526020015f20805480602002602001604051908101604052809291908181526020015f905b82821015610460578382905f5260205f200180546103d5906110c4565b80601f0160208091040260200160405190810160405280929190818152602001828054610401906110c4565b801561044c5780601f106104235761010080835404028352916020019161044c565b820191905f5260205f20905b81548152906001019060200180831161042f57829003601f168201915b5050505050815260200190600101906103b8565b5050505090505f5b815181101561050e575f60015f3373ffffffffffffffffffffffffffffffffffffffff1673ffffffffffffffffffffffffffffffffffffffff1681526020019081526020015f208383815181106104c2576104c16110f4565b5b60200260200101516040516104d79190611081565b90815260200160405180910390205f6101000a81548160ff02191690831515021790555080806105069061114e565b915050610468565b5060035f3373ffffffffffffffffffffffffffffffffffffffff1673ffffffffffffffffffffffffffffffffffffffff1681526020019081526020015f205f6105579190610b82565b50565b60015f3373ffffffffffffffffffffffffffffffffffffffff1673ffffffffffffffffffffffffffffffffffffffff1681526020019081526020015f20816040516105a59190611081565b90815260200160405180910390205f9054906101000a900460ff161561078a575f60015f3373ffffffffffffffffffffffffffffffffffffffff1673ffffffffffffffffffffffffffffffffffffffff1681526020019081526020015f20826040516106119190611081565b90815260200160405180910390205f6101000a81548160ff0219169083151502179055505f60035f3373ffffffffffffffffffffffffffffffffffffffff1673ffffffffffffffffffffffffffffffffffffffff1681526020019081526020015f2090505f5b818054905081101561078757826040516020016106949190611081565b604051602081830303815290604052805190602001208282815481106106bd576106bc6110f4565b5b905f5260205f20016040516020016106d59190611227565b6040516020818303038152906040528051906020012003610774578160018380549050610702919061123d565b81548110610713576107126110f4565b5b905f5260205f200182828154811061072e5761072d6110f4565b5b905f5260205f200190816107429190611422565b508180548061075457610753611507565b5b600190038181905f5260205f20015f61076d9190610ba0565b9055610787565b808061077f9061114e565b915050610677565b50505b50565b5f818051602081018201805184825260208301602085012081835280955050505050505f915054906101000a900460ff1681565b5f60035f8373ffffffffffffffffffffffffffffffffffffffff1673ffffffffffffffffffffffffffffffffffffffff1681526020019081526020015f20805490509050919050565b6001602052815f5260405f20818051602081018201805184825260208301602085012081835280955050505050505f915091509054906101000a900460ff1681565b606060035f8373ffffffffffffffffffffffffffffffffffffffff1673ffffffffffffffffffffffffffffffffffffffff1681526020019081526020015f20805480602002602001604051908101604052809291908181526020015f905b82821015610952578382905f5260205f200180546108c7906110c4565b80601f01602080910402602001604051908101604052809291908181526020018280546108f3906110c4565b801561093e5780601f106109155761010080835404028352916020019161093e565b820191905f5260205f20905b81548152906001019060200180831161092157829003601f168201915b5050505050815260200190600101906108aa565b505050509050919050565b5f8160405161096c9190611081565b90815260200160405180910390205f9054906101000a900460ff166109c857806040517f4f0ffc1b0000000000000000000000000000000000000000000000000000000081526004016109bf919061157c565b60405180910390fd5b60015f3373ffffffffffffffffffffffffffffffffffffffff1673ffffffffffffffffffffffffffffffffffffffff1681526020019081526020015f2081604051610a139190611081565b90815260200160405180910390205f9054906101000a900460ff16610b10576001805f3373ffffffffffffffffffffffffffffffffffffffff1673ffffffffffffffffffffffffffffffffffffffff1681526020019081526020015f2082604051610a7e9190611081565b90815260200160405180910390205f6101000a81548160ff02191690831515021790555060035f3373ffffffffffffffffffffffffffffffffffffffff1673ffffffffffffffffffffffffffffffffffffffff1681526020019081526020015f2081908060018154018082558091505060019003905f5260205f20015f909190919091509081610b0e919061159c565b505b50565b5f60015f8473ffffffffffffffffffffffffffffffffffffffff1673ffffffffffffffffffffffffffffffffffffffff1681526020019081526020015f2082604051610b5f9190611081565b90815260200160405180910390205f9054906101000a900460ff16905092915050565b5080545f8255905f5260205f2090810190610b9d9190610bdd565b50565b508054610bac906110c4565b5f825580601f10610bbd5750610bda565b601f0160209004905f5260205f2090810190610bd99190610c00565b5b50565b5b80821115610bfc575f8181610bf39190610ba0565b50600101610bde565b5090565b5b80821115610c17575f815f905550600101610c01565b5090565b5f604051905090565b5f80fd5b5f80fd5b5f80fd5b5f80fd5b5f601f19601f8301169050919050565b7f4e487b71000000000000000000000000000000000000000000000000000000005f52604160045260245ffd5b610c7a82610c34565b810181811067ffffffffffffffff82111715610c9957610c98610c44565b5b80604052505050565b5f610cab610c1b565b9050610cb78282610c71565b919050565b5f67ffffffffffffffff821115610cd657610cd5610c44565b5b610cdf82610c34565b9050602081019050919050565b828183375f83830152505050565b5f610d0c610d0784610cbc565b610ca2565b905082815260208101848484011115610d2857610d27610c30565b5b610d33848285610cec565b509392505050565b5f82601f830112610d4f57610d4e610c2c565b5b8135610d5f848260208601610cfa565b91505092915050565b5f60208284031215610d7d57610d7c610c24565b5b5f82013567ffffffffffffffff811115610d9a57610d99610c28565b5b610da684828501610d3b565b91505092915050565b5f8115159050919050565b610dc381610daf565b82525050565b5f602082019050610ddc5f830184610dba565b92915050565b5f81519050919050565b5f82825260208201905092915050565b5f819050602082019050919050565b5f81519050919050565b5f82825260208201905092915050565b5f5b83811015610e42578082015181840152602081019050610e27565b5f8484015250505050565b5f610e5782610e0b565b610e618185610e15565b9350610e71818560208601610e25565b610e7a81610c34565b840191505092915050565b5f610e908383610e4d565b905092915050565b5f602082019050919050565b5f610eae82610de2565b610eb88185610dec565b935083602082028501610eca85610dfc565b805f5b85811015610f055784840389528151610ee68582610e85565b9450610ef183610e98565b925060208a01995050600181019050610ecd565b50829750879550505050505092915050565b5f6020820190508181035f830152610f2f8184610ea4565b905092915050565b5f819050919050565b610f4981610f37565b82525050565b5f602082019050610f625f830184610f40565b92915050565b5f73ffffffffffffffffffffffffffffffffffffffff82169050919050565b5f610f9182610f68565b9050919050565b610fa181610f87565b8114610fab575f80fd5b50565b5f81359050610fbc81610f98565b92915050565b5f60208284031215610fd757610fd6610c24565b5b5f610fe484828501610fae565b91505092915050565b5f806040838503121561100357611002610c24565b5b5f61101085828601610fae565b925050602083013567ffffffffffffffff81111561103157611030610c28565b5b61103d85828601610d3b565b9150509250929050565b5f81905092915050565b5f61105b82610e0b565b6110658185611047565b9350611075818560208601610e25565b80840191505092915050565b5f61108c8284611051565b915081905092915050565b7f4e487b71000000000000000000000000000000000000000000000000000000005f52602260045260245ffd5b5f60028204905060018216806110db57607f821691505b6020821081036110ee576110ed611097565b5b50919050565b7f4e487b71000000000000000000000000000000000000000000000000000000005f52603260045260245ffd5b7f4e487b71000000000000000000000000000000000000000000000000000000005f52601160045260245ffd5b5f61115882610f37565b91507fffffffffffffffffffffffffffffffffffffffffffffffffffffffffffffffff820361118a57611189611121565b5b600182019050919050565b5f819050815f5260205f209050919050565b5f81546111b3816110c4565b6111bd8186611047565b9450600182165f81146111d757600181146111ec5761121e565b60ff198316865281151582028601935061121e565b6111f585611195565b5f5b83811015611216578154818901526001820191506020810190506111f7565b838801955050505b50505092915050565b5f61123282846111a7565b915081905092915050565b5f61124782610f37565b915061125283610f37565b925082820390508181111561126a57611269611121565b5b92915050565b5f8154905061127e816110c4565b9050919050565b5f819050815f5260205f209050919050565b5f6020601f8301049050919050565b5f82821b905092915050565b5f600883026112e17fffffffffffffffffffffffffffffffffffffffffffffffffffffffffffffffff826112a6565b6112eb86836112a6565b95508019841693508086168417925050509392505050565b5f819050919050565b5f61132661132161131c84610f37565b611303565b610f37565b9050919050565b5f819050919050565b61133f8361130c565b61135361134b8261132d565b8484546112b2565b825550505050565b5f90565b61136761135b565b611372818484611336565b505050565b5b818110156113955761138a5f8261135f565b600181019050611378565b5050565b601f8211156113da576113ab81611195565b6113b484611297565b810160208510156113c3578190505b6113d76113cf85611297565b830182611377565b50505b505050565b5f82821c905092915050565b5f6113fa5f19846008026113df565b1980831691505092915050565b5f61141283836113eb565b9150826002028217905092915050565b818103611430575050611505565b61143982611270565b67ffffffffffffffff81111561145257611451610c44565b5b61145c82546110c4565b611467828285611399565b5f601f831160018114611494575f8415611482578287015490505b61148c8582611407565b8655506114fe565b601f1984166114a287611285565b96506114ad86611195565b5f5b828110156114d4578489015482556001820191506001850194506020810190506114af565b868310156114f157848901546114ed601f8916826113eb565b8355505b6001600288020188555050505b5050505050505b565b7f4e487b71000000000000000000000000000000000000000000000000000000005f52603160045260245ffd5b5f82825260208201905092915050565b5f61154e82610e0b565b6115588185611534565b9350611568818560208601610e25565b61157181610c34565b840191505092915050565b5f6020820190508181035f8301526115948184611544565b905092915050565b6115a582610e0b565b67ffffffffffffffff8111156115be576115bd610c44565b5b6115c882546110c4565b6115d3828285611399565b5f60209050601f831160018114611604575f84156115f2578287015190505b6115fc8582611407565b865550611663565b601f19841661161286611195565b5f5b8281101561163957848901518255600182019150602085019450602081019050611614565b868310156116565784890151611652601f8916826113eb565b8355505b6001600288020188555050505b50505050505056fea264697066735822122057ce1b3791c1da8c5dfd40625d0d424c18e9806260b06c38e47e47ed9b87c7cc64736f6c63430008140033","linkReferences":{}},"methodIdentifiers":{"addRecord(string)":"d81aa8c4","approvedRecords(string)":"b374ac59","getApprovedRecords()":"1cf0830b","getApprovedRecordsCount()":"5c045c3a","getUserFavorites(address)":"c7853148","getUserFavoritesCount(address)":"c0adf7dc","isApprovedRecord(string)":"081f0673","isUserFavorite(address,string)":"eee186d6","removeRecord(string)":"8fb124fa","resetUserFavorites()":"837f8878","userFavorites(address,string)":"c75c333c"},"id":64}