{"abi":[{"type":"constructor","inputs":[{"name":"initialOwner","type":"address","internalType":"address"}],"stateMutability":"nonpayable"},{"type":"function","name":"addContact","inputs":[{"name":"_firstName","type":"string","internalType":"string"},{"name":"_lastName","type":"string","internalType":"string"},{"name":"_phoneNumbers","type":"uint256[]","internalType":"uint256[]"}],"outputs":[{"name":"id","type":"uint256","internalType":"uint256"}],"stateMutability":"nonpayable"},{"type":"function","name":"deleteContact","inputs":[{"name":"_id","type":"uint256","internalType":"uint256"}],"outputs":[],"stateMutability":"nonpayable"},{"type":"function","name":"getAllContacts","inputs":[],"outputs":[{"name":"allContacts","type":"tuple[]","internalType":"struct AddressBook.Contact[]","components":[{"name":"id","type":"uint256","internalType":"uint256"},{"name":"firstName","type":"string","internalType":"string"},{"name":"lastName","type":"string","internalType":"string"},{"name":"phoneNumbers","type":"uint256[]","internalType":"uint256[]"}]}],"stateMutability":"view"},{"type":"function","name":"getContact","inputs":[{"name":"_id","type":"uint256","internalType":"uint256"}],"outputs":[{"name":"contact","type":"tuple","internalType":"struct AddressBook.Contact","components":[{"name":"id","type":"uint256","internalType":"uint256"},{"name":"firstName","type":"string","internalType":"string"},{"name":"lastName","type":"string","internalType":"string"},{"name":"phoneNumbers","type":"uint256[]","internalType":"uint256[]"}]}],"stateMutability":"view"},{"type":"function","name":"getContactCount","inputs":[],"outputs":[{"name":"count","type":"uint256","internalType":"uint256"}],"stateMutability":"view"},{"type":"function","name":"owner","inputs":[],"outputs":[{"name":"","type":"address","internalType":"address"}],"stateMutability":"view"},{"type":"function","name":"renounceOwnership","inputs":[],"outputs":[],"stateMutability":"nonpayable"},{"type":"function","name":"transferOwnership","inputs":[{"name":"newOwner","type":"address","internalType":"address"}],"outputs":[],"stateMutability":"nonpayable"},{"type":"event","name":"OwnershipTransferred","inputs":[{"name":"previousOwner","type":"address","indexed":true,"internalType":"address"},{"name":"newOwner","type":"address","indexed":true,"internalType":"address"}],"anonymous":false},{"type":"error","name":"ContactNotFound","inputs":[{"name":"id","type":"uint256","internalType":"uint256"}]},{"type":"error","name":"OwnableInvalidOwner","inputs":[{"name":"owner","type":"address","internalType":"address"}]},{"type":"error","name":"OwnableUnauthorizedAccount","inputs":[{"name":"account","type":"address","internalType":"address"}]}],"bytecode":{"object":"0x608060405234801562000010575f80fd5b5060405162001931380380620019318339818101604052810190620000369190620001f1565b805f73ffffffffffffffffffffffffffffffffffffffff168173ffffffffffffffffffffffffffffffffffffffff1603620000aa575f6040517f1e4fbdf7000000000000000000000000000000000000000000000000000000008152600401620000a1919062000232565b60405180910390fd5b620000bb81620000cb60201b60201c565b506001600381905550506200024d565b5f805f9054906101000a900473ffffffffffffffffffffffffffffffffffffffff169050815f806101000a81548173ffffffffffffffffffffffffffffffffffffffff021916908373ffffffffffffffffffffffffffffffffffffffff1602179055508173ffffffffffffffffffffffffffffffffffffffff168173ffffffffffffffffffffffffffffffffffffffff167f8be0079c531659141344cd1fd0a4f28419497f9722a3daafe3b4186f6b6457e060405160405180910390a35050565b5f80fd5b5f73ffffffffffffffffffffffffffffffffffffffff82169050919050565b5f620001bb8262000190565b9050919050565b620001cd81620001af565b8114620001d8575f80fd5b50565b5f81519050620001eb81620001c2565b92915050565b5f602082840312156200020957620002086200018c565b5b5f6200021884828501620001db565b91505092915050565b6200022c81620001af565b82525050565b5f602082019050620002475f83018462000221565b92915050565b6116d6806200025b5f395ff3fe608060405234801561000f575f80fd5b5060043610610086575f3560e01c8063b9ed6fca11610059578063b9ed6fca14610100578063e6505e1e1461011c578063ef1d6ddd1461014c578063f2fde38b1461016a57610086565b806336d52ed71461008a5780633f06f6e8146100a8578063715018a6146100d85780638da5cb5b146100e2575b5f80fd5b610092610186565b60405161009f9190610bfe565b60405180910390f35b6100c260048036038101906100bd9190610e52565b610192565b6040516100cf9190610bfe565b60405180910390f35b6100e061026a565b005b6100ea61027d565b6040516100f79190610f35565b60405180910390f35b61011a60048036038101906101159190610f4e565b6102a4565b005b61013660048036038101906101319190610f4e565b61040b565b6040516101439190611118565b60405180910390f35b6101546105fc565b6040516101619190611261565b60405180910390f35b610184600480360381019061017f91906112ab565b61092b565b005b5f600280549050905090565b5f61019b6109af565b600354905060035f8154809291906101b290611303565b919050555060405180608001604052808281526020018581526020018481526020018381525060015f8381526020019081526020015f205f820151815f015560208201518160010190816102069190611544565b50604082015181600201908161021c9190611544565b506060820151816003019080519060200190610239929190610afe565b50905050600281908060018154018082558091505060019003905f5260205f20015f90919091909150559392505050565b6102726109af565b61027b5f610a36565b565b5f805f9054906101000a900473ffffffffffffffffffffffffffffffffffffffff16905090565b6102ac6109af565b5f60015f8381526020019081526020015f205f01540361030357806040517ff55dec000000000000000000000000000000000000000000000000000000000081526004016102fa9190610bfe565b60405180910390fd5b60015f8281526020019081526020015f205f8082015f9055600182015f61032a9190610b49565b600282015f6103399190610b49565b600382015f6103489190610b86565b50505f5b60028054905081101561040757816002828154811061036e5761036d611613565b5b905f5260205f200154036103f457600260016002805490506103909190611640565b815481106103a1576103a0611613565b5b905f5260205f200154600282815481106103be576103bd611613565b5b905f5260205f20018190555060028054806103dc576103db611673565b5b600190038181905f5260205f20015f90559055610407565b80806103ff90611303565b91505061034c565b5050565b610413610ba4565b60015f8381526020019081526020015f206040518060800160405290815f820154815260200160018201805461044890611377565b80601f016020809104026020016040519081016040528092919081815260200182805461047490611377565b80156104bf5780601f10610496576101008083540402835291602001916104bf565b820191905f5260205f20905b8154815290600101906020018083116104a257829003601f168201915b505050505081526020016002820180546104d890611377565b80601f016020809104026020016040519081016040528092919081815260200182805461050490611377565b801561054f5780601f106105265761010080835404028352916020019161054f565b820191905f5260205f20905b81548152906001019060200180831161053257829003601f168201915b50505050508152602001600382018054806020026020016040519081016040528092919081815260200182805480156105a557602002820191905f5260205f20905b815481526020019060010190808311610591575b50505050508152505090505f815f0151036105f757816040517ff55dec000000000000000000000000000000000000000000000000000000000081526004016105ee9190610bfe565b60405180910390fd5b919050565b606060028054905067ffffffffffffffff81111561061d5761061c610c40565b5b60405190808252806020026020018201604052801561065657816020015b610643610ba4565b81526020019060019003908161063b5790505b5090505f805b600280549050811015610874575f6002828154811061067e5761067d611613565b5b905f5260205f20015490505f60015f8381526020019081526020015f206040518060800160405290815f82015481526020016001820180546106bf90611377565b80601f01602080910402602001604051908101604052809291908181526020018280546106eb90611377565b80156107365780601f1061070d57610100808354040283529160200191610736565b820191905f5260205f20905b81548152906001019060200180831161071957829003601f168201915b5050505050815260200160028201805461074f90611377565b80601f016020809104026020016040519081016040528092919081815260200182805461077b90611377565b80156107c65780601f1061079d576101008083540402835291602001916107c6565b820191905f5260205f20905b8154815290600101906020018083116107a957829003601f168201915b505050505081526020016003820180548060200260200160405190810160405280929190818152602001828054801561081c57602002820191905f5260205f20905b815481526020019060010190808311610808575b50505050508152505090505f815f01511461085f578085858151811061084557610844611613565b5b6020026020010181905250838061085b90611303565b9450505b5050808061086c90611303565b91505061065c565b505f8167ffffffffffffffff8111156108905761088f610c40565b5b6040519080825280602002602001820160405280156108c957816020015b6108b6610ba4565b8152602001906001900390816108ae5790505b5090505f5b82811015610922578381815181106108e9576108e8611613565b5b602002602001015182828151811061090457610903611613565b5b6020026020010181905250808061091a90611303565b9150506108ce565b50809250505090565b6109336109af565b5f73ffffffffffffffffffffffffffffffffffffffff168173ffffffffffffffffffffffffffffffffffffffff16036109a3575f6040517f1e4fbdf700000000000000000000000000000000000000000000000000000000815260040161099a9190610f35565b60405180910390fd5b6109ac81610a36565b50565b6109b7610af7565b73ffffffffffffffffffffffffffffffffffffffff166109d561027d565b73ffffffffffffffffffffffffffffffffffffffff1614610a34576109f8610af7565b6040517f118cdaa7000000000000000000000000000000000000000000000000000000008152600401610a2b9190610f35565b60405180910390fd5b565b5f805f9054906101000a900473ffffffffffffffffffffffffffffffffffffffff169050815f806101000a81548173ffffffffffffffffffffffffffffffffffffffff021916908373ffffffffffffffffffffffffffffffffffffffff1602179055508173ffffffffffffffffffffffffffffffffffffffff168173ffffffffffffffffffffffffffffffffffffffff167f8be0079c531659141344cd1fd0a4f28419497f9722a3daafe3b4186f6b6457e060405160405180910390a35050565b5f33905090565b828054828255905f5260205f20908101928215610b38579160200282015b82811115610b37578251825591602001919060010190610b1c565b5b509050610b459190610bcb565b5090565b508054610b5590611377565b5f825580601f10610b665750610b83565b601f0160209004905f5260205f2090810190610b829190610bcb565b5b50565b5080545f8255905f5260205f2090810190610ba19190610bcb565b50565b60405180608001604052805f81526020016060815260200160608152602001606081525090565b5b80821115610be2575f815f905550600101610bcc565b5090565b5f819050919050565b610bf881610be6565b82525050565b5f602082019050610c115f830184610bef565b92915050565b5f604051905090565b5f80fd5b5f80fd5b5f80fd5b5f80fd5b5f601f19601f8301169050919050565b7f4e487b71000000000000000000000000000000000000000000000000000000005f52604160045260245ffd5b610c7682610c30565b810181811067ffffffffffffffff82111715610c9557610c94610c40565b5b80604052505050565b5f610ca7610c17565b9050610cb38282610c6d565b919050565b5f67ffffffffffffffff821115610cd257610cd1610c40565b5b610cdb82610c30565b9050602081019050919050565b828183375f83830152505050565b5f610d08610d0384610cb8565b610c9e565b905082815260208101848484011115610d2457610d23610c2c565b5b610d2f848285610ce8565b509392505050565b5f82601f830112610d4b57610d4a610c28565b5b8135610d5b848260208601610cf6565b91505092915050565b5f67ffffffffffffffff821115610d7e57610d7d610c40565b5b602082029050602081019050919050565b5f80fd5b610d9c81610be6565b8114610da6575f80fd5b50565b5f81359050610db781610d93565b92915050565b5f610dcf610dca84610d64565b610c9e565b90508083825260208201905060208402830185811115610df257610df1610d8f565b5b835b81811015610e1b5780610e078882610da9565b845260208401935050602081019050610df4565b5050509392505050565b5f82601f830112610e3957610e38610c28565b5b8135610e49848260208601610dbd565b91505092915050565b5f805f60608486031215610e6957610e68610c20565b5b5f84013567ffffffffffffffff811115610e8657610e85610c24565b5b610e9286828701610d37565b935050602084013567ffffffffffffffff811115610eb357610eb2610c24565b5b610ebf86828701610d37565b925050604084013567ffffffffffffffff811115610ee057610edf610c24565b5b610eec86828701610e25565b9150509250925092565b5f73ffffffffffffffffffffffffffffffffffffffff82169050919050565b5f610f1f82610ef6565b9050919050565b610f2f81610f15565b82525050565b5f602082019050610f485f830184610f26565b92915050565b5f60208284031215610f6357610f62610c20565b5b5f610f7084828501610da9565b91505092915050565b610f8281610be6565b82525050565b5f81519050919050565b5f82825260208201905092915050565b5f5b83811015610fbf578082015181840152602081019050610fa4565b5f8484015250505050565b5f610fd482610f88565b610fde8185610f92565b9350610fee818560208601610fa2565b610ff781610c30565b840191505092915050565b5f81519050919050565b5f82825260208201905092915050565b5f819050602082019050919050565b5f6110368383610f79565b60208301905092915050565b5f602082019050919050565b5f61105882611002565b611062818561100c565b935061106d8361101c565b805f5b8381101561109d578151611084888261102b565b975061108f83611042565b925050600181019050611070565b5085935050505092915050565b5f608083015f8301516110bf5f860182610f79565b50602083015184820360208601526110d78282610fca565b915050604083015184820360408601526110f18282610fca565b9150506060830151848203606086015261110b828261104e565b9150508091505092915050565b5f6020820190508181035f83015261113081846110aa565b905092915050565b5f81519050919050565b5f82825260208201905092915050565b5f819050602082019050919050565b5f608083015f8301516111765f860182610f79565b506020830151848203602086015261118e8282610fca565b915050604083015184820360408601526111a88282610fca565b915050606083015184820360608601526111c2828261104e565b9150508091505092915050565b5f6111da8383611161565b905092915050565b5f602082019050919050565b5f6111f882611138565b6112028185611142565b93508360208202850161121485611152565b805f5b8581101561124f578484038952815161123085826111cf565b945061123b836111e2565b925060208a01995050600181019050611217565b50829750879550505050505092915050565b5f6020820190508181035f83015261127981846111ee565b905092915050565b61128a81610f15565b8114611294575f80fd5b50565b5f813590506112a581611281565b92915050565b5f602082840312156112c0576112bf610c20565b5b5f6112cd84828501611297565b91505092915050565b7f4e487b71000000000000000000000000000000000000000000000000000000005f52601160045260245ffd5b5f61130d82610be6565b91507fffffffffffffffffffffffffffffffffffffffffffffffffffffffffffffffff820361133f5761133e6112d6565b5b600182019050919050565b7f4e487b71000000000000000000000000000000000000000000000000000000005f52602260045260245ffd5b5f600282049050600182168061138e57607f821691505b6020821081036113a1576113a061134a565b5b50919050565b5f819050815f5260205f209050919050565b5f6020601f8301049050919050565b5f82821b905092915050565b5f600883026114037fffffffffffffffffffffffffffffffffffffffffffffffffffffffffffffffff826113c8565b61140d86836113c8565b95508019841693508086168417925050509392505050565b5f819050919050565b5f61144861144361143e84610be6565b611425565b610be6565b9050919050565b5f819050919050565b6114618361142e565b61147561146d8261144f565b8484546113d4565b825550505050565b5f90565b61148961147d565b611494818484611458565b505050565b5b818110156114b7576114ac5f82611481565b60018101905061149a565b5050565b601f8211156114fc576114cd816113a7565b6114d6846113b9565b810160208510156114e5578190505b6114f96114f1856113b9565b830182611499565b50505b505050565b5f82821c905092915050565b5f61151c5f1984600802611501565b1980831691505092915050565b5f611534838361150d565b9150826002028217905092915050565b61154d82610f88565b67ffffffffffffffff81111561156657611565610c40565b5b6115708254611377565b61157b8282856114bb565b5f60209050601f8311600181146115ac575f841561159a578287015190505b6115a48582611529565b86555061160b565b601f1984166115ba866113a7565b5f5b828110156115e1578489015182556001820191506020850194506020810190506115bc565b868310156115fe57848901516115fa601f89168261150d565b8355505b6001600288020188555050505b505050505050565b7f4e487b71000000000000000000000000000000000000000000000000000000005f52603260045260245ffd5b5f61164a82610be6565b915061165583610be6565b925082820390508181111561166d5761166c6112d6565b5b92915050565b7f4e487b71000000000000000000000000000000000000000000000000000000005f52603160045260245ffdfea26469706673582212208acb429a570e469176951fce40a72c089c427bc5380706254d6693a2d5bea60e64736f6c63430008140033","linkReferences":{}},"methodIdentifiers":{"addContact(string,string,uint256[])":"3f06f6e8","deleteContact(uint256)":"b9ed6fca","getAllContacts()":"ef1d6ddd","getContact(uint256)":"e6505e1e","getContactCount()":"36d52ed7","owner()":"8da5cb5b","renounceOwnership()":"715018a6","transferOwnership(address)":"f2fde38b"},"id":56}