{"abi":[{"type":"function","name":"adder","inputs":[{"name":"_a","type":"uint256","internalType":"uint256"},{"name":"_b","type":"uint256","internalType":"uint256"}],"outputs":[{"name":"sum","type":"uint256","internalType":"uint256"},{"name":"error","type":"bool","internalType":"bool"}],"stateMutability":"pure"},{"type":"function","name":"subtractor","inputs":[{"name":"_a","type":"uint256","internalType":"uint256"},{"name":"_b","type":"uint256","internalType":"uint256"}],"outputs":[{"name":"difference","type":"uint256","internalType":"uint256"},{"name":"error","type":"bool","internalType":"bool"}],"stateMutability":"pure"}],"bytecode":{"object":"0x608060405234801561000f575f80fd5b506102508061001d5f395ff3fe608060405234801561000f575f80fd5b5060043610610034575f3560e01c806306b034e9146100385780635270312a14610069575b5f80fd5b610052600480360381019061004d919061012c565b61009a565b604051610060929190610193565b60405180910390f35b610083600480360381019061007e919061012c565b6100c6565b604051610091929190610193565b60405180910390f35b5f805f8385019050848110156100b7575f600192509250506100bf565b805f92509250505b9250929050565b5f80838311156100dc575f6001915091506100ee565b82846100e891906101e7565b5f915091505b9250929050565b5f80fd5b5f819050919050565b61010b816100f9565b8114610115575f80fd5b50565b5f8135905061012681610102565b92915050565b5f8060408385031215610142576101416100f5565b5b5f61014f85828601610118565b925050602061016085828601610118565b9150509250929050565b610173816100f9565b82525050565b5f8115159050919050565b61018d81610179565b82525050565b5f6040820190506101a65f83018561016a565b6101b36020830184610184565b9392505050565b7f4e487b71000000000000000000000000000000000000000000000000000000005f52601160045260245ffd5b5f6101f1826100f9565b91506101fc836100f9565b9250828203905081811115610214576102136101ba565b5b9291505056fea264697066735822122045b8be66e5bd1332d3df6664e5c942cc8bbe7d46fa32f4401bb480d98817094864736f6c63430008140033","linkReferences":{}},"methodIdentifiers":{"adder(uint256,uint256)":"06b034e9","subtractor(uint256,uint256)":"5270312a"},"id":59}