{"abi":[{"type":"constructor","inputs":[{"name":"_idNumber","type":"uint256","internalType":"uint256"},{"name":"_managerId","type":"uint256","internalType":"uint256"},{"name":"_annualSalary","type":"uint256","internalType":"uint256"}],"stateMutability":"nonpayable"},{"type":"function","name":"addEngineerReport","inputs":[{"name":"_engineerId","type":"uint256","internalType":"uint256"}],"outputs":[],"stateMutability":"nonpayable"},{"type":"function","name":"addReport","inputs":[{"name":"_employeeId","type":"uint256","internalType":"uint256"}],"outputs":[],"stateMutability":"nonpayable"},{"type":"function","name":"annualSalary","inputs":[],"outputs":[{"name":"","type":"uint256","internalType":"uint256"}],"stateMutability":"view"},{"type":"function","name":"employeeIds","inputs":[{"name":"","type":"uint256","internalType":"uint256"}],"outputs":[{"name":"","type":"uint256","internalType":"uint256"}],"stateMutability":"view"},{"type":"function","name":"getAnnualCost","inputs":[],"outputs":[{"name":"","type":"uint256","internalType":"uint256"}],"stateMutability":"view"},{"type":"function","name":"getEmployeeType","inputs":[],"outputs":[{"name":"","type":"string","internalType":"string"}],"stateMutability":"pure"},{"type":"function","name":"getReports","inputs":[],"outputs":[{"name":"","type":"uint256[]","internalType":"uint256[]"}],"stateMutability":"view"},{"type":"function","name":"getReportsCount","inputs":[],"outputs":[{"name":"","type":"uint256","internalType":"uint256"}],"stateMutability":"view"},{"type":"function","name":"getTotalReportsCost","inputs":[],"outputs":[{"name":"","type":"uint256","internalType":"uint256"}],"stateMutability":"view"},{"type":"function","name":"idNumber","inputs":[],"outputs":[{"name":"","type":"uint256","internalType":"uint256"}],"stateMutability":"view"},{"type":"function","name":"isReport","inputs":[{"name":"_employeeId","type":"uint256","internalType":"uint256"}],"outputs":[{"name":"","type":"bool","internalType":"bool"}],"stateMutability":"view"},{"type":"function","name":"managerId","inputs":[],"outputs":[{"name":"","type":"uint256","internalType":"uint256"}],"stateMutability":"view"},{"type":"function","name":"removeReport","inputs":[{"name":"_employeeId","type":"uint256","internalType":"uint256"}],"outputs":[],"stateMutability":"nonpayable"},{"type":"function","name":"resetReports","inputs":[],"outputs":[],"stateMutability":"nonpayable"}],"bytecode":{"object":"0x608060405234801561000f575f80fd5b506040516109d73803806109d78339818101604052810190610031919061008e565b8282828282815f81905550806001819055505050806002819055505050505050506100de565b5f80fd5b5f819050919050565b61006d8161005b565b8114610077575f80fd5b50565b5f8151905061008881610064565b92915050565b5f805f606084860312156100a5576100a4610057565b5b5f6100b28682870161007a565b93505060206100c38682870161007a565b92505060406100d48682870161007a565b9150509250925092565b6108ec806100eb5f395ff3fe608060405234801561000f575f80fd5b50600436106100e8575f3560e01c80635cdee0c01161008a578063a3c86daf11610064578063a3c86daf14610238578063a596d3c814610256578063d49f779a14610260578063f5895a0a1461027c576100e8565b80635cdee0c0146101ce5780637e397536146101ec57806386e73dc31461021c576100e8565b8063318b5c2a116100c6578063318b5c2a1461015857806337ed0af0146101745780633f83ea3b1461019257806350dca6ab146101b0576100e8565b806308893555146100ec578063234397c31461010a57806327d33f721461013a575b5f80fd5b6100f461029a565b604051610101919061054e565b60405180910390f35b610124600480360381019061011f9190610595565b6102b4565b60405161013191906105da565b60405180910390f35b610142610311565b60405161014f919061054e565b60405180910390f35b610172600480360381019061016d9190610595565b61031d565b005b61017c6103de565b604051610189919061067d565b60405180910390f35b61019a61041b565b6040516101a7919061054e565b60405180910390f35b6101b8610420565b6040516101c5919061054e565b60405180910390f35b6101d6610426565b6040516101e3919061054e565b60405180910390f35b61020660048036038101906102019190610595565b610434565b604051610213919061054e565b60405180910390f35b61023660048036038101906102319190610595565b610454565b005b61024061047d565b60405161024d9190610754565b60405180910390f35b61025e6104d3565b005b61027a60048036038101906102759190610595565b6104e2565b005b6102846104ee565b604051610291919061054e565b60405180910390f35b5f620186a06003805490506102af91906107a1565b905090565b5f805f90505b6003805490508110156103075782600382815481106102dc576102db6107e2565b5b905f5260205f200154036102f457600191505061030c565b80806102ff9061080f565b9150506102ba565b505f90505b919050565b5f600380549050905090565b5f5b6003805490508110156103da578160038281548110610341576103406107e2565b5b905f5260205f200154036103c757600360016003805490506103639190610856565b81548110610374576103736107e2565b5b905f5260205f20015460038281548110610391576103906107e2565b5b905f5260205f20018190555060038054806103af576103ae610889565b5b600190038181905f5260205f20015f905590556103da565b80806103d29061080f565b91505061031f565b5050565b60606040518060400160405280601381526020017f456e67696e656572696e67204d616e6167657200000000000000000000000000815250905090565b5f5481565b60025481565b5f61042f6104f4565b905090565b60038181548110610443575f80fd5b905f5260205f20015f915090505481565b600381908060018154018082558091505060019003905f5260205f20015f909190919091505550565b606060038054806020026020016040519081016040528092919081815260200182805480156104c957602002820191905f5260205f20905b8154815260200190600101908083116104b5575b5050505050905090565b60035f6104e091906104fd565b565b6104eb81610454565b50565b60015481565b5f600254905090565b5080545f8255905f5260205f2090810190610518919061051b565b50565b5b80821115610532575f815f90555060010161051c565b5090565b5f819050919050565b61054881610536565b82525050565b5f6020820190506105615f83018461053f565b92915050565b5f80fd5b61057481610536565b811461057e575f80fd5b50565b5f8135905061058f8161056b565b92915050565b5f602082840312156105aa576105a9610567565b5b5f6105b784828501610581565b91505092915050565b5f8115159050919050565b6105d4816105c0565b82525050565b5f6020820190506105ed5f8301846105cb565b92915050565b5f81519050919050565b5f82825260208201905092915050565b5f5b8381101561062a57808201518184015260208101905061060f565b5f8484015250505050565b5f601f19601f8301169050919050565b5f61064f826105f3565b61065981856105fd565b935061066981856020860161060d565b61067281610635565b840191505092915050565b5f6020820190508181035f8301526106958184610645565b905092915050565b5f81519050919050565b5f82825260208201905092915050565b5f819050602082019050919050565b6106cf81610536565b82525050565b5f6106e083836106c6565b60208301905092915050565b5f602082019050919050565b5f6107028261069d565b61070c81856106a7565b9350610717836106b7565b805f5b8381101561074757815161072e88826106d5565b9750610739836106ec565b92505060018101905061071a565b5085935050505092915050565b5f6020820190508181035f83015261076c81846106f8565b905092915050565b7f4e487b71000000000000000000000000000000000000000000000000000000005f52601160045260245ffd5b5f6107ab82610536565b91506107b683610536565b92508282026107c481610536565b915082820484148315176107db576107da610774565b5b5092915050565b7f4e487b71000000000000000000000000000000000000000000000000000000005f52603260045260245ffd5b5f61081982610536565b91507fffffffffffffffffffffffffffffffffffffffffffffffffffffffffffffffff820361084b5761084a610774565b5b600182019050919050565b5f61086082610536565b915061086b83610536565b925082820390508181111561088357610882610774565b5b92915050565b7f4e487b71000000000000000000000000000000000000000000000000000000005f52603160045260245ffdfea2646970667358221220c18ba09a62ee1e7515da75d92d8e057d46fc81dfa910306f1d908f71542c141b64736f6c63430008140033","linkReferences":{}},"methodIdentifiers":{"addEngineerReport(uint256)":"d49f779a","addReport(uint256)":"86e73dc3","annualSalary()":"50dca6ab","employeeIds(uint256)":"7e397536","getAnnualCost()":"5cdee0c0","getEmployeeType()":"37ed0af0","getReports()":"a3c86daf","getReportsCount()":"27d33f72","getTotalReportsCost()":"08893555","idNumber()":"3f83ea3b","isReport(uint256)":"234397c3","managerId()":"f5895a0a","removeReport(uint256)":"318b5c2a","resetReports()":"a596d3c8"},"id":61}