{"abi":[{"type":"constructor","inputs":[{"name":"_salesPerson","type":"address","internalType":"address"},{"name":"_engineeringManager","type":"address","internalType":"address"}],"stateMutability":"nonpayable"},{"type":"function","name":"engineeringManager","inputs":[],"outputs":[{"name":"","type":"address","internalType":"address"}],"stateMutability":"view"},{"type":"function","name":"getEngineeringManagerInfo","inputs":[],"outputs":[{"name":"id","type":"uint256","internalType":"uint256"},{"name":"managerId","type":"uint256","internalType":"uint256"},{"name":"salary","type":"uint256","internalType":"uint256"},{"name":"reportsCount","type":"uint256","internalType":"uint256"}],"stateMutability":"view"},{"type":"function","name":"getSalespersonInfo","inputs":[],"outputs":[{"name":"id","type":"uint256","internalType":"uint256"},{"name":"managerId","type":"uint256","internalType":"uint256"},{"name":"hourlyRate","type":"uint256","internalType":"uint256"},{"name":"annualCost","type":"uint256","internalType":"uint256"}],"stateMutability":"view"},{"type":"function","name":"salesPerson","inputs":[],"outputs":[{"name":"","type":"address","internalType":"address"}],"stateMutability":"view"},{"type":"function","name":"verifyInheritance","inputs":[],"outputs":[{"name":"salespersonValid","type":"bool","internalType":"bool"},{"name":"managerValid","type":"bool","internalType":"bool"}],"stateMutability":"view"},{"type":"event","name":"ContractsRegistered","inputs":[{"name":"salesPerson","type":"address","indexed":true,"internalType":"address"},{"name":"engineeringManager","type":"address","indexed":true,"internalType":"address"}],"anonymous":false}],"bytecode":{"object":"0x608060405234801561000f575f80fd5b50604051610a23380380610a238339818101604052810190610031919061016f565b815f806101000a81548173ffffffffffffffffffffffffffffffffffffffff021916908373ffffffffffffffffffffffffffffffffffffffff1602179055508060015f6101000a81548173ffffffffffffffffffffffffffffffffffffffff021916908373ffffffffffffffffffffffffffffffffffffffff1602179055508073ffffffffffffffffffffffffffffffffffffffff168273ffffffffffffffffffffffffffffffffffffffff167fdf5dbda57ffcb8feb0fb9bbc3026d4fe961f059a7944e0570bbfa0404ea20d6660405160405180910390a350506101ad565b5f80fd5b5f73ffffffffffffffffffffffffffffffffffffffff82169050919050565b5f61013e82610115565b9050919050565b61014e81610134565b8114610158575f80fd5b50565b5f8151905061016981610145565b92915050565b5f806040838503121561018557610184610111565b5b5f6101928582860161015b565b92505060206101a38582860161015b565b9150509250929050565b610869806101ba5f395ff3fe608060405234801561000f575f80fd5b5060043610610055575f3560e01c80630f62819414610059578063687981dd14610077578063794f9dab14610095578063ed4492df146100b4578063f4747cea146100d5575b5f80fd5b6100616100f6565b60405161006e9190610725565b60405180910390f35b61007f610119565b60405161008c9190610725565b60405180910390f35b61009d61013e565b6040516100ab929190610758565b60405180910390f35b6100bc61030f565b6040516100cc9493929190610797565b60405180910390f35b6100dd6104fb565b6040516100ed9493929190610797565b60405180910390f35b5f8054906101000a900473ffffffffffffffffffffffffffffffffffffffff1681565b60015f9054906101000a900473ffffffffffffffffffffffffffffffffffffffff1681565b5f805f8054906101000a900473ffffffffffffffffffffffffffffffffffffffff1673ffffffffffffffffffffffffffffffffffffffff16635cdee0c06040518163ffffffff1660e01b8152600401602060405180830381865afa9250505080156101c757506040513d601f19601f820116820180604052508101906101c49190610808565b60015b6101d3575f91506101d9565b60019250505b60015f9054906101000a900473ffffffffffffffffffffffffffffffffffffffff1673ffffffffffffffffffffffffffffffffffffffff16635cdee0c06040518163ffffffff1660e01b8152600401602060405180830381865afa92505050801561026257506040513d601f19601f8201168201806040525081019061025f9190610808565b60015b61026e575f905061030b565b60015f9054906101000a900473ffffffffffffffffffffffffffffffffffffffff1673ffffffffffffffffffffffffffffffffffffffff166327d33f726040518163ffffffff1660e01b8152600401602060405180830381865afa9250505080156102f757506040513d601f19601f820116820180604052508101906102f49190610808565b60015b610303575f9150610309565b60019250505b505b9091565b5f805f805f60015f9054906101000a900473ffffffffffffffffffffffffffffffffffffffff1690508073ffffffffffffffffffffffffffffffffffffffff16633f83ea3b6040518163ffffffff1660e01b8152600401602060405180830381865afa158015610381573d5f803e3d5ffd5b505050506040513d601f19601f820116820180604052508101906103a59190610808565b8173ffffffffffffffffffffffffffffffffffffffff1663f5895a0a6040518163ffffffff1660e01b8152600401602060405180830381865afa1580156103ee573d5f803e3d5ffd5b505050506040513d601f19601f820116820180604052508101906104129190610808565b8273ffffffffffffffffffffffffffffffffffffffff166350dca6ab6040518163ffffffff1660e01b8152600401602060405180830381865afa15801561045b573d5f803e3d5ffd5b505050506040513d601f19601f8201168201806040525081019061047f9190610808565b8373ffffffffffffffffffffffffffffffffffffffff166327d33f726040518163ffffffff1660e01b8152600401602060405180830381865afa1580156104c8573d5f803e3d5ffd5b505050506040513d601f19601f820116820180604052508101906104ec9190610808565b94509450945094505090919293565b5f805f805f805f9054906101000a900473ffffffffffffffffffffffffffffffffffffffff1690508073ffffffffffffffffffffffffffffffffffffffff16633f83ea3b6040518163ffffffff1660e01b8152600401602060405180830381865afa15801561056c573d5f803e3d5ffd5b505050506040513d601f19601f820116820180604052508101906105909190610808565b8173ffffffffffffffffffffffffffffffffffffffff1663f5895a0a6040518163ffffffff1660e01b8152600401602060405180830381865afa1580156105d9573d5f803e3d5ffd5b505050506040513d601f19601f820116820180604052508101906105fd9190610808565b8273ffffffffffffffffffffffffffffffffffffffff166359a7b3fe6040518163ffffffff1660e01b8152600401602060405180830381865afa158015610646573d5f803e3d5ffd5b505050506040513d601f19601f8201168201806040525081019061066a9190610808565b8373ffffffffffffffffffffffffffffffffffffffff16635cdee0c06040518163ffffffff1660e01b8152600401602060405180830381865afa1580156106b3573d5f803e3d5ffd5b505050506040513d601f19601f820116820180604052508101906106d79190610808565b94509450945094505090919293565b5f73ffffffffffffffffffffffffffffffffffffffff82169050919050565b5f61070f826106e6565b9050919050565b61071f81610705565b82525050565b5f6020820190506107385f830184610716565b92915050565b5f8115159050919050565b6107528161073e565b82525050565b5f60408201905061076b5f830185610749565b6107786020830184610749565b9392505050565b5f819050919050565b6107918161077f565b82525050565b5f6080820190506107aa5f830187610788565b6107b76020830186610788565b6107c46040830185610788565b6107d16060830184610788565b95945050505050565b5f80fd5b6107e78161077f565b81146107f1575f80fd5b50565b5f81519050610802816107de565b92915050565b5f6020828403121561081d5761081c6107da565b5b5f61082a848285016107f4565b9150509291505056fea2646970667358221220ff98e470407acd913bcbbc33061bc50cb89944c642c8d10d171b9815eef357ec64736f6c63430008140033","linkReferences":{}},"methodIdentifiers":{"engineeringManager()":"687981dd","getEngineeringManagerInfo()":"ed4492df","getSalespersonInfo()":"f4747cea","salesPerson()":"0f628194","verifyInheritance()":"794f9dab"},"id":61}