{"abi":[{"type":"function","name":"addReport","inputs":[{"name":"_employeeId","type":"uint256","internalType":"uint256"}],"outputs":[],"stateMutability":"nonpayable"},{"type":"function","name":"employeeIds","inputs":[{"name":"","type":"uint256","internalType":"uint256"}],"outputs":[{"name":"","type":"uint256","internalType":"uint256"}],"stateMutability":"view"},{"type":"function","name":"getReports","inputs":[],"outputs":[{"name":"","type":"uint256[]","internalType":"uint256[]"}],"stateMutability":"view"},{"type":"function","name":"getReportsCount","inputs":[],"outputs":[{"name":"","type":"uint256","internalType":"uint256"}],"stateMutability":"view"},{"type":"function","name":"isReport","inputs":[{"name":"_employeeId","type":"uint256","internalType":"uint256"}],"outputs":[{"name":"","type":"bool","internalType":"bool"}],"stateMutability":"view"},{"type":"function","name":"removeReport","inputs":[{"name":"_employeeId","type":"uint256","internalType":"uint256"}],"outputs":[],"stateMutability":"nonpayable"},{"type":"function","name":"resetReports","inputs":[],"outputs":[],"stateMutability":"nonpayable"}],"bytecode":{"object":"0x608060405234801561000f575f80fd5b5061062c8061001d5f395ff3fe608060405234801561000f575f80fd5b506004361061007b575f3560e01c80637e397536116100595780637e397536146100e957806386e73dc314610119578063a3c86daf14610135578063a596d3c8146101535761007b565b8063234397c31461007f57806327d33f72146100af578063318b5c2a146100cd575b5f80fd5b61009960048036038101906100949190610398565b61015d565b6040516100a691906103dd565b60405180910390f35b6100b76101b8565b6040516100c49190610405565b60405180910390f35b6100e760048036038101906100e29190610398565b6101c3565b005b61010360048036038101906100fe9190610398565b61027e565b6040516101109190610405565b60405180910390f35b610133600480360381019061012e9190610398565b61029d565b005b61013d6102c5565b60405161014a91906104d5565b60405180910390f35b61015b61031a565b005b5f805f90505b5f805490508110156101ae57825f8281548110610183576101826104f5565b5b905f5260205f2001540361019b5760019150506101b3565b80806101a69061054f565b915050610163565b505f90505b919050565b5f8080549050905090565b5f5b5f8054905081101561027a57815f82815481106101e5576101e46104f5565b5b905f5260205f20015403610267575f60015f805490506102059190610596565b81548110610216576102156104f5565b5b905f5260205f2001545f8281548110610232576102316104f5565b5b905f5260205f2001819055505f80548061024f5761024e6105c9565b5b600190038181905f5260205f20015f9055905561027a565b80806102729061054f565b9150506101c5565b5050565b5f818154811061028c575f80fd5b905f5260205f20015f915090505481565b5f81908060018154018082558091505060019003905f5260205f20015f909190919091505550565b60605f80548060200260200160405190810160405280929190818152602001828054801561031057602002820191905f5260205f20905b8154815260200190600101908083116102fc575b5050505050905090565b5f806103269190610328565b565b5080545f8255905f5260205f20908101906103439190610346565b50565b5b8082111561035d575f815f905550600101610347565b5090565b5f80fd5b5f819050919050565b61037781610365565b8114610381575f80fd5b50565b5f813590506103928161036e565b92915050565b5f602082840312156103ad576103ac610361565b5b5f6103ba84828501610384565b91505092915050565b5f8115159050919050565b6103d7816103c3565b82525050565b5f6020820190506103f05f8301846103ce565b92915050565b6103ff81610365565b82525050565b5f6020820190506104185f8301846103f6565b92915050565b5f81519050919050565b5f82825260208201905092915050565b5f819050602082019050919050565b61045081610365565b82525050565b5f6104618383610447565b60208301905092915050565b5f602082019050919050565b5f6104838261041e565b61048d8185610428565b935061049883610438565b805f5b838110156104c85781516104af8882610456565b97506104ba8361046d565b92505060018101905061049b565b5085935050505092915050565b5f6020820190508181035f8301526104ed8184610479565b905092915050565b7f4e487b71000000000000000000000000000000000000000000000000000000005f52603260045260245ffd5b7f4e487b71000000000000000000000000000000000000000000000000000000005f52601160045260245ffd5b5f61055982610365565b91507fffffffffffffffffffffffffffffffffffffffffffffffffffffffffffffffff820361058b5761058a610522565b5b600182019050919050565b5f6105a082610365565b91506105ab83610365565b92508282039050818111156105c3576105c2610522565b5b92915050565b7f4e487b71000000000000000000000000000000000000000000000000000000005f52603160045260245ffdfea2646970667358221220c39637b1c63b4b7b5206a35f046407c1bc754d0a9d442d30410eab05c90984f564736f6c63430008140033","linkReferences":{}},"methodIdentifiers":{"addReport(uint256)":"86e73dc3","employeeIds(uint256)":"7e397536","getReports()":"a3c86daf","getReportsCount()":"27d33f72","isReport(uint256)":"234397c3","removeReport(uint256)":"318b5c2a","resetReports()":"a596d3c8"},"id":61}