{"abi":[{"type":"constructor","inputs":[{"name":"_idNumber","type":"uint256","internalType":"uint256"},{"name":"_managerId","type":"uint256","internalType":"uint256"},{"name":"_annualSalary","type":"uint256","internalType":"uint256"}],"stateMutability":"nonpayable"},{"type":"function","name":"annualSalary","inputs":[],"outputs":[{"name":"","type":"uint256","internalType":"uint256"}],"stateMutability":"view"},{"type":"function","name":"getAnnualCost","inputs":[],"outputs":[{"name":"","type":"uint256","internalType":"uint256"}],"stateMutability":"view"},{"type":"function","name":"idNumber","inputs":[],"outputs":[{"name":"","type":"uint256","internalType":"uint256"}],"stateMutability":"view"},{"type":"function","name":"managerId","inputs":[],"outputs":[{"name":"","type":"uint256","internalType":"uint256"}],"stateMutability":"view"}],"bytecode":{"object":"0x608060405234801561000f575f80fd5b5060405161022c38038061022c83398181016040528101906100319190610088565b8282815f81905550806001819055505050806002819055505050506100d8565b5f80fd5b5f819050919050565b61006781610055565b8114610071575f80fd5b50565b5f815190506100828161005e565b92915050565b5f805f6060848603121561009f5761009e610051565b5b5f6100ac86828701610074565b93505060206100bd86828701610074565b92505060406100ce86828701610074565b9150509250925092565b610147806100e55f395ff3fe608060405234801561000f575f80fd5b506004361061004a575f3560e01c80633f83ea3b1461004e57806350dca6ab1461006c5780635cdee0c01461008a578063f5895a0a146100a8575b5f80fd5b6100566100c6565b60405161006391906100f8565b60405180910390f35b6100746100cb565b60405161008191906100f8565b60405180910390f35b6100926100d1565b60405161009f91906100f8565b60405180910390f35b6100b06100da565b6040516100bd91906100f8565b60405180910390f35b5f5481565b60025481565b5f600254905090565b60015481565b5f819050919050565b6100f2816100e0565b82525050565b5f60208201905061010b5f8301846100e9565b9291505056fea2646970667358221220f34c46d360a699ca3b6a1228741671a4f8fed5443c689acfc8e022433e52f0e064736f6c63430008140033","linkReferences":{}},"methodIdentifiers":{"annualSalary()":"50dca6ab","getAnnualCost()":"5cdee0c0","idNumber()":"3f83ea3b","managerId()":"f5895a0a"},"id":61}