{"abi":[{"type":"constructor","inputs":[{"name":"_idNumber","type":"uint256","internalType":"uint256"},{"name":"_managerId","type":"uint256","internalType":"uint256"},{"name":"_hourlyRate","type":"uint256","internalType":"uint256"}],"stateMutability":"nonpayable"},{"type":"function","name":"getAnnualCost","inputs":[],"outputs":[{"name":"","type":"uint256","internalType":"uint256"}],"stateMutability":"view"},{"type":"function","name":"getEmployeeType","inputs":[],"outputs":[{"name":"","type":"string","internalType":"string"}],"stateMutability":"pure"},{"type":"function","name":"hourlyRate","inputs":[],"outputs":[{"name":"","type":"uint256","internalType":"uint256"}],"stateMutability":"view"},{"type":"function","name":"idNumber","inputs":[],"outputs":[{"name":"","type":"uint256","internalType":"uint256"}],"stateMutability":"view"},{"type":"function","name":"managerId","inputs":[],"outputs":[{"name":"","type":"uint256","internalType":"uint256"}],"stateMutability":"view"}],"bytecode":{"object":"0x608060405234801561000f575f80fd5b506040516103bd3803806103bd8339818101604052810190610031919061008e565b8282828282815f81905550806001819055505050806002819055505050505050506100de565b5f80fd5b5f819050919050565b61006d8161005b565b8114610077575f80fd5b50565b5f8151905061008881610064565b92915050565b5f805f606084860312156100a5576100a4610057565b5b5f6100b28682870161007a565b93505060206100c38682870161007a565b92505060406100d48682870161007a565b9150509250925092565b6102d2806100eb5f395ff3fe608060405234801561000f575f80fd5b5060043610610055575f3560e01c806337ed0af0146100595780633f83ea3b1461007757806359a7b3fe146100955780635cdee0c0146100b3578063f5895a0a146100d1575b5f80fd5b6100616100ef565b60405161006e91906101dd565b60405180910390f35b61007f61012c565b60405161008c9190610215565b60405180910390f35b61009d610131565b6040516100aa9190610215565b60405180910390f35b6100bb610137565b6040516100c89190610215565b60405180910390f35b6100d961014d565b6040516100e69190610215565b60405180910390f35b60606040518060400160405280600b81526020017f53616c6573706572736f6e000000000000000000000000000000000000000000815250905090565b5f5481565b60025481565b5f610820600254610148919061025b565b905090565b60015481565b5f81519050919050565b5f82825260208201905092915050565b5f5b8381101561018a57808201518184015260208101905061016f565b5f8484015250505050565b5f601f19601f8301169050919050565b5f6101af82610153565b6101b9818561015d565b93506101c981856020860161016d565b6101d281610195565b840191505092915050565b5f6020820190508181035f8301526101f581846101a5565b905092915050565b5f819050919050565b61020f816101fd565b82525050565b5f6020820190506102285f830184610206565b92915050565b7f4e487b71000000000000000000000000000000000000000000000000000000005f52601160045260245ffd5b5f610265826101fd565b9150610270836101fd565b925082820261027e816101fd565b915082820484148315176102955761029461022e565b5b509291505056fea2646970667358221220e4565863802abbf39893d2158c44945d97d79e12ca878c7e3b66e4a61e28ec3064736f6c63430008140033","linkReferences":{}},"methodIdentifiers":{"getAnnualCost()":"5cdee0c0","getEmployeeType()":"37ed0af0","hourlyRate()":"59a7b3fe","idNumber()":"3f83ea3b","managerId()":"f5895a0a"},"id":61}